{
	"ComputeMarketplace.sol": {
		"ComputeMarketplace": {
			"abi": [
				{
					"inputs": [
						{
							"internalType": "address",
							"name": "_tokenAddress",
							"type": "address"
						}
					],
					"stateMutability": "nonpayable",
					"type": "constructor"
				},
				{
					"inputs": [
						{
							"internalType": "address",
							"name": "owner",
							"type": "address"
						}
					],
					"name": "OwnableInvalidOwner",
					"type": "error"
				},
				{
					"inputs": [
						{
							"internalType": "address",
							"name": "account",
							"type": "address"
						}
					],
					"name": "OwnableUnauthorizedAccount",
					"type": "error"
				},
				{
					"anonymous": false,
					"inputs": [
						{
							"indexed": false,
							"internalType": "uint256",
							"name": "taskId",
							"type": "uint256"
						},
						{
							"indexed": false,
							"internalType": "uint256",
							"name": "resourceId",
							"type": "uint256"
						},
						{
							"indexed": false,
							"internalType": "uint256",
							"name": "bidPrice",
							"type": "uint256"
						}
					],
					"name": "BidPlaced",
					"type": "event"
				},
				{
					"anonymous": false,
					"inputs": [
						{
							"indexed": true,
							"internalType": "address",
							"name": "previousOwner",
							"type": "address"
						},
						{
							"indexed": true,
							"internalType": "address",
							"name": "newOwner",
							"type": "address"
						}
					],
					"name": "OwnershipTransferred",
					"type": "event"
				},
				{
					"anonymous": false,
					"inputs": [
						{
							"indexed": false,
							"internalType": "uint256",
							"name": "resourceId",
							"type": "uint256"
						},
						{
							"indexed": false,
							"internalType": "uint256",
							"name": "newReputation",
							"type": "uint256"
						}
					],
					"name": "ReputationUpdated",
					"type": "event"
				},
				{
					"anonymous": false,
					"inputs": [
						{
							"indexed": false,
							"internalType": "uint256",
							"name": "taskId",
							"type": "uint256"
						},
						{
							"indexed": false,
							"internalType": "address",
							"name": "provider",
							"type": "address"
						},
						{
							"indexed": false,
							"internalType": "uint256",
							"name": "finalPrice",
							"type": "uint256"
						}
					],
					"name": "TaskAssigned",
					"type": "event"
				},
				{
					"anonymous": false,
					"inputs": [
						{
							"indexed": false,
							"internalType": "uint256",
							"name": "taskId",
							"type": "uint256"
						},
						{
							"indexed": false,
							"internalType": "address",
							"name": "client",
							"type": "address"
						},
						{
							"indexed": false,
							"internalType": "uint256",
							"name": "paymentAmount",
							"type": "uint256"
						}
					],
					"name": "TaskCreated",
					"type": "event"
				},
				{
					"inputs": [],
					"name": "BIDDING_PERIOD",
					"outputs": [
						{
							"internalType": "uint256",
							"name": "",
							"type": "uint256"
						}
					],
					"stateMutability": "view",
					"type": "function"
				},
				{
					"inputs": [],
					"name": "REPUTATION_FACTOR",
					"outputs": [
						{
							"internalType": "uint256",
							"name": "",
							"type": "uint256"
						}
					],
					"stateMutability": "view",
					"type": "function"
				},
				{
					"inputs": [],
					"name": "SPECIALIZATION_BONUS",
					"outputs": [
						{
							"internalType": "uint256",
							"name": "",
							"type": "uint256"
						}
					],
					"stateMutability": "view",
					"type": "function"
				},
				{
					"inputs": [
						{
							"internalType": "string",
							"name": "description",
							"type": "string"
						},
						{
							"internalType": "uint32",
							"name": "duration",
							"type": "uint32"
						},
						{
							"internalType": "uint256",
							"name": "paymentAmount",
							"type": "uint256"
						},
						{
							"internalType": "string",
							"name": "taskType",
							"type": "string"
						}
					],
					"name": "createTask",
					"outputs": [],
					"stateMutability": "nonpayable",
					"type": "function"
				},
				{
					"inputs": [
						{
							"internalType": "uint256",
							"name": "taskId",
							"type": "uint256"
						}
					],
					"name": "finalizeTask",
					"outputs": [],
					"stateMutability": "nonpayable",
					"type": "function"
				},
				{
					"inputs": [],
					"name": "owner",
					"outputs": [
						{
							"internalType": "address",
							"name": "",
							"type": "address"
						}
					],
					"stateMutability": "view",
					"type": "function"
				},
				{
					"inputs": [],
					"name": "paymentToken",
					"outputs": [
						{
							"internalType": "contract IERC20",
							"name": "",
							"type": "address"
						}
					],
					"stateMutability": "view",
					"type": "function"
				},
				{
					"inputs": [
						{
							"internalType": "uint256",
							"name": "taskId",
							"type": "uint256"
						},
						{
							"internalType": "uint256",
							"name": "resourceId",
							"type": "uint256"
						},
						{
							"internalType": "uint256",
							"name": "bidPrice",
							"type": "uint256"
						}
					],
					"name": "placeBid",
					"outputs": [],
					"stateMutability": "nonpayable",
					"type": "function"
				},
				{
					"inputs": [
						{
							"internalType": "uint256",
							"name": "taskId",
							"type": "uint256"
						},
						{
							"internalType": "uint32",
							"name": "rating",
							"type": "uint32"
						}
					],
					"name": "rateResource",
					"outputs": [],
					"stateMutability": "nonpayable",
					"type": "function"
				},
				{
					"inputs": [
						{
							"internalType": "uint64",
							"name": "computePower",
							"type": "uint64"
						},
						{
							"internalType": "uint256",
							"name": "basePrice",
							"type": "uint256"
						},
						{
							"internalType": "string[]",
							"name": "specializations",
							"type": "string[]"
						}
					],
					"name": "registerResource",
					"outputs": [],
					"stateMutability": "nonpayable",
					"type": "function"
				},
				{
					"inputs": [],
					"name": "renounceOwnership",
					"outputs": [],
					"stateMutability": "nonpayable",
					"type": "function"
				},
				{
					"inputs": [],
					"name": "resourceCount",
					"outputs": [
						{
							"internalType": "uint256",
							"name": "",
							"type": "uint256"
						}
					],
					"stateMutability": "view",
					"type": "function"
				},
				{
					"inputs": [
						{
							"internalType": "uint256",
							"name": "",
							"type": "uint256"
						}
					],
					"name": "resources",
					"outputs": [
						{
							"internalType": "address",
							"name": "owner",
							"type": "address"
						},
						{
							"internalType": "uint64",
							"name": "computePower",
							"type": "uint64"
						},
						{
							"internalType": "uint256",
							"name": "basePrice",
							"type": "uint256"
						},
						{
							"internalType": "bool",
							"name": "isAvailable",
							"type": "bool"
						},
						{
							"internalType": "uint32",
							"name": "reputation",
							"type": "uint32"
						},
						{
							"internalType": "uint32",
							"name": "totalRatingScore",
							"type": "uint32"
						},
						{
							"internalType": "uint32",
							"name": "numberOfRatings",
							"type": "uint32"
						}
					],
					"stateMutability": "view",
					"type": "function"
				},
				{
					"inputs": [],
					"name": "taskCount",
					"outputs": [
						{
							"internalType": "uint256",
							"name": "",
							"type": "uint256"
						}
					],
					"stateMutability": "view",
					"type": "function"
				},
				{
					"inputs": [
						{
							"internalType": "uint256",
							"name": "",
							"type": "uint256"
						}
					],
					"name": "tasks",
					"outputs": [
						{
							"internalType": "uint64",
							"name": "taskId",
							"type": "uint64"
						},
						{
							"internalType": "address",
							"name": "client",
							"type": "address"
						},
						{
							"internalType": "string",
							"name": "description",
							"type": "string"
						},
						{
							"internalType": "uint32",
							"name": "duration",
							"type": "uint32"
						},
						{
							"internalType": "uint256",
							"name": "paymentAmount",
							"type": "uint256"
						},
						{
							"internalType": "enum ComputeMarketplace.TaskStatus",
							"name": "status",
							"type": "uint8"
						},
						{
							"internalType": "address",
							"name": "provider",
							"type": "address"
						},
						{
							"internalType": "uint32",
							"name": "taskStartTime",
							"type": "uint32"
						},
						{
							"internalType": "string",
							"name": "resultHash",
							"type": "string"
						},
						{
							"internalType": "uint64",
							"name": "allocatedResourceId",
							"type": "uint64"
						},
						{
							"internalType": "uint256",
							"name": "finalPrice",
							"type": "uint256"
						},
						{
							"internalType": "string",
							"name": "taskType",
							"type": "string"
						},
						{
							"internalType": "bool",
							"name": "isAllocated",
							"type": "bool"
						}
					],
					"stateMutability": "view",
					"type": "function"
				},
				{
					"inputs": [
						{
							"internalType": "address",
							"name": "newOwner",
							"type": "address"
						}
					],
					"name": "transferOwnership",
					"outputs": [],
					"stateMutability": "nonpayable",
					"type": "function"
				}
			],
			"devdoc": {
				"details": "A decentralized marketplace for computational resources.",
				"errors": {
					"OwnableInvalidOwner(address)": [
						{
							"details": "The owner is not a valid owner account. (eg. `address(0)`)"
						}
					],
					"OwnableUnauthorizedAccount(address)": [
						{
							"details": "The caller account is not authorized to perform an operation."
						}
					]
				},
				"kind": "dev",
				"methods": {
					"owner()": {
						"details": "Returns the address of the current owner."
					},
					"renounceOwnership()": {
						"details": "Leaves the contract without owner. It will not be possible to call `onlyOwner` functions. Can only be called by the current owner. NOTE: Renouncing ownership will leave the contract without an owner, thereby disabling any functionality that is only available to the owner."
					},
					"transferOwnership(address)": {
						"details": "Transfers ownership of the contract to a new account (`newOwner`). Can only be called by the current owner."
					}
				},
				"title": "ComputeMarketplace",
				"version": 1
			},
			"evm": {
				"assembly": "    /* \"ComputeMarketplace.sol\":345:6630  contract ComputeMarketplace is Ownable, ReentrancyGuard {... */\n  mstore(0x40, 0x80)\n    /* \"ComputeMarketplace.sol\":1939:2049  constructor(address _tokenAddress) Ownable(msg.sender) {... */\n  callvalue\n  dup1\n  iszero\n  tag_1\n  jumpi\n  0x00\n  dup1\n  revert\ntag_1:\n  pop\n  mload(0x40)\n  sub(codesize, bytecodeSize)\n  dup1\n  bytecodeSize\n  dup4\n  codecopy\n  dup2\n  add\n  0x40\n  dup2\n  swap1\n  mstore\n  tag_2\n  swap2\n  tag_3\n  jump\t// in\ntag_2:\n    /* \"ComputeMarketplace.sol\":1982:1992  msg.sender */\n  caller\n  dup1\n    /* \"@openzeppelin/contracts/access/Ownable.sol\":1269:1364  if (initialOwner == address(0)) {... */\n  tag_8\n  jumpi\n    /* \"@openzeppelin/contracts/access/Ownable.sol\":1322:1353  OwnableInvalidOwner(address(0)) */\n  mload(0x40)\n  shl(0xe0, 0x1e4fbdf7)\n  dup2\n  mstore\n    /* \"@openzeppelin/contracts/access/Ownable.sol\":1350:1351  0 */\n  0x00\n    /* \"@openzeppelin/contracts/access/Ownable.sol\":1322:1353  OwnableInvalidOwner(address(0)) */\n  0x04\n  dup3\n  add\n    /* \"#utility.yul\":455:506   */\n  mstore\n    /* \"#utility.yul\":428:446   */\n  0x24\n  add\n    /* \"@openzeppelin/contracts/access/Ownable.sol\":1322:1353  OwnableInvalidOwner(address(0)) */\n  mload(0x40)\n  dup1\n  swap2\n  sub\n  swap1\n  revert\n    /* \"@openzeppelin/contracts/access/Ownable.sol\":1269:1364  if (initialOwner == address(0)) {... */\ntag_8:\n    /* \"@openzeppelin/contracts/access/Ownable.sol\":1373:1405  _transferOwnership(initialOwner) */\n  tag_11\n    /* \"@openzeppelin/contracts/access/Ownable.sol\":1392:1404  initialOwner */\n  dup2\n    /* \"@openzeppelin/contracts/access/Ownable.sol\":1373:1391  _transferOwnership */\n  tag_12\n    /* \"@openzeppelin/contracts/access/Ownable.sol\":1373:1405  _transferOwnership(initialOwner) */\n  jump\t// in\ntag_11:\n  pop\n    /* \"@openzeppelin/contracts/security/ReentrancyGuard.sol\":1716:1717  1 */\n  0x01\n    /* \"@openzeppelin/contracts/security/ReentrancyGuard.sol\":1821:1843  _status = _NOT_ENTERED */\n  dup1\n  sstore\n    /* \"ComputeMarketplace.sol\":2005:2017  paymentToken */\n  0x02\n    /* \"ComputeMarketplace.sol\":2005:2041  paymentToken = IERC20(_tokenAddress) */\n  dup1\n  sload\n  not(sub(shl(0xa0, 0x01), 0x01))\n  and\n  sub(shl(0xa0, 0x01), 0x01)\n  swap3\n  swap1\n  swap3\n  and\n  swap2\n  swap1\n  swap2\n  or\n  swap1\n  sstore\n    /* \"ComputeMarketplace.sol\":345:6630  contract ComputeMarketplace is Ownable, ReentrancyGuard {... */\n  jump(tag_17)\n    /* \"@openzeppelin/contracts/access/Ownable.sol\":2912:3099  function _transferOwnership(address newOwner) internal virtual {... */\ntag_12:\n    /* \"@openzeppelin/contracts/access/Ownable.sol\":2985:3001  address oldOwner */\n  0x00\n    /* \"@openzeppelin/contracts/access/Ownable.sol\":3004:3010  _owner */\n  dup1\n  sload\n  sub(shl(0xa0, 0x01), 0x01)\n    /* \"@openzeppelin/contracts/access/Ownable.sol\":3020:3037  _owner = newOwner */\n  dup4\n  dup2\n  and\n  not(sub(shl(0xa0, 0x01), 0x01))\n  dup4\n  and\n  dup2\n  or\n  dup5\n  sstore\n    /* \"@openzeppelin/contracts/access/Ownable.sol\":3052:3092  OwnershipTransferred(oldOwner, newOwner) */\n  mload(0x40)\n    /* \"@openzeppelin/contracts/access/Ownable.sol\":3004:3010  _owner */\n  swap2\n  swap1\n  swap3\n  and\n  swap3\n  dup4\n  swap2\n    /* \"@openzeppelin/contracts/access/Ownable.sol\":3052:3092  OwnershipTransferred(oldOwner, newOwner) */\n  0x8be0079c531659141344cd1fd0a4f28419497f9722a3daafe3b4186f6b6457e0\n  swap2\n    /* \"@openzeppelin/contracts/access/Ownable.sol\":2985:3001  address oldOwner */\n  swap1\n    /* \"@openzeppelin/contracts/access/Ownable.sol\":3052:3092  OwnershipTransferred(oldOwner, newOwner) */\n  log3\n    /* \"@openzeppelin/contracts/access/Ownable.sol\":2975:3099  {... */\n  pop\n    /* \"@openzeppelin/contracts/access/Ownable.sol\":2912:3099  function _transferOwnership(address newOwner) internal virtual {... */\n  pop\n  jump\t// out\n    /* \"#utility.yul\":14:304   */\ntag_3:\n    /* \"#utility.yul\":84:90   */\n  0x00\n    /* \"#utility.yul\":137:139   */\n  0x20\n    /* \"#utility.yul\":125:134   */\n  dup3\n    /* \"#utility.yul\":116:123   */\n  dup5\n    /* \"#utility.yul\":112:135   */\n  sub\n    /* \"#utility.yul\":108:140   */\n  slt\n    /* \"#utility.yul\":105:157   */\n  iszero\n  tag_19\n  jumpi\n    /* \"#utility.yul\":153:154   */\n  0x00\n    /* \"#utility.yul\":150:151   */\n  dup1\n    /* \"#utility.yul\":143:155   */\n  revert\n    /* \"#utility.yul\":105:157   */\ntag_19:\n    /* \"#utility.yul\":179:195   */\n  dup2\n  mload\n  sub(shl(0xa0, 0x01), 0x01)\n    /* \"#utility.yul\":224:255   */\n  dup2\n  and\n    /* \"#utility.yul\":214:256   */\n  dup2\n  eq\n    /* \"#utility.yul\":204:274   */\n  tag_20\n  jumpi\n    /* \"#utility.yul\":270:271   */\n  0x00\n    /* \"#utility.yul\":267:268   */\n  dup1\n    /* \"#utility.yul\":260:272   */\n  revert\n    /* \"#utility.yul\":204:274   */\ntag_20:\n    /* \"#utility.yul\":293:298   */\n  swap4\n    /* \"#utility.yul\":14:304   */\n  swap3\n  pop\n  pop\n  pop\n  jump\t// out\n    /* \"#utility.yul\":309:512   */\ntag_17:\n    /* \"ComputeMarketplace.sol\":345:6630  contract ComputeMarketplace is Ownable, ReentrancyGuard {... */\n  dataSize(sub_0)\n  dup1\n  dataOffset(sub_0)\n  0x00\n  codecopy\n  0x00\n  return\nstop\n\nsub_0: assembly {\n        /* \"ComputeMarketplace.sol\":345:6630  contract ComputeMarketplace is Ownable, ReentrancyGuard {... */\n      mstore(0x40, 0x80)\n      callvalue\n      dup1\n      iszero\n      tag_1\n      jumpi\n      0x00\n      dup1\n      revert\n    tag_1:\n      pop\n      jumpi(tag_2, lt(calldatasize, 0x04))\n      shr(0xe0, calldataload(0x00))\n      dup1\n      0x8d977672\n      gt\n      tag_19\n      jumpi\n      dup1\n      0xb6cb58a5\n      gt\n      tag_20\n      jumpi\n      dup1\n      0xb6cb58a5\n      eq\n      tag_15\n      jumpi\n      dup1\n      0xc25838a2\n      eq\n      tag_16\n      jumpi\n      dup1\n      0xcbabc9ec\n      eq\n      tag_17\n      jumpi\n      dup1\n      0xf2fde38b\n      eq\n      tag_18\n      jumpi\n      0x00\n      dup1\n      revert\n    tag_20:\n      dup1\n      0x8d977672\n      eq\n      tag_11\n      jumpi\n      dup1\n      0x8da5cb5b\n      eq\n      tag_12\n      jumpi\n      dup1\n      0x9e23cb8a\n      eq\n      tag_13\n      jumpi\n      dup1\n      0xa809ae60\n      eq\n      tag_14\n      jumpi\n      0x00\n      dup1\n      revert\n    tag_19:\n      dup1\n      0x3013ce29\n      gt\n      tag_21\n      jumpi\n      dup1\n      0x3013ce29\n      eq\n      tag_7\n      jumpi\n      dup1\n      0x5e62be25\n      eq\n      tag_8\n      jumpi\n      dup1\n      0x715018a6\n      eq\n      tag_9\n      jumpi\n      dup1\n      0x88488c33\n      eq\n      tag_10\n      jumpi\n      0x00\n      dup1\n      revert\n    tag_21:\n      dup1\n      0x0979adca\n      eq\n      tag_3\n      jumpi\n      dup1\n      0x0a3fa24a\n      eq\n      tag_4\n      jumpi\n      dup1\n      0x244d6daa\n      eq\n      tag_5\n      jumpi\n      dup1\n      0x25db36a8\n      eq\n      tag_6\n      jumpi\n    tag_2:\n      0x00\n      dup1\n      revert\n        /* \"ComputeMarketplace.sol\":2465:2950  function registerResource(uint64 computePower, uint256 basePrice, string[] calldata specializations) external {... */\n    tag_3:\n      tag_22\n      tag_23\n      calldatasize\n      0x04\n      tag_24\n      jump\t// in\n    tag_23:\n      tag_25\n      jump\t// in\n    tag_22:\n      stop\n        /* \"ComputeMarketplace.sol\":496:524  uint256 public resourceCount */\n    tag_4:\n      tag_26\n      sload(0x04)\n      dup2\n      jump\n    tag_26:\n      mload(0x40)\n        /* \"#utility.yul\":1079:1104   */\n      swap1\n      dup2\n      mstore\n        /* \"#utility.yul\":1067:1069   */\n      0x20\n        /* \"#utility.yul\":1052:1070   */\n      add\n        /* \"ComputeMarketplace.sol\":496:524  uint256 public resourceCount */\n    tag_28:\n      mload(0x40)\n      dup1\n      swap2\n      sub\n      swap1\n      return\n        /* \"ComputeMarketplace.sol\":1541:1586  mapping(uint256 => Resource) public resources */\n    tag_5:\n      tag_30\n      tag_31\n      calldatasize\n      0x04\n      tag_32\n      jump\t// in\n    tag_31:\n      mstore(0x20, 0x06)\n      0x00\n      swap1\n      dup2\n      mstore\n      0x40\n      swap1\n      keccak256\n      dup1\n      sload\n      0x01\n      dup3\n      add\n      sload\n      0x02\n      dup4\n      add\n      sload\n      0x04\n      swap1\n      swap4\n      add\n      sload\n      sub(shl(0xa0, 0x01), 0x01)\n      dup4\n      and\n      swap4\n      shl(0xa0, 0x01)\n      swap1\n      swap4\n      div\n      sub(shl(0x40, 0x01), 0x01)\n      and\n      swap3\n      0xff\n      dup2\n      and\n      swap2\n      0x0100\n      swap1\n      swap2\n      div\n      0xffffffff\n      swap1\n      dup2\n      and\n      swap2\n      dup2\n      dup2\n      and\n      swap2\n      0x0100000000\n      swap1\n      swap2\n      div\n      and\n      dup8\n      jump\n    tag_30:\n      0x40\n      dup1\n      mload\n      sub(shl(0xa0, 0x01), 0x01)\n        /* \"#utility.yul\":2099:2154   */\n      swap1\n      swap9\n      and\n        /* \"#utility.yul\":2081:2155   */\n      dup9\n      mstore\n      sub(shl(0x40, 0x01), 0x01)\n        /* \"#utility.yul\":2191:2222   */\n      swap1\n      swap7\n      and\n        /* \"#utility.yul\":2186:2188   */\n      0x20\n        /* \"#utility.yul\":2171:2189   */\n      dup9\n      add\n        /* \"#utility.yul\":2164:2223   */\n      mstore\n        /* \"#utility.yul\":2239:2257   */\n      swap5\n      dup7\n      add\n        /* \"#utility.yul\":2232:2266   */\n      swap4\n      swap1\n      swap4\n      mstore\n        /* \"#utility.yul\":2309:2323   */\n      swap1\n      iszero\n        /* \"#utility.yul\":2302:2324   */\n      iszero\n        /* \"#utility.yul\":2297:2299   */\n      0x60\n        /* \"#utility.yul\":2282:2300   */\n      dup6\n      add\n        /* \"#utility.yul\":2275:2325   */\n      mstore\n        /* \"#utility.yul\":2374:2384   */\n      0xffffffff\n        /* \"#utility.yul\":2362:2385   */\n      swap1\n      dup2\n      and\n        /* \"#utility.yul\":2356:2359   */\n      0x80\n        /* \"#utility.yul\":2341:2360   */\n      dup6\n      add\n        /* \"#utility.yul\":2334:2386   */\n      mstore\n        /* \"#utility.yul\":2423:2446   */\n      swap1\n      dup2\n      and\n        /* \"#utility.yul\":2417:2420   */\n      0xa0\n        /* \"#utility.yul\":2402:2421   */\n      dup5\n      add\n        /* \"#utility.yul\":2395:2447   */\n      mstore\n        /* \"#utility.yul\":2484:2507   */\n      and\n        /* \"#utility.yul\":2478:2481   */\n      0xc0\n        /* \"#utility.yul\":2463:2482   */\n      dup3\n      add\n        /* \"#utility.yul\":2456:2508   */\n      mstore\n        /* \"#utility.yul\":2068:2071   */\n      0xe0\n        /* \"#utility.yul\":2053:2072   */\n      add\n        /* \"ComputeMarketplace.sol\":1541:1586  mapping(uint256 => Resource) public resources */\n      tag_28\n        /* \"#utility.yul\":1780:2514   */\n      jump\n        /* \"ComputeMarketplace.sol\":2084:2457  function createTask(string calldata description, uint32 duration, uint256 paymentAmount, string calldata taskType) external {... */\n    tag_6:\n      tag_22\n      tag_37\n      calldatasize\n      0x04\n      tag_38\n      jump\t// in\n    tag_37:\n      tag_39\n      jump\t// in\n        /* \"ComputeMarketplace.sol\":432:458  IERC20 public paymentToken */\n    tag_7:\n      sload(0x02)\n      tag_40\n      swap1\n      sub(shl(0xa0, 0x01), 0x01)\n      and\n      dup2\n      jump\n    tag_40:\n      mload(0x40)\n      sub(shl(0xa0, 0x01), 0x01)\n        /* \"#utility.yul\":4126:4181   */\n      swap1\n      swap2\n      and\n        /* \"#utility.yul\":4108:4182   */\n      dup2\n      mstore\n        /* \"#utility.yul\":4096:4098   */\n      0x20\n        /* \"#utility.yul\":4081:4099   */\n      add\n        /* \"ComputeMarketplace.sol\":432:458  IERC20 public paymentToken */\n      tag_28\n        /* \"#utility.yul\":3948:4188   */\n      jump\n        /* \"ComputeMarketplace.sol\":2958:3450  function placeBid(uint256 taskId, uint256 resourceId, uint256 bidPrice) external {... */\n    tag_8:\n      tag_22\n      tag_45\n      calldatasize\n      0x04\n      tag_46\n      jump\t// in\n    tag_45:\n      tag_47\n      jump\t// in\n        /* \"@openzeppelin/contracts/access/Ownable.sol\":2293:2394  function renounceOwnership() public virtual onlyOwner {... */\n    tag_9:\n      tag_22\n      tag_49\n      jump\t// in\n        /* \"ComputeMarketplace.sol\":3458:3840  function finalizeTask(uint256 taskId) external {... */\n    tag_10:\n      tag_22\n      tag_51\n      calldatasize\n      0x04\n      tag_32\n      jump\t// in\n    tag_51:\n      tag_52\n      jump\t// in\n        /* \"ComputeMarketplace.sol\":1497:1534  mapping(uint256 => Task) public tasks */\n    tag_11:\n      tag_53\n      tag_54\n      calldatasize\n      0x04\n      tag_32\n      jump\t// in\n    tag_54:\n      tag_55\n      jump\t// in\n    tag_53:\n      mload(0x40)\n      tag_28\n      swap14\n      swap13\n      swap12\n      swap11\n      swap10\n      swap9\n      swap8\n      swap7\n      swap6\n      swap5\n      swap4\n      swap3\n      swap2\n      swap1\n      tag_57\n      jump\t// in\n        /* \"@openzeppelin/contracts/access/Ownable.sol\":1638:1723  function owner() public view virtual returns (address) {... */\n    tag_12:\n        /* \"@openzeppelin/contracts/access/Ownable.sol\":1684:1691  address */\n      0x00\n        /* \"@openzeppelin/contracts/access/Ownable.sol\":1710:1716  _owner */\n      sload\n      sub(shl(0xa0, 0x01), 0x01)\n      and\n        /* \"@openzeppelin/contracts/access/Ownable.sol\":1638:1723  function owner() public view virtual returns (address) {... */\n      jump(tag_40)\n        /* \"ComputeMarketplace.sol\":3848:4364  function rateResource(uint256 taskId, uint32 rating) external {... */\n    tag_13:\n      tag_22\n      tag_63\n      calldatasize\n      0x04\n      tag_64\n      jump\t// in\n    tag_63:\n      tag_65\n      jump\t// in\n        /* \"ComputeMarketplace.sol\":604:652  uint256 public constant BIDDING_PERIOD = 1 hours */\n    tag_14:\n      tag_26\n        /* \"ComputeMarketplace.sol\":645:652  1 hours */\n      0x0e10\n        /* \"ComputeMarketplace.sol\":604:652  uint256 public constant BIDDING_PERIOD = 1 hours */\n      dup2\n      jump\n        /* \"ComputeMarketplace.sol\":465:489  uint256 public taskCount */\n    tag_15:\n      tag_26\n      sload(0x03)\n      dup2\n      jump\n        /* \"ComputeMarketplace.sol\":551:597  uint256 public constant REPUTATION_FACTOR = 10 */\n    tag_16:\n      tag_26\n        /* \"ComputeMarketplace.sol\":595:597  10 */\n      0x0a\n        /* \"ComputeMarketplace.sol\":551:597  uint256 public constant REPUTATION_FACTOR = 10 */\n      dup2\n      jump\n        /* \"ComputeMarketplace.sol\":659:708  uint256 public constant SPECIALIZATION_BONUS = 50 */\n    tag_17:\n      tag_26\n        /* \"ComputeMarketplace.sol\":706:708  50 */\n      0x32\n        /* \"ComputeMarketplace.sol\":659:708  uint256 public constant SPECIALIZATION_BONUS = 50 */\n      dup2\n      jump\n        /* \"@openzeppelin/contracts/access/Ownable.sol\":2543:2758  function transferOwnership(address newOwner) public virtual onlyOwner {... */\n    tag_18:\n      tag_22\n      tag_79\n      calldatasize\n      0x04\n      tag_80\n      jump\t// in\n    tag_79:\n      tag_81\n      jump\t// in\n        /* \"ComputeMarketplace.sol\":2465:2950  function registerResource(uint64 computePower, uint256 basePrice, string[] calldata specializations) external {... */\n    tag_25:\n        /* \"ComputeMarketplace.sol\":2586:2599  resourceCount */\n      0x04\n        /* \"ComputeMarketplace.sol\":2586:2601  resourceCount++ */\n      dup1\n      sload\n      swap1\n        /* \"ComputeMarketplace.sol\":2586:2599  resourceCount */\n      0x00\n        /* \"ComputeMarketplace.sol\":2586:2601  resourceCount++ */\n      tag_83\n      dup4\n      tag_84\n      jump\t// in\n    tag_83:\n      swap1\n      swap2\n      sstore\n      pop\n      pop\n        /* \"ComputeMarketplace.sol\":2639:2942  Resource({... */\n      0x40\n      dup1\n      mload\n      0x0100\n      dup2\n      add\n      dup3\n      mstore\n        /* \"ComputeMarketplace.sol\":2670:2680  msg.sender */\n      caller\n        /* \"ComputeMarketplace.sol\":2639:2942  Resource({... */\n      dup2\n      mstore\n      sub(shl(0x40, 0x01), 0x01)\n      dup7\n      and\n      0x20\n      dup3\n      add\n      mstore\n      swap1\n      dup2\n      add\n      dup5\n      swap1\n      mstore\n        /* \"ComputeMarketplace.sol\":2784:2788  true */\n      0x01\n        /* \"ComputeMarketplace.sol\":2639:2942  Resource({... */\n      0x60\n      dup3\n      add\n      mstore\n      0x00\n      0x80\n      dup3\n      add\n      mstore\n      0xa0\n      dup2\n      add\n      tag_85\n        /* \"ComputeMarketplace.sol\":2848:2863  specializations */\n      dup4\n      dup6\n        /* \"ComputeMarketplace.sol\":2639:2942  Resource({... */\n      tag_86\n      jump\t// in\n    tag_85:\n      dup2\n      mstore\n        /* \"ComputeMarketplace.sol\":2896:2897  0 */\n      0x00\n        /* \"ComputeMarketplace.sol\":2639:2942  Resource({... */\n      0x20\n      dup1\n      dup4\n      add\n      dup3\n      swap1\n      mstore\n      0x40\n      swap3\n      dup4\n      add\n      dup3\n      swap1\n      mstore\n        /* \"ComputeMarketplace.sol\":2622:2635  resourceCount */\n      sload(0x04)\n        /* \"ComputeMarketplace.sol\":2612:2636  resources[resourceCount] */\n      dup3\n      mstore\n        /* \"ComputeMarketplace.sol\":2612:2621  resources */\n      0x06\n        /* \"ComputeMarketplace.sol\":2612:2636  resources[resourceCount] */\n      dup2\n      mstore\n      swap1\n      dup3\n      swap1\n      keccak256\n        /* \"ComputeMarketplace.sol\":2612:2942  resources[resourceCount] = Resource({... */\n      dup4\n      mload\n      dup2\n      sload\n      dup6\n      dup5\n      add\n      mload\n      sub(shl(0x40, 0x01), 0x01)\n      and\n      shl(0xa0, 0x01)\n      mul\n      not(sub(shl(0xe0, 0x01), 0x01))\n      swap1\n      swap2\n      and\n      sub(shl(0xa0, 0x01), 0x01)\n      swap1\n      swap3\n      and\n      swap2\n      swap1\n      swap2\n      or\n      or\n      dup2\n      sstore\n      swap2\n      dup4\n      add\n      mload\n      0x01\n      dup4\n      add\n      sstore\n      0x60\n      dup4\n      add\n      mload\n      0x02\n      dup4\n      add\n      dup1\n      sload\n      0x80\n      dup7\n      add\n      mload\n        /* \"ComputeMarketplace.sol\":2639:2942  Resource({... */\n      0xffffffff\n        /* \"ComputeMarketplace.sol\":2612:2942  resources[resourceCount] = Resource({... */\n      and\n      0x0100\n      mul\n      not(0xffffffff00)\n      swap4\n      iszero\n      iszero\n      swap4\n      swap1\n      swap4\n      and\n      not(0xffffffffff)\n      swap1\n      swap2\n      and\n      or\n      swap2\n      swap1\n      swap2\n      or\n      swap1\n      sstore\n      0xa0\n      dup4\n      add\n      mload\n      dup1\n      mload\n      tag_87\n      swap3\n      0x03\n      dup6\n      add\n      swap3\n      add\n      swap1\n      tag_88\n      jump\t// in\n    tag_87:\n      pop\n      0xc0\n      dup3\n      add\n      mload\n      0x04\n      swap1\n      swap2\n      add\n      dup1\n      sload\n      0xe0\n      swap1\n      swap4\n      add\n      mload\n      0xffffffff\n      swap1\n      dup2\n      and\n      0x0100000000\n      mul\n      not(0xffffffffffffffff)\n      swap1\n      swap5\n      and\n      swap3\n      and\n      swap2\n      swap1\n      swap2\n      or\n      swap2\n      swap1\n      swap2\n      or\n      swap1\n      sstore\n      pop\n      pop\n      pop\n      pop\n        /* \"ComputeMarketplace.sol\":2465:2950  function registerResource(uint64 computePower, uint256 basePrice, string[] calldata specializations) external {... */\n      jump\t// out\n        /* \"ComputeMarketplace.sol\":2084:2457  function createTask(string calldata description, uint32 duration, uint256 paymentAmount, string calldata taskType) external {... */\n    tag_39:\n        /* \"ComputeMarketplace.sol\":2243:2244  0 */\n      0x00\n        /* \"ComputeMarketplace.sol\":2227:2240  paymentAmount */\n      dup4\n        /* \"ComputeMarketplace.sol\":2227:2244  paymentAmount > 0 */\n      gt\n        /* \"ComputeMarketplace.sol\":2219:2289  require(paymentAmount > 0, \"Payment amount must be greater than zero\") */\n      tag_90\n      jumpi\n      mload(0x40)\n      shl(0xe5, 0x461bcd)\n      dup2\n      mstore\n        /* \"#utility.yul\":9827:9829   */\n      0x20\n        /* \"ComputeMarketplace.sol\":2219:2289  require(paymentAmount > 0, \"Payment amount must be greater than zero\") */\n      0x04\n      dup3\n      add\n        /* \"#utility.yul\":9809:9830   */\n      mstore\n        /* \"#utility.yul\":9866:9868   */\n      0x28\n        /* \"#utility.yul\":9846:9864   */\n      0x24\n      dup3\n      add\n        /* \"#utility.yul\":9839:9869   */\n      mstore\n        /* \"#utility.yul\":9905:9939   */\n      0x5061796d656e7420616d6f756e74206d75737420626520677265617465722074\n        /* \"#utility.yul\":9885:9903   */\n      0x44\n      dup3\n      add\n        /* \"#utility.yul\":9878:9940   */\n      mstore\n      shl(0xc0, 0x68616e207a65726f)\n        /* \"#utility.yul\":9956:9974   */\n      0x64\n      dup3\n      add\n        /* \"#utility.yul\":9949:9987   */\n      mstore\n        /* \"#utility.yul\":10004:10023   */\n      0x84\n      add\n        /* \"ComputeMarketplace.sol\":2219:2289  require(paymentAmount > 0, \"Payment amount must be greater than zero\") */\n    tag_91:\n      mload(0x40)\n      dup1\n      swap2\n      sub\n      swap1\n      revert\n    tag_90:\n        /* \"ComputeMarketplace.sol\":2300:2309  taskCount */\n      0x03\n        /* \"ComputeMarketplace.sol\":2300:2311  taskCount++ */\n      dup1\n      sload\n      swap1\n        /* \"ComputeMarketplace.sol\":2300:2309  taskCount */\n      0x00\n        /* \"ComputeMarketplace.sol\":2300:2311  taskCount++ */\n      tag_93\n      dup4\n      tag_84\n      jump\t// in\n    tag_93:\n      swap2\n      swap1\n      pop\n      sstore\n      pop\n        /* \"ComputeMarketplace.sol\":2322:2384  _createNewTask(description, duration, paymentAmount, taskType) */\n      tag_94\n        /* \"ComputeMarketplace.sol\":2337:2348  description */\n      dup7\n      dup7\n        /* \"ComputeMarketplace.sol\":2350:2358  duration */\n      dup7\n        /* \"ComputeMarketplace.sol\":2360:2373  paymentAmount */\n      dup7\n        /* \"ComputeMarketplace.sol\":2375:2383  taskType */\n      dup7\n      dup7\n        /* \"ComputeMarketplace.sol\":2322:2336  _createNewTask */\n      tag_95\n        /* \"ComputeMarketplace.sol\":2322:2384  _createNewTask(description, duration, paymentAmount, taskType) */\n      jump\t// in\n    tag_94:\n        /* \"ComputeMarketplace.sol\":2412:2421  taskCount */\n      sload(0x03)\n        /* \"ComputeMarketplace.sol\":2400:2449  TaskCreated(taskCount, msg.sender, paymentAmount) */\n      0x40\n      dup1\n      mload\n        /* \"#utility.yul\":10236:10261   */\n      swap2\n      dup3\n      mstore\n        /* \"ComputeMarketplace.sol\":2423:2433  msg.sender */\n      caller\n        /* \"#utility.yul\":10292:10294   */\n      0x20\n        /* \"#utility.yul\":10277:10295   */\n      dup4\n      add\n        /* \"#utility.yul\":10270:10353   */\n      mstore\n        /* \"#utility.yul\":10369:10387   */\n      dup2\n      add\n        /* \"#utility.yul\":10362:10396   */\n      dup5\n      swap1\n      mstore\n        /* \"ComputeMarketplace.sol\":2400:2449  TaskCreated(taskCount, msg.sender, paymentAmount) */\n      0x6cf53aa7292e664152c2ea948c3b3c95d4b05c36daeb2626d0293473c4a4a153\n      swap1\n        /* \"#utility.yul\":10224:10226   */\n      0x60\n        /* \"#utility.yul\":10209:10227   */\n      add\n        /* \"ComputeMarketplace.sol\":2400:2449  TaskCreated(taskCount, msg.sender, paymentAmount) */\n    tag_96:\n      mload(0x40)\n      dup1\n      swap2\n      sub\n      swap1\n      log1\n        /* \"ComputeMarketplace.sol\":2084:2457  function createTask(string calldata description, uint32 duration, uint256 paymentAmount, string calldata taskType) external {... */\n      pop\n      pop\n      pop\n      pop\n      pop\n      pop\n      jump\t// out\n        /* \"ComputeMarketplace.sol\":2958:3450  function placeBid(uint256 taskId, uint256 resourceId, uint256 bidPrice) external {... */\n    tag_47:\n        /* \"ComputeMarketplace.sol\":3050:3067  Task storage task */\n      0x00\n        /* \"ComputeMarketplace.sol\":3070:3083  tasks[taskId] */\n      dup4\n      dup2\n      mstore\n        /* \"ComputeMarketplace.sol\":3070:3075  tasks */\n      0x05\n        /* \"ComputeMarketplace.sol\":3070:3083  tasks[taskId] */\n      0x20\n      swap1\n      dup2\n      mstore\n      0x40\n      dup1\n      dup4\n      keccak256\n        /* \"ComputeMarketplace.sol\":3122:3143  resources[resourceId] */\n      dup6\n      dup5\n      mstore\n        /* \"ComputeMarketplace.sol\":3122:3131  resources */\n      0x06\n        /* \"ComputeMarketplace.sol\":3122:3143  resources[resourceId] */\n      swap1\n      swap3\n      mstore\n      swap1\n      swap2\n      keccak256\n        /* \"ComputeMarketplace.sol\":3162:3182  resource.isAvailable */\n      0x02\n      dup2\n      add\n      sload\n      0xff\n      and\n        /* \"ComputeMarketplace.sol\":3154:3209  require(resource.isAvailable, \"Resource not available\") */\n      tag_99\n      jumpi\n      mload(0x40)\n      shl(0xe5, 0x461bcd)\n      dup2\n      mstore\n        /* \"#utility.yul\":10609:10611   */\n      0x20\n        /* \"ComputeMarketplace.sol\":3154:3209  require(resource.isAvailable, \"Resource not available\") */\n      0x04\n      dup3\n      add\n        /* \"#utility.yul\":10591:10612   */\n      mstore\n        /* \"#utility.yul\":10648:10650   */\n      0x16\n        /* \"#utility.yul\":10628:10646   */\n      0x24\n      dup3\n      add\n        /* \"#utility.yul\":10621:10651   */\n      mstore\n        /* \"#utility.yul\":10687:10711   */\n      0x5265736f75726365206e6f7420617661696c61626c6500000000000000000000\n        /* \"#utility.yul\":10667:10685   */\n      0x44\n      dup3\n      add\n        /* \"#utility.yul\":10660:10712   */\n      mstore\n        /* \"#utility.yul\":10729:10747   */\n      0x64\n      add\n        /* \"ComputeMarketplace.sol\":3154:3209  require(resource.isAvailable, \"Resource not available\") */\n      tag_91\n        /* \"#utility.yul\":10407:10753   */\n      jump\n        /* \"ComputeMarketplace.sol\":3154:3209  require(resource.isAvailable, \"Resource not available\") */\n    tag_99:\n        /* \"ComputeMarketplace.sol\":3230:3254  uint256 adjustedBidPrice */\n      0x00\n        /* \"ComputeMarketplace.sol\":3257:3309  _calculateAdjustedBidPrice(task, resource, bidPrice) */\n      tag_102\n        /* \"ComputeMarketplace.sol\":3284:3288  task */\n      dup4\n        /* \"ComputeMarketplace.sol\":3290:3298  resource */\n      dup4\n        /* \"ComputeMarketplace.sol\":3300:3308  bidPrice */\n      dup7\n        /* \"ComputeMarketplace.sol\":3257:3283  _calculateAdjustedBidPrice */\n      tag_103\n        /* \"ComputeMarketplace.sol\":3257:3309  _calculateAdjustedBidPrice(task, resource, bidPrice) */\n      jump\t// in\n    tag_102:\n        /* \"ComputeMarketplace.sol\":3230:3309  uint256 adjustedBidPrice = _calculateAdjustedBidPrice(task, resource, bidPrice) */\n      swap1\n      pop\n        /* \"ComputeMarketplace.sol\":3320:3377  _updateTaskAllocation(task, resourceId, adjustedBidPrice) */\n      tag_104\n        /* \"ComputeMarketplace.sol\":3342:3346  task */\n      dup4\n        /* \"ComputeMarketplace.sol\":3348:3358  resourceId */\n      dup7\n        /* \"ComputeMarketplace.sol\":3360:3376  adjustedBidPrice */\n      dup4\n        /* \"ComputeMarketplace.sol\":3320:3341  _updateTaskAllocation */\n      tag_105\n        /* \"ComputeMarketplace.sol\":3320:3377  _updateTaskAllocation(task, resourceId, adjustedBidPrice) */\n      jump\t// in\n    tag_104:\n        /* \"ComputeMarketplace.sol\":3403:3442  BidPlaced(taskId, resourceId, bidPrice) */\n      0x40\n      dup1\n      mload\n        /* \"#utility.yul\":10960:10985   */\n      dup8\n      dup2\n      mstore\n        /* \"#utility.yul\":11016:11018   */\n      0x20\n        /* \"#utility.yul\":11001:11019   */\n      dup2\n      add\n        /* \"#utility.yul\":10994:11028   */\n      dup8\n      swap1\n      mstore\n        /* \"#utility.yul\":11044:11062   */\n      swap1\n      dup2\n      add\n        /* \"#utility.yul\":11037:11071   */\n      dup6\n      swap1\n      mstore\n        /* \"ComputeMarketplace.sol\":3403:3442  BidPlaced(taskId, resourceId, bidPrice) */\n      0x6e071b3ecca1348e93201ab40ec33e13c163fc1ac7969101e82a6f3e413381c5\n      swap1\n        /* \"#utility.yul\":10948:10950   */\n      0x60\n        /* \"#utility.yul\":10933:10951   */\n      add\n        /* \"ComputeMarketplace.sol\":3403:3442  BidPlaced(taskId, resourceId, bidPrice) */\n      tag_96\n        /* \"#utility.yul\":10758:11077   */\n      jump\n        /* \"@openzeppelin/contracts/access/Ownable.sol\":2293:2394  function renounceOwnership() public virtual onlyOwner {... */\n    tag_49:\n        /* \"@openzeppelin/contracts/access/Ownable.sol\":1531:1544  _checkOwner() */\n      tag_109\n        /* \"@openzeppelin/contracts/access/Ownable.sol\":1531:1542  _checkOwner */\n      tag_110\n        /* \"@openzeppelin/contracts/access/Ownable.sol\":1531:1544  _checkOwner() */\n      jump\t// in\n    tag_109:\n        /* \"@openzeppelin/contracts/access/Ownable.sol\":2357:2387  _transferOwnership(address(0)) */\n      tag_112\n        /* \"@openzeppelin/contracts/access/Ownable.sol\":2384:2385  0 */\n      0x00\n        /* \"@openzeppelin/contracts/access/Ownable.sol\":2357:2375  _transferOwnership */\n      tag_113\n        /* \"@openzeppelin/contracts/access/Ownable.sol\":2357:2387  _transferOwnership(address(0)) */\n      jump\t// in\n    tag_112:\n        /* \"@openzeppelin/contracts/access/Ownable.sol\":2293:2394  function renounceOwnership() public virtual onlyOwner {... */\n      jump\t// out\n        /* \"ComputeMarketplace.sol\":3458:3840  function finalizeTask(uint256 taskId) external {... */\n    tag_52:\n        /* \"ComputeMarketplace.sol\":3516:3533  Task storage task */\n      0x00\n        /* \"ComputeMarketplace.sol\":3536:3549  tasks[taskId] */\n      dup2\n      dup2\n      mstore\n        /* \"ComputeMarketplace.sol\":3536:3541  tasks */\n      0x05\n        /* \"ComputeMarketplace.sol\":3536:3549  tasks[taskId] */\n      0x20\n      mstore\n      0x40\n      swap1\n      keccak256\n        /* \"ComputeMarketplace.sol\":3569:3585  task.isAllocated */\n      0x09\n      dup2\n      add\n      sload\n      0xff\n      and\n        /* \"ComputeMarketplace.sol\":3568:3585  !task.isAllocated */\n      iszero\n        /* \"ComputeMarketplace.sol\":3560:3612  require(!task.isAllocated, \"Task already allocated\") */\n      tag_115\n      jumpi\n      mload(0x40)\n      shl(0xe5, 0x461bcd)\n      dup2\n      mstore\n        /* \"#utility.yul\":11284:11286   */\n      0x20\n        /* \"ComputeMarketplace.sol\":3560:3612  require(!task.isAllocated, \"Task already allocated\") */\n      0x04\n      dup3\n      add\n        /* \"#utility.yul\":11266:11287   */\n      mstore\n        /* \"#utility.yul\":11323:11325   */\n      0x16\n        /* \"#utility.yul\":11303:11321   */\n      0x24\n      dup3\n      add\n        /* \"#utility.yul\":11296:11326   */\n      mstore\n        /* \"#utility.yul\":11362:11386   */\n      0x5461736b20616c726561647920616c6c6f636174656400000000000000000000\n        /* \"#utility.yul\":11342:11360   */\n      0x44\n      dup3\n      add\n        /* \"#utility.yul\":11335:11387   */\n      mstore\n        /* \"#utility.yul\":11404:11422   */\n      0x64\n      add\n        /* \"ComputeMarketplace.sol\":3560:3612  require(!task.isAllocated, \"Task already allocated\") */\n      tag_91\n        /* \"#utility.yul\":11082:11428   */\n      jump\n        /* \"ComputeMarketplace.sol\":3560:3612  require(!task.isAllocated, \"Task already allocated\") */\n    tag_115:\n        /* \"ComputeMarketplace.sol\":3625:3641  task.isAllocated */\n      0x09\n      dup2\n      add\n        /* \"ComputeMarketplace.sol\":3625:3648  task.isAllocated = true */\n      dup1\n      sload\n      not(0xff)\n      swap1\n      dup2\n      and\n        /* \"ComputeMarketplace.sol\":3644:3648  true */\n      0x01\n        /* \"ComputeMarketplace.sol\":3625:3648  task.isAllocated = true */\n      or\n      swap1\n      swap2\n      sstore\n        /* \"ComputeMarketplace.sol\":3687:3696  resources */\n      0x06\n        /* \"ComputeMarketplace.sol\":3697:3721  task.allocatedResourceId */\n      dup1\n      dup4\n      add\n      sload\n      sub(shl(0x40, 0x01), 0x01)\n      and\n      0x00\n        /* \"ComputeMarketplace.sol\":3687:3722  resources[task.allocatedResourceId] */\n      swap1\n      dup2\n      mstore\n      0x20\n      swap2\n      dup3\n      mstore\n      0x40\n      swap1\n      dup2\n      swap1\n      keccak256\n        /* \"ComputeMarketplace.sol\":3733:3753  resource.isAvailable */\n      0x02\n      dup2\n      add\n        /* \"ComputeMarketplace.sol\":3733:3761  resource.isAvailable = false */\n      dup1\n      sload\n      swap1\n      swap5\n      and\n      swap1\n      swap4\n      sstore\n        /* \"ComputeMarketplace.sol\":3800:3814  resource.owner */\n      dup3\n      sload\n      0x07\n        /* \"ComputeMarketplace.sol\":3816:3831  task.finalPrice */\n      dup6\n      add\n      sload\n        /* \"ComputeMarketplace.sol\":3779:3832  TaskAssigned(taskId, resource.owner, task.finalPrice) */\n      dup3\n      mload\n        /* \"#utility.yul\":10236:10261   */\n      dup8\n      dup2\n      mstore\n      sub(shl(0xa0, 0x01), 0x01)\n        /* \"ComputeMarketplace.sol\":3800:3814  resource.owner */\n      swap1\n      swap3\n      and\n        /* \"#utility.yul\":10277:10295   */\n      swap4\n      dup3\n      add\n        /* \"#utility.yul\":10270:10353   */\n      swap4\n      swap1\n      swap4\n      mstore\n        /* \"#utility.yul\":10369:10387   */\n      dup1\n      dup3\n      add\n        /* \"#utility.yul\":10362:10396   */\n      swap3\n      swap1\n      swap3\n      mstore\n        /* \"ComputeMarketplace.sol\":3779:3832  TaskAssigned(taskId, resource.owner, task.finalPrice) */\n      mload\n      0xfdbec991c520c476b24bb9ee9123ea146594b230b424c8140b23c33ac5906242\n      swap2\n      dup2\n      swap1\n      sub\n        /* \"#utility.yul\":10224:10226   */\n      0x60\n        /* \"ComputeMarketplace.sol\":3779:3832  TaskAssigned(taskId, resource.owner, task.finalPrice) */\n      add\n      swap1\n      log1\n        /* \"ComputeMarketplace.sol\":3505:3840  {... */\n      pop\n      pop\n        /* \"ComputeMarketplace.sol\":3458:3840  function finalizeTask(uint256 taskId) external {... */\n      pop\n      jump\t// out\n        /* \"ComputeMarketplace.sol\":1497:1534  mapping(uint256 => Task) public tasks */\n    tag_55:\n      mstore(0x20, 0x05)\n      0x00\n      swap1\n      dup2\n      mstore\n      0x40\n      swap1\n      keccak256\n      dup1\n      sload\n      0x01\n      dup3\n      add\n      dup1\n      sload\n      sub(shl(0x40, 0x01), 0x01)\n      dup4\n      and\n      swap4\n      shl(0x40, 0x01)\n      swap1\n      swap4\n      div\n      sub(shl(0xa0, 0x01), 0x01)\n      and\n      swap3\n      swap2\n      swap1\n      tag_119\n      swap1\n      tag_120\n      jump\t// in\n    tag_119:\n      dup1\n      0x1f\n      add\n      0x20\n      dup1\n      swap2\n      div\n      mul\n      0x20\n      add\n      mload(0x40)\n      swap1\n      dup2\n      add\n      0x40\n      mstore\n      dup1\n      swap3\n      swap2\n      swap1\n      dup2\n      dup2\n      mstore\n      0x20\n      add\n      dup3\n      dup1\n      sload\n      tag_121\n      swap1\n      tag_120\n      jump\t// in\n    tag_121:\n      dup1\n      iszero\n      tag_122\n      jumpi\n      dup1\n      0x1f\n      lt\n      tag_123\n      jumpi\n      0x0100\n      dup1\n      dup4\n      sload\n      div\n      mul\n      dup4\n      mstore\n      swap2\n      0x20\n      add\n      swap2\n      jump(tag_122)\n    tag_123:\n      dup3\n      add\n      swap2\n      swap1\n      0x00\n      mstore\n      keccak256(0x00, 0x20)\n      swap1\n    tag_124:\n      dup2\n      sload\n      dup2\n      mstore\n      swap1\n      0x01\n      add\n      swap1\n      0x20\n      add\n      dup1\n      dup4\n      gt\n      tag_124\n      jumpi\n      dup3\n      swap1\n      sub\n      0x1f\n      and\n      dup3\n      add\n      swap2\n    tag_122:\n      pop\n      pop\n      pop\n      0x02\n      dup5\n      add\n      sload\n      0x03\n      dup6\n      add\n      sload\n      0x04\n      dup7\n      add\n      sload\n      0x05\n      dup8\n      add\n      dup1\n      sload\n      swap7\n      swap8\n      0xffffffff\n      swap5\n      dup6\n      and\n      swap8\n      swap4\n      swap7\n      pop\n      0xff\n      dup4\n      and\n      swap6\n      pop\n      sub(shl(0xa0, 0x01), 0x01)\n      0x0100\n      dup5\n      div\n      and\n      swap5\n      shl(0xa8, 0x01)\n      swap1\n      swap4\n      div\n      swap1\n      swap3\n      and\n      swap3\n      tag_125\n      swap1\n      tag_120\n      jump\t// in\n    tag_125:\n      dup1\n      0x1f\n      add\n      0x20\n      dup1\n      swap2\n      div\n      mul\n      0x20\n      add\n      mload(0x40)\n      swap1\n      dup2\n      add\n      0x40\n      mstore\n      dup1\n      swap3\n      swap2\n      swap1\n      dup2\n      dup2\n      mstore\n      0x20\n      add\n      dup3\n      dup1\n      sload\n      tag_126\n      swap1\n      tag_120\n      jump\t// in\n    tag_126:\n      dup1\n      iszero\n      tag_127\n      jumpi\n      dup1\n      0x1f\n      lt\n      tag_128\n      jumpi\n      0x0100\n      dup1\n      dup4\n      sload\n      div\n      mul\n      dup4\n      mstore\n      swap2\n      0x20\n      add\n      swap2\n      jump(tag_127)\n    tag_128:\n      dup3\n      add\n      swap2\n      swap1\n      0x00\n      mstore\n      keccak256(0x00, 0x20)\n      swap1\n    tag_129:\n      dup2\n      sload\n      dup2\n      mstore\n      swap1\n      0x01\n      add\n      swap1\n      0x20\n      add\n      dup1\n      dup4\n      gt\n      tag_129\n      jumpi\n      dup3\n      swap1\n      sub\n      0x1f\n      and\n      dup3\n      add\n      swap2\n    tag_127:\n      pop\n      pop\n      pop\n      pop\n      0x06\n      dup4\n      add\n      sload\n      0x07\n      dup5\n      add\n      sload\n      0x08\n      dup6\n      add\n      dup1\n      sload\n      swap5\n      swap6\n      sub(shl(0x40, 0x01), 0x01)\n      swap1\n      swap4\n      and\n      swap5\n      swap2\n      swap4\n      pop\n      swap1\n      tag_130\n      swap1\n      tag_120\n      jump\t// in\n    tag_130:\n      dup1\n      0x1f\n      add\n      0x20\n      dup1\n      swap2\n      div\n      mul\n      0x20\n      add\n      mload(0x40)\n      swap1\n      dup2\n      add\n      0x40\n      mstore\n      dup1\n      swap3\n      swap2\n      swap1\n      dup2\n      dup2\n      mstore\n      0x20\n      add\n      dup3\n      dup1\n      sload\n      tag_131\n      swap1\n      tag_120\n      jump\t// in\n    tag_131:\n      dup1\n      iszero\n      tag_132\n      jumpi\n      dup1\n      0x1f\n      lt\n      tag_133\n      jumpi\n      0x0100\n      dup1\n      dup4\n      sload\n      div\n      mul\n      dup4\n      mstore\n      swap2\n      0x20\n      add\n      swap2\n      jump(tag_132)\n    tag_133:\n      dup3\n      add\n      swap2\n      swap1\n      0x00\n      mstore\n      keccak256(0x00, 0x20)\n      swap1\n    tag_134:\n      dup2\n      sload\n      dup2\n      mstore\n      swap1\n      0x01\n      add\n      swap1\n      0x20\n      add\n      dup1\n      dup4\n      gt\n      tag_134\n      jumpi\n      dup3\n      swap1\n      sub\n      0x1f\n      and\n      dup3\n      add\n      swap2\n    tag_132:\n      pop\n      pop\n      pop\n      0x09\n      swap1\n      swap4\n      add\n      sload\n      swap2\n      swap3\n      pop\n      pop\n      0xff\n      and\n      dup14\n      jump\t// out\n        /* \"ComputeMarketplace.sol\":3848:4364  function rateResource(uint256 taskId, uint32 rating) external {... */\n    tag_65:\n        /* \"ComputeMarketplace.sol\":3921:3938  Task storage task */\n      0x00\n        /* \"ComputeMarketplace.sol\":3941:3954  tasks[taskId] */\n      dup3\n      dup2\n      mstore\n        /* \"ComputeMarketplace.sol\":3941:3946  tasks */\n      0x05\n        /* \"ComputeMarketplace.sol\":3941:3954  tasks[taskId] */\n      0x20\n      swap1\n      dup2\n      mstore\n      0x40\n      dup1\n      dup4\n      keccak256\n        /* \"ComputeMarketplace.sol\":3993:4002  resources */\n      0x06\n        /* \"ComputeMarketplace.sol\":4003:4027  task.allocatedResourceId */\n      dup1\n      dup3\n      add\n      sload\n      sub(shl(0x40, 0x01), 0x01)\n      and\n        /* \"ComputeMarketplace.sol\":3993:4028  resources[task.allocatedResourceId] */\n      dup6\n      mstore\n      swap1\n      swap3\n      mstore\n      swap1\n      swap2\n      keccak256\n        /* \"ComputeMarketplace.sol\":4049:4065  task.isAllocated */\n      0x09\n      dup3\n      add\n      sload\n      0xff\n      and\n        /* \"ComputeMarketplace.sol\":4041:4088  require(task.isAllocated, \"Task not allocated\") */\n      tag_137\n      jumpi\n      mload(0x40)\n      shl(0xe5, 0x461bcd)\n      dup2\n      mstore\n        /* \"#utility.yul\":12020:12022   */\n      0x20\n        /* \"ComputeMarketplace.sol\":4041:4088  require(task.isAllocated, \"Task not allocated\") */\n      0x04\n      dup3\n      add\n        /* \"#utility.yul\":12002:12023   */\n      mstore\n        /* \"#utility.yul\":12059:12061   */\n      0x12\n        /* \"#utility.yul\":12039:12057   */\n      0x24\n      dup3\n      add\n        /* \"#utility.yul\":12032:12062   */\n      mstore\n      shl(0x72, 0x15185cdac81b9bdd08185b1b1bd8d85d1959)\n        /* \"#utility.yul\":12078:12096   */\n      0x44\n      dup3\n      add\n        /* \"#utility.yul\":12071:12119   */\n      mstore\n        /* \"#utility.yul\":12136:12154   */\n      0x64\n      add\n        /* \"ComputeMarketplace.sol\":4041:4088  require(task.isAllocated, \"Task not allocated\") */\n      tag_91\n        /* \"#utility.yul\":11818:12160   */\n      jump\n        /* \"ComputeMarketplace.sol\":4041:4088  require(task.isAllocated, \"Task not allocated\") */\n    tag_137:\n        /* \"ComputeMarketplace.sol\":4117:4118  1 */\n      0x01\n        /* \"ComputeMarketplace.sol\":4107:4113  rating */\n      dup4\n        /* \"ComputeMarketplace.sol\":4107:4118  rating >= 1 */\n      0xffffffff\n      and\n      lt\n      iszero\n        /* \"ComputeMarketplace.sol\":4107:4133  rating >= 1 && rating <= 5 */\n      dup1\n      iszero\n      tag_140\n      jumpi\n      pop\n        /* \"ComputeMarketplace.sol\":4132:4133  5 */\n      0x05\n        /* \"ComputeMarketplace.sol\":4122:4128  rating */\n      dup4\n        /* \"ComputeMarketplace.sol\":4122:4133  rating <= 5 */\n      0xffffffff\n      and\n      gt\n      iszero\n        /* \"ComputeMarketplace.sol\":4107:4133  rating >= 1 && rating <= 5 */\n    tag_140:\n        /* \"ComputeMarketplace.sol\":4099:4168  require(rating >= 1 && rating <= 5, \"Rating must be between 1 and 5\") */\n      tag_141\n      jumpi\n      mload(0x40)\n      shl(0xe5, 0x461bcd)\n      dup2\n      mstore\n        /* \"#utility.yul\":12367:12369   */\n      0x20\n        /* \"ComputeMarketplace.sol\":4099:4168  require(rating >= 1 && rating <= 5, \"Rating must be between 1 and 5\") */\n      0x04\n      dup3\n      add\n        /* \"#utility.yul\":12349:12370   */\n      mstore\n        /* \"#utility.yul\":12406:12408   */\n      0x1e\n        /* \"#utility.yul\":12386:12404   */\n      0x24\n      dup3\n      add\n        /* \"#utility.yul\":12379:12409   */\n      mstore\n        /* \"#utility.yul\":12445:12477   */\n      0x526174696e67206d757374206265206265747765656e203120616e6420350000\n        /* \"#utility.yul\":12425:12443   */\n      0x44\n      dup3\n      add\n        /* \"#utility.yul\":12418:12478   */\n      mstore\n        /* \"#utility.yul\":12495:12513   */\n      0x64\n      add\n        /* \"ComputeMarketplace.sol\":4099:4168  require(rating >= 1 && rating <= 5, \"Rating must be between 1 and 5\") */\n      tag_91\n        /* \"#utility.yul\":12165:12519   */\n      jump\n        /* \"ComputeMarketplace.sol\":4099:4168  require(rating >= 1 && rating <= 5, \"Rating must be between 1 and 5\") */\n    tag_141:\n        /* \"ComputeMarketplace.sol\":4181:4220  _updateResourceRating(resource, rating) */\n      tag_144\n        /* \"ComputeMarketplace.sol\":4203:4211  resource */\n      dup2\n        /* \"ComputeMarketplace.sol\":4213:4219  rating */\n      dup5\n        /* \"ComputeMarketplace.sol\":4181:4202  _updateResourceRating */\n      tag_145\n        /* \"ComputeMarketplace.sol\":4181:4220  _updateResourceRating(resource, rating) */\n      jump\t// in\n    tag_144:\n        /* \"ComputeMarketplace.sol\":4231:4274  _adjustResourceReputation(resource, rating) */\n      tag_146\n        /* \"ComputeMarketplace.sol\":4257:4265  resource */\n      dup2\n        /* \"ComputeMarketplace.sol\":4267:4273  rating */\n      dup5\n        /* \"ComputeMarketplace.sol\":4231:4256  _adjustResourceReputation */\n      tag_147\n        /* \"ComputeMarketplace.sol\":4231:4274  _adjustResourceReputation(resource, rating) */\n      jump\t// in\n    tag_146:\n        /* \"ComputeMarketplace.sol\":4310:4334  task.allocatedResourceId */\n      0x06\n      dup3\n      add\n      sload\n        /* \"ComputeMarketplace.sol\":4336:4355  resource.reputation */\n      0x02\n      dup3\n      add\n      sload\n        /* \"ComputeMarketplace.sol\":4292:4356  ReputationUpdated(task.allocatedResourceId, resource.reputation) */\n      0x40\n      dup1\n      mload\n      sub(shl(0x40, 0x01), 0x01)\n        /* \"ComputeMarketplace.sol\":4310:4334  task.allocatedResourceId */\n      swap1\n      swap4\n      and\n        /* \"#utility.yul\":12696:12746   */\n      dup4\n      mstore\n        /* \"ComputeMarketplace.sol\":4310:4334  task.allocatedResourceId */\n      0x0100\n        /* \"ComputeMarketplace.sol\":4336:4355  resource.reputation */\n      swap1\n      swap2\n      div\n      0xffffffff\n      and\n        /* \"#utility.yul\":12777:12779   */\n      0x20\n        /* \"#utility.yul\":12762:12780   */\n      dup4\n      add\n        /* \"#utility.yul\":12755:12806   */\n      mstore\n        /* \"ComputeMarketplace.sol\":4292:4356  ReputationUpdated(task.allocatedResourceId, resource.reputation) */\n      0xa4f8488cd701f9a77136eb5c91d5e2edef3c38001ca7148525acf8a2626481\n      swap2\n        /* \"#utility.yul\":12669:12687   */\n      add\n        /* \"ComputeMarketplace.sol\":4292:4356  ReputationUpdated(task.allocatedResourceId, resource.reputation) */\n      mload(0x40)\n      dup1\n      swap2\n      sub\n      swap1\n      log1\n        /* \"ComputeMarketplace.sol\":3910:4364  {... */\n      pop\n      pop\n        /* \"ComputeMarketplace.sol\":3848:4364  function rateResource(uint256 taskId, uint32 rating) external {... */\n      pop\n      pop\n      jump\t// out\n        /* \"@openzeppelin/contracts/access/Ownable.sol\":2543:2758  function transferOwnership(address newOwner) public virtual onlyOwner {... */\n    tag_81:\n        /* \"@openzeppelin/contracts/access/Ownable.sol\":1531:1544  _checkOwner() */\n      tag_151\n        /* \"@openzeppelin/contracts/access/Ownable.sol\":1531:1542  _checkOwner */\n      tag_110\n        /* \"@openzeppelin/contracts/access/Ownable.sol\":1531:1544  _checkOwner() */\n      jump\t// in\n    tag_151:\n      sub(shl(0xa0, 0x01), 0x01)\n        /* \"@openzeppelin/contracts/access/Ownable.sol\":2627:2649  newOwner == address(0) */\n      dup2\n      and\n        /* \"@openzeppelin/contracts/access/Ownable.sol\":2623:2714  if (newOwner == address(0)) {... */\n      tag_153\n      jumpi\n        /* \"@openzeppelin/contracts/access/Ownable.sol\":2672:2703  OwnableInvalidOwner(address(0)) */\n      mload(0x40)\n      shl(0xe0, 0x1e4fbdf7)\n      dup2\n      mstore\n        /* \"@openzeppelin/contracts/access/Ownable.sol\":2700:2701  0 */\n      0x00\n        /* \"@openzeppelin/contracts/access/Ownable.sol\":2672:2703  OwnableInvalidOwner(address(0)) */\n      0x04\n      dup3\n      add\n        /* \"#utility.yul\":4108:4182   */\n      mstore\n        /* \"#utility.yul\":4081:4099   */\n      0x24\n      add\n        /* \"@openzeppelin/contracts/access/Ownable.sol\":2672:2703  OwnableInvalidOwner(address(0)) */\n      tag_91\n        /* \"#utility.yul\":3948:4188   */\n      jump\n        /* \"@openzeppelin/contracts/access/Ownable.sol\":2623:2714  if (newOwner == address(0)) {... */\n    tag_153:\n        /* \"@openzeppelin/contracts/access/Ownable.sol\":2723:2751  _transferOwnership(newOwner) */\n      tag_155\n        /* \"@openzeppelin/contracts/access/Ownable.sol\":2742:2750  newOwner */\n      dup2\n        /* \"@openzeppelin/contracts/access/Ownable.sol\":2723:2741  _transferOwnership */\n      tag_113\n        /* \"@openzeppelin/contracts/access/Ownable.sol\":2723:2751  _transferOwnership(newOwner) */\n      jump\t// in\n    tag_155:\n        /* \"@openzeppelin/contracts/access/Ownable.sol\":2543:2758  function transferOwnership(address newOwner) public virtual onlyOwner {... */\n      pop\n      jump\t// out\n        /* \"ComputeMarketplace.sol\":4398:5032  function _createNewTask(string calldata description, uint32 duration, uint256 paymentAmount, string calldata taskType) private {... */\n    tag_95:\n        /* \"ComputeMarketplace.sol\":4555:5024  Task({... */\n      mload(0x40)\n      dup1\n      0x01a0\n      add\n      0x40\n      mstore\n      dup1\n        /* \"ComputeMarketplace.sol\":4590:4599  taskCount */\n      sload(0x03)\n      sub(shl(0x40, 0x01), 0x01)\n        /* \"ComputeMarketplace.sol\":4555:5024  Task({... */\n      and\n      dup2\n      mstore\n      0x20\n      add\n        /* \"ComputeMarketplace.sol\":4623:4633  msg.sender */\n      caller\n      sub(shl(0xa0, 0x01), 0x01)\n        /* \"ComputeMarketplace.sol\":4555:5024  Task({... */\n      and\n      dup2\n      mstore\n      0x20\n      add\n        /* \"ComputeMarketplace.sol\":4661:4672  description */\n      dup8\n      dup8\n        /* \"ComputeMarketplace.sol\":4555:5024  Task({... */\n      dup1\n      dup1\n      0x1f\n      add\n      0x20\n      dup1\n      swap2\n      div\n      mul\n      0x20\n      add\n      mload(0x40)\n      swap1\n      dup2\n      add\n      0x40\n      mstore\n      dup1\n      swap4\n      swap3\n      swap2\n      swap1\n      dup2\n      dup2\n      mstore\n      0x20\n      add\n      dup4\n      dup4\n      dup1\n      dup3\n      dup5\n      calldatacopy\n      0x00\n      swap3\n      add\n      dup3\n      swap1\n      mstore\n      pop\n      swap4\n      dup6\n      mstore\n      pop\n      pop\n      pop\n      0xffffffff\n      dup8\n      and\n      0x20\n      dup4\n      add\n      mstore\n      0x40\n      dup3\n      add\n      dup7\n      swap1\n      mstore\n      0x60\n      swap1\n      swap2\n      add\n      swap1\n      dup2\n      mstore\n      0x20\n      add\n        /* \"ComputeMarketplace.sol\":4819:4820  0 */\n      0x00\n      sub(shl(0xa0, 0x01), 0x01)\n        /* \"ComputeMarketplace.sol\":4555:5024  Task({... */\n      and\n      dup2\n      mstore\n      0x20\n      add\n        /* \"ComputeMarketplace.sol\":4851:4852  0 */\n      0x00\n        /* \"ComputeMarketplace.sol\":4555:5024  Task({... */\n      0xffffffff\n      and\n      dup2\n      mstore\n      0x20\n      add\n      mload(0x40)\n      dup1\n      0x20\n      add\n      0x40\n      mstore\n      dup1\n      0x00\n      dup2\n      mstore\n      pop\n      dup2\n      mstore\n      0x20\n      add\n        /* \"ComputeMarketplace.sol\":4917:4918  0 */\n      0x00\n      sub(shl(0x40, 0x01), 0x01)\n        /* \"ComputeMarketplace.sol\":4555:5024  Task({... */\n      and\n      dup2\n      mstore\n      0x20\n      add\n        /* \"ComputeMarketplace.sol\":4945:4946  0 */\n      0x00\n        /* \"ComputeMarketplace.sol\":4555:5024  Task({... */\n      dup2\n      mstore\n      0x20\n      add\n        /* \"ComputeMarketplace.sol\":4971:4979  taskType */\n      dup4\n      dup4\n        /* \"ComputeMarketplace.sol\":4555:5024  Task({... */\n      dup1\n      dup1\n      0x1f\n      add\n      0x20\n      dup1\n      swap2\n      div\n      mul\n      0x20\n      add\n      mload(0x40)\n      swap1\n      dup2\n      add\n      0x40\n      mstore\n      dup1\n      swap4\n      swap3\n      swap2\n      swap1\n      dup2\n      dup2\n      mstore\n      0x20\n      add\n      dup4\n      dup4\n      dup1\n      dup3\n      dup5\n      calldatacopy\n      0x00\n      swap3\n      add\n      dup3\n      swap1\n      mstore\n      pop\n      swap4\n      dup6\n      mstore\n      pop\n      pop\n      pop\n      0x20\n      swap2\n      dup3\n      add\n      dup2\n      swap1\n      mstore\n        /* \"ComputeMarketplace.sol\":4542:4551  taskCount */\n      sload(0x03)\n        /* \"ComputeMarketplace.sol\":4536:4552  tasks[taskCount] */\n      dup2\n      mstore\n        /* \"ComputeMarketplace.sol\":4536:4541  tasks */\n      0x05\n        /* \"ComputeMarketplace.sol\":4536:4552  tasks[taskCount] */\n      dup3\n      mstore\n      0x40\n      swap1\n      dup2\n      swap1\n      keccak256\n        /* \"ComputeMarketplace.sol\":4536:5024  tasks[taskCount] = Task({... */\n      dup4\n      mload\n      dup2\n      sload\n      swap4\n      dup6\n      add\n      mload\n      sub(shl(0xa0, 0x01), 0x01)\n      and\n      shl(0x40, 0x01)\n      mul\n      not(sub(shl(0xe0, 0x01), 0x01))\n      swap1\n      swap5\n      and\n      sub(shl(0x40, 0x01), 0x01)\n      swap1\n      swap2\n      and\n      or\n      swap3\n      swap1\n      swap3\n      or\n      dup3\n      sstore\n      dup3\n      add\n      mload\n        /* \"ComputeMarketplace.sol\":4555:5024  Task({... */\n      0x01\n        /* \"ComputeMarketplace.sol\":4536:5024  tasks[taskCount] = Task({... */\n      dup3\n      add\n      swap1\n      tag_160\n      swap1\n      dup3\n      tag_161\n      jump\t// in\n    tag_160:\n      pop\n      0x60\n      dup3\n      add\n      mload\n      dup2\n      0x02\n      add\n      exp(0x0100, 0x00)\n      dup2\n      sload\n      dup2\n      0xffffffff\n      mul\n      not\n      and\n      swap1\n      dup4\n      0xffffffff\n      and\n      mul\n      or\n      swap1\n      sstore\n      pop\n      0x80\n      dup3\n      add\n      mload\n      dup2\n      0x03\n      add\n      sstore\n      0xa0\n      dup3\n      add\n      mload\n      dup2\n      0x04\n      add\n      exp(0x0100, 0x00)\n      dup2\n      sload\n      dup2\n      0xff\n      mul\n      not\n      and\n      swap1\n      dup4\n      0x03\n      dup2\n      gt\n      iszero\n      tag_163\n      jumpi\n      tag_163\n      tag_159\n      jump\t// in\n    tag_163:\n      mul\n      or\n      swap1\n      sstore\n      pop\n      0xc0\n      dup3\n      add\n      mload\n      0x04\n      dup3\n      add\n      dup1\n      sload\n      0xe0\n      dup6\n      add\n      mload\n      not(0xffffffffffffffffffffffffffffffffffffffffffffffff00)\n      swap1\n      swap2\n      and\n      0x0100\n      sub(shl(0xa0, 0x01), 0x01)\n      swap1\n      swap5\n      and\n      dup5\n      mul\n      not(shl(0xa8, 0xffffffff))\n      and\n      or\n      shl(0xa8, 0x01)\n      0xffffffff\n      swap1\n      swap3\n      and\n      swap2\n      swap1\n      swap2\n      mul\n      or\n      swap1\n      sstore\n      dup3\n      add\n      mload\n      0x05\n      dup3\n      add\n      swap1\n      tag_164\n      swap1\n      dup3\n      tag_161\n      jump\t// in\n    tag_164:\n      pop\n      0x0120\n      dup3\n      add\n      mload\n      0x06\n      dup3\n      add\n      dup1\n      sload\n      not(0xffffffffffffffff)\n      and\n      sub(shl(0x40, 0x01), 0x01)\n      swap1\n      swap3\n      and\n      swap2\n      swap1\n      swap2\n      or\n      swap1\n      sstore\n      0x0140\n      dup3\n      add\n      mload\n      0x07\n      dup3\n      add\n      sstore\n      0x0160\n      dup3\n      add\n      mload\n      0x08\n      dup3\n      add\n      swap1\n      tag_165\n      swap1\n      dup3\n      tag_161\n      jump\t// in\n    tag_165:\n      pop\n      0x0180\n      swap2\n      swap1\n      swap2\n      add\n      mload\n      0x09\n      swap1\n      swap2\n      add\n      dup1\n      sload\n      not(0xff)\n      and\n      swap2\n      iszero\n      iszero\n      swap2\n      swap1\n      swap2\n      or\n      swap1\n      sstore\n      pop\n      pop\n      pop\n      pop\n      pop\n      pop\n        /* \"ComputeMarketplace.sol\":4398:5032  function _createNewTask(string calldata description, uint32 duration, uint256 paymentAmount, string calldata taskType) private {... */\n      jump\t// out\n        /* \"ComputeMarketplace.sol\":5040:5438  function _calculateAdjustedBidPrice(Task storage task, Resource storage resource, uint256 bidPrice) private view returns (uint256) {... */\n    tag_103:\n        /* \"ComputeMarketplace.sol\":5162:5169  uint256 */\n      0x00\n        /* \"ComputeMarketplace.sol\":5182:5197  uint256 bonuses */\n      dup1\n        /* \"ComputeMarketplace.sol\":5282:5348  _checkSpecializationMatch(task.taskType, resource.specializations) */\n      tag_167\n        /* \"ComputeMarketplace.sol\":5308:5312  task */\n      dup6\n        /* \"ComputeMarketplace.sol\":5308:5321  task.taskType */\n      0x08\n      add\n        /* \"ComputeMarketplace.sol\":5282:5348  _checkSpecializationMatch(task.taskType, resource.specializations) */\n      dup1\n      sload\n      tag_168\n      swap1\n      tag_120\n      jump\t// in\n    tag_168:\n      dup1\n      0x1f\n      add\n      0x20\n      dup1\n      swap2\n      div\n      mul\n      0x20\n      add\n      mload(0x40)\n      swap1\n      dup2\n      add\n      0x40\n      mstore\n      dup1\n      swap3\n      swap2\n      swap1\n      dup2\n      dup2\n      mstore\n      0x20\n      add\n      dup3\n      dup1\n      sload\n      tag_169\n      swap1\n      tag_120\n      jump\t// in\n    tag_169:\n      dup1\n      iszero\n      tag_170\n      jumpi\n      dup1\n      0x1f\n      lt\n      tag_171\n      jumpi\n      0x0100\n      dup1\n      dup4\n      sload\n      div\n      mul\n      dup4\n      mstore\n      swap2\n      0x20\n      add\n      swap2\n      jump(tag_170)\n    tag_171:\n      dup3\n      add\n      swap2\n      swap1\n      0x00\n      mstore\n      keccak256(0x00, 0x20)\n      swap1\n    tag_172:\n      dup2\n      sload\n      dup2\n      mstore\n      swap1\n      0x01\n      add\n      swap1\n      0x20\n      add\n      dup1\n      dup4\n      gt\n      tag_172\n      jumpi\n      dup3\n      swap1\n      sub\n      0x1f\n      and\n      dup3\n      add\n      swap2\n    tag_170:\n      pop\n      pop\n      pop\n      pop\n      pop\n        /* \"ComputeMarketplace.sol\":5323:5331  resource */\n      dup6\n        /* \"ComputeMarketplace.sol\":5323:5347  resource.specializations */\n      0x03\n      add\n        /* \"ComputeMarketplace.sol\":5282:5307  _checkSpecializationMatch */\n      tag_173\n        /* \"ComputeMarketplace.sol\":5282:5348  _checkSpecializationMatch(task.taskType, resource.specializations) */\n      jump\t// in\n    tag_167:\n        /* \"ComputeMarketplace.sol\":5282:5375  _checkSpecializationMatch(task.taskType, resource.specializations) ? SPECIALIZATION_BONUS : 0 */\n      tag_174\n      jumpi\n        /* \"ComputeMarketplace.sol\":5374:5375  0 */\n      0x00\n        /* \"ComputeMarketplace.sol\":5282:5375  _checkSpecializationMatch(task.taskType, resource.specializations) ? SPECIALIZATION_BONUS : 0 */\n      jump(tag_175)\n    tag_174:\n        /* \"ComputeMarketplace.sol\":706:708  50 */\n      0x32\n        /* \"ComputeMarketplace.sol\":5282:5375  _checkSpecializationMatch(task.taskType, resource.specializations) ? SPECIALIZATION_BONUS : 0 */\n    tag_175:\n        /* \"ComputeMarketplace.sol\":5209:5228  resource.reputation */\n      0x02\n      dup6\n      add\n      sload\n        /* \"ComputeMarketplace.sol\":5201:5249  uint256(resource.reputation) * REPUTATION_FACTOR */\n      tag_176\n      swap1\n        /* \"ComputeMarketplace.sol\":595:597  10 */\n      0x0a\n      swap1\n        /* \"ComputeMarketplace.sol\":5209:5228  resource.reputation */\n      0x0100\n      swap1\n      div\n      0xffffffff\n      and\n        /* \"ComputeMarketplace.sol\":5201:5249  uint256(resource.reputation) * REPUTATION_FACTOR */\n      tag_177\n      jump\t// in\n    tag_176:\n        /* \"ComputeMarketplace.sol\":5200:5376  (uint256(resource.reputation) * REPUTATION_FACTOR) + ... */\n      tag_178\n      swap2\n      swap1\n      tag_179\n      jump\t// in\n    tag_178:\n        /* \"ComputeMarketplace.sol\":5182:5376  uint256 bonuses = (uint256(resource.reputation) * REPUTATION_FACTOR) + ... */\n      swap1\n      pop\n        /* \"ComputeMarketplace.sol\":5415:5429  1000 + bonuses */\n      tag_180\n        /* \"ComputeMarketplace.sol\":5182:5376  uint256 bonuses = (uint256(resource.reputation) * REPUTATION_FACTOR) + ... */\n      dup2\n        /* \"ComputeMarketplace.sol\":5415:5419  1000 */\n      0x03e8\n        /* \"ComputeMarketplace.sol\":5415:5429  1000 + bonuses */\n      tag_179\n      jump\t// in\n    tag_180:\n        /* \"ComputeMarketplace.sol\":5395:5410  bidPrice * 1000 */\n      tag_181\n        /* \"ComputeMarketplace.sol\":5395:5403  bidPrice */\n      dup5\n        /* \"ComputeMarketplace.sol\":5406:5410  1000 */\n      0x03e8\n        /* \"ComputeMarketplace.sol\":5395:5410  bidPrice * 1000 */\n      tag_177\n      jump\t// in\n    tag_181:\n        /* \"ComputeMarketplace.sol\":5394:5430  (bidPrice * 1000) / (1000 + bonuses) */\n      tag_182\n      swap2\n      swap1\n      tag_183\n      jump\t// in\n    tag_182:\n        /* \"ComputeMarketplace.sol\":5387:5430  return (bidPrice * 1000) / (1000 + bonuses) */\n      swap6\n        /* \"ComputeMarketplace.sol\":5040:5438  function _calculateAdjustedBidPrice(Task storage task, Resource storage resource, uint256 bidPrice) private view returns (uint256) {... */\n      swap5\n      pop\n      pop\n      pop\n      pop\n      pop\n      jump\t// out\n        /* \"ComputeMarketplace.sol\":5832:6148  function _updateTaskAllocation(Task storage task, uint256 resourceId, uint256 adjustedBidPrice) private {... */\n    tag_105:\n        /* \"ComputeMarketplace.sol\":5951:5975  task.allocatedResourceId */\n      0x06\n      dup4\n      add\n      sload\n      sub(shl(0x40, 0x01), 0x01)\n      and\n        /* \"ComputeMarketplace.sol\":5951:5980  task.allocatedResourceId == 0 */\n      iszero\n      dup1\n        /* \"ComputeMarketplace.sol\":5951:6018  task.allocatedResourceId == 0 || adjustedBidPrice < task.finalPrice */\n      tag_185\n      jumpi\n      pop\n        /* \"ComputeMarketplace.sol\":6003:6007  task */\n      dup3\n        /* \"ComputeMarketplace.sol\":6003:6018  task.finalPrice */\n      0x07\n      add\n      sload\n        /* \"ComputeMarketplace.sol\":5984:6000  adjustedBidPrice */\n      dup2\n        /* \"ComputeMarketplace.sol\":5984:6018  adjustedBidPrice < task.finalPrice */\n      lt\n        /* \"ComputeMarketplace.sol\":5951:6018  task.allocatedResourceId == 0 || adjustedBidPrice < task.finalPrice */\n    tag_185:\n        /* \"ComputeMarketplace.sol\":5947:6141  if (task.allocatedResourceId == 0 || adjustedBidPrice < task.finalPrice) {... */\n      iszero\n      tag_186\n      jumpi\n        /* \"ComputeMarketplace.sol\":6035:6059  task.allocatedResourceId */\n      0x06\n      dup4\n      add\n        /* \"ComputeMarketplace.sol\":6035:6080  task.allocatedResourceId = uint64(resourceId) */\n      dup1\n      sload\n      not(0xffffffffffffffff)\n      and\n      sub(shl(0x40, 0x01), 0x01)\n      dup5\n      and\n      or\n      swap1\n      sstore\n        /* \"ComputeMarketplace.sol\":6095:6110  task.finalPrice */\n      0x07\n      dup4\n      add\n        /* \"ComputeMarketplace.sol\":6095:6129  task.finalPrice = adjustedBidPrice */\n      dup2\n      swap1\n      sstore\n        /* \"ComputeMarketplace.sol\":5947:6141  if (task.allocatedResourceId == 0 || adjustedBidPrice < task.finalPrice) {... */\n    tag_186:\n        /* \"ComputeMarketplace.sol\":5832:6148  function _updateTaskAllocation(Task storage task, uint256 resourceId, uint256 adjustedBidPrice) private {... */\n      pop\n      pop\n      pop\n      jump\t// out\n        /* \"@openzeppelin/contracts/access/Ownable.sol\":1796:1958  function _checkOwner() internal view virtual {... */\n    tag_110:\n        /* \"@openzeppelin/contracts/access/Ownable.sol\":1684:1691  address */\n      0x00\n        /* \"@openzeppelin/contracts/access/Ownable.sol\":1710:1716  _owner */\n      sload\n      sub(shl(0xa0, 0x01), 0x01)\n      and\n        /* \"@openzeppelin/contracts/utils/Context.sol\":735:745  msg.sender */\n      caller\n        /* \"@openzeppelin/contracts/access/Ownable.sol\":1855:1878  owner() != _msgSender() */\n      eq\n        /* \"@openzeppelin/contracts/access/Ownable.sol\":1851:1952  if (owner() != _msgSender()) {... */\n      tag_112\n      jumpi\n        /* \"@openzeppelin/contracts/access/Ownable.sol\":1901:1941  OwnableUnauthorizedAccount(_msgSender()) */\n      mload(0x40)\n      shl(0xe0, 0x118cdaa7)\n      dup2\n      mstore\n        /* \"@openzeppelin/contracts/utils/Context.sol\":735:745  msg.sender */\n      caller\n        /* \"@openzeppelin/contracts/access/Ownable.sol\":1901:1941  OwnableUnauthorizedAccount(_msgSender()) */\n      0x04\n      dup3\n      add\n        /* \"#utility.yul\":4108:4182   */\n      mstore\n        /* \"#utility.yul\":4081:4099   */\n      0x24\n      add\n        /* \"@openzeppelin/contracts/access/Ownable.sol\":1901:1941  OwnableUnauthorizedAccount(_msgSender()) */\n      tag_91\n        /* \"#utility.yul\":3948:4188   */\n      jump\n        /* \"@openzeppelin/contracts/access/Ownable.sol\":2912:3099  function _transferOwnership(address newOwner) internal virtual {... */\n    tag_113:\n        /* \"@openzeppelin/contracts/access/Ownable.sol\":2985:3001  address oldOwner */\n      0x00\n        /* \"@openzeppelin/contracts/access/Ownable.sol\":3004:3010  _owner */\n      dup1\n      sload\n      sub(shl(0xa0, 0x01), 0x01)\n        /* \"@openzeppelin/contracts/access/Ownable.sol\":3020:3037  _owner = newOwner */\n      dup4\n      dup2\n      and\n      not(0xffffffffffffffffffffffffffffffffffffffff)\n      dup4\n      and\n      dup2\n      or\n      dup5\n      sstore\n        /* \"@openzeppelin/contracts/access/Ownable.sol\":3052:3092  OwnershipTransferred(oldOwner, newOwner) */\n      mload(0x40)\n        /* \"@openzeppelin/contracts/access/Ownable.sol\":3004:3010  _owner */\n      swap2\n      swap1\n      swap3\n      and\n      swap3\n      dup4\n      swap2\n        /* \"@openzeppelin/contracts/access/Ownable.sol\":3052:3092  OwnershipTransferred(oldOwner, newOwner) */\n      0x8be0079c531659141344cd1fd0a4f28419497f9722a3daafe3b4186f6b6457e0\n      swap2\n        /* \"@openzeppelin/contracts/access/Ownable.sol\":2985:3001  address oldOwner */\n      swap1\n        /* \"@openzeppelin/contracts/access/Ownable.sol\":3052:3092  OwnershipTransferred(oldOwner, newOwner) */\n      log3\n        /* \"@openzeppelin/contracts/access/Ownable.sol\":2975:3099  {... */\n      pop\n        /* \"@openzeppelin/contracts/access/Ownable.sol\":2912:3099  function _transferOwnership(address newOwner) internal virtual {... */\n      pop\n      jump\t// out\n        /* \"ComputeMarketplace.sol\":6156:6328  function _updateResourceRating(Resource storage resource, uint32 rating) private {... */\n    tag_145:\n        /* \"ComputeMarketplace.sol\":6248:6273  resource.totalRatingScore */\n      0x04\n      dup3\n      add\n        /* \"ComputeMarketplace.sol\":6248:6283  resource.totalRatingScore += rating */\n      dup1\n      sload\n        /* \"ComputeMarketplace.sol\":6277:6283  rating */\n      dup3\n      swap2\n        /* \"ComputeMarketplace.sol\":6248:6273  resource.totalRatingScore */\n      swap1\n      0x00\n      swap1\n        /* \"ComputeMarketplace.sol\":6248:6283  resource.totalRatingScore += rating */\n      tag_196\n      swap1\n        /* \"ComputeMarketplace.sol\":6277:6283  rating */\n      dup5\n      swap1\n        /* \"ComputeMarketplace.sol\":6248:6283  resource.totalRatingScore += rating */\n      0xffffffff\n      and\n      tag_197\n      jump\t// in\n    tag_196:\n      swap3\n      pop\n      0x0100\n      exp\n      dup2\n      sload\n      dup2\n      0xffffffff\n      mul\n      not\n      and\n      swap1\n      dup4\n      0xffffffff\n      and\n      mul\n      or\n      swap1\n      sstore\n      pop\n        /* \"ComputeMarketplace.sol\":6294:6302  resource */\n      dup2\n        /* \"ComputeMarketplace.sol\":6294:6318  resource.numberOfRatings */\n      0x04\n      add\n      0x04\n        /* \"ComputeMarketplace.sol\":6294:6320  resource.numberOfRatings++ */\n      dup2\n      dup2\n      swap1\n      sload\n      swap1\n      0x0100\n      exp\n      swap1\n      div\n      0xffffffff\n      and\n      dup1\n      swap3\n      swap2\n      swap1\n      tag_198\n      swap1\n      tag_199\n      jump\t// in\n    tag_198:\n      swap2\n      swap1\n      0x0100\n      exp\n      dup2\n      sload\n      dup2\n      0xffffffff\n      mul\n      not\n      and\n      swap1\n      dup4\n      0xffffffff\n      and\n      mul\n      or\n      swap1\n      sstore\n      pop\n      pop\n        /* \"ComputeMarketplace.sol\":6156:6328  function _updateResourceRating(Resource storage resource, uint32 rating) private {... */\n      pop\n      pop\n      jump\t// out\n        /* \"ComputeMarketplace.sol\":6336:6627  function _adjustResourceReputation(Resource storage resource, uint32 rating) private {... */\n    tag_147:\n        /* \"ComputeMarketplace.sol\":6445:6446  3 */\n      0x03\n        /* \"ComputeMarketplace.sol\":6436:6442  rating */\n      dup2\n        /* \"ComputeMarketplace.sol\":6436:6446  rating > 3 */\n      0xffffffff\n      and\n      gt\n        /* \"ComputeMarketplace.sol\":6432:6620  if (rating > 3) {... */\n      iszero\n      tag_201\n      jumpi\n        /* \"ComputeMarketplace.sol\":6500:6519  resource.reputation */\n      0x02\n      dup3\n      dup2\n      add\n      sload\n        /* \"ComputeMarketplace.sol\":6492:6524  uint256(resource.reputation) + 2 */\n      tag_202\n      swap2\n        /* \"ComputeMarketplace.sol\":6500:6519  resource.reputation */\n      0x0100\n      swap1\n      swap2\n      div\n      0xffffffff\n      and\n      swap1\n        /* \"ComputeMarketplace.sol\":6492:6524  uint256(resource.reputation) + 2 */\n      tag_179\n      jump\t// in\n    tag_202:\n        /* \"ComputeMarketplace.sol\":6463:6471  resource */\n      dup3\n        /* \"ComputeMarketplace.sol\":6463:6482  resource.reputation */\n      0x02\n      add\n      0x01\n        /* \"ComputeMarketplace.sol\":6463:6525  resource.reputation = uint32(uint256(resource.reputation) + 2) */\n      0x0100\n      exp\n      dup2\n      sload\n      dup2\n      0xffffffff\n      mul\n      not\n      and\n      swap1\n      dup4\n      0xffffffff\n      and\n      mul\n      or\n      swap1\n      sstore\n      pop\n        /* \"ComputeMarketplace.sol\":6336:6627  function _adjustResourceReputation(Resource storage resource, uint32 rating) private {... */\n      pop\n      pop\n      jump\t// out\n        /* \"ComputeMarketplace.sol\":6432:6620  if (rating > 3) {... */\n    tag_201:\n        /* \"ComputeMarketplace.sol\":6547:6566  resource.reputation */\n      0x02\n      dup3\n      add\n      sload\n        /* \"ComputeMarketplace.sol\":6569:6570  1 */\n      0x01\n        /* \"ComputeMarketplace.sol\":6547:6566  resource.reputation */\n      0x0100\n      swap1\n      swap2\n      div\n      0xffffffff\n      and\n        /* \"ComputeMarketplace.sol\":6547:6570  resource.reputation > 1 */\n      gt\n        /* \"ComputeMarketplace.sol\":6543:6620  if (resource.reputation > 1) {... */\n      iszero\n      tag_204\n      jumpi\n        /* \"ComputeMarketplace.sol\":6587:6606  resource.reputation */\n      0x02\n      dup3\n      add\n        /* \"ComputeMarketplace.sol\":6587:6608  resource.reputation-- */\n      dup1\n      sload\n      0x0100\n      swap1\n      div\n      0xffffffff\n      and\n      swap1\n        /* \"ComputeMarketplace.sol\":6587:6606  resource.reputation */\n      0x01\n        /* \"ComputeMarketplace.sol\":6587:6608  resource.reputation-- */\n      tag_198\n      dup4\n      tag_206\n      jump\t// in\n        /* \"ComputeMarketplace.sol\":6543:6620  if (resource.reputation > 1) {... */\n    tag_204:\n        /* \"ComputeMarketplace.sol\":6336:6627  function _adjustResourceReputation(Resource storage resource, uint32 rating) private {... */\n      pop\n      pop\n      jump\t// out\n        /* \"ComputeMarketplace.sol\":5446:5824  function _checkSpecializationMatch(string memory taskType, string[] storage specializations) private view returns (bool) {... */\n    tag_173:\n        /* \"ComputeMarketplace.sol\":5561:5565  bool */\n      0x00\n      dup1\n        /* \"ComputeMarketplace.sol\":5578:5794  for (uint i = 0; i < specializations.length; i++) {... */\n    tag_208:\n        /* \"ComputeMarketplace.sol\":5599:5621  specializations.length */\n      dup3\n      sload\n        /* \"ComputeMarketplace.sol\":5595:5621  i < specializations.length */\n      dup2\n      lt\n        /* \"ComputeMarketplace.sol\":5578:5794  for (uint i = 0; i < specializations.length; i++) {... */\n      iszero\n      tag_209\n      jumpi\n        /* \"ComputeMarketplace.sol\":5725:5733  taskType */\n      dup4\n        /* \"ComputeMarketplace.sol\":5708:5734  abi.encodePacked(taskType) */\n      add(0x20, mload(0x40))\n      tag_211\n      swap2\n      swap1\n      tag_212\n      jump\t// in\n    tag_211:\n      mload(0x40)\n      0x20\n      dup2\n      dup4\n      sub\n      sub\n      dup2\n      mstore\n      swap1\n      0x40\n      mstore\n        /* \"ComputeMarketplace.sol\":5698:5735  keccak256(abi.encodePacked(taskType)) */\n      dup1\n      mload\n      swap1\n      0x20\n      add\n      keccak256\n        /* \"ComputeMarketplace.sol\":5674:5689  specializations */\n      dup4\n        /* \"ComputeMarketplace.sol\":5690:5691  i */\n      dup3\n        /* \"ComputeMarketplace.sol\":5674:5692  specializations[i] */\n      dup2\n      sload\n      dup2\n      lt\n      tag_214\n      jumpi\n      tag_214\n      tag_215\n      jump\t// in\n    tag_214:\n      swap1\n      0x00\n      mstore\n      keccak256(0x00, 0x20)\n      add\n        /* \"ComputeMarketplace.sol\":5657:5693  abi.encodePacked(specializations[i]) */\n      add(0x20, mload(0x40))\n      tag_217\n      swap2\n      swap1\n      tag_218\n      jump\t// in\n    tag_217:\n      mload(0x40)\n      0x20\n      dup2\n      dup4\n      sub\n      sub\n      dup2\n      mstore\n      swap1\n      0x40\n      mstore\n        /* \"ComputeMarketplace.sol\":5647:5694  keccak256(abi.encodePacked(specializations[i])) */\n      dup1\n      mload\n      swap1\n      0x20\n      add\n      keccak256\n        /* \"ComputeMarketplace.sol\":5647:5735  keccak256(abi.encodePacked(specializations[i])) == keccak256(abi.encodePacked(taskType)) */\n      sub\n        /* \"ComputeMarketplace.sol\":5643:5783  if (keccak256(abi.encodePacked(specializations[i])) == keccak256(abi.encodePacked(taskType))) {... */\n      tag_219\n      jumpi\n        /* \"ComputeMarketplace.sol\":5763:5767  true */\n      0x01\n        /* \"ComputeMarketplace.sol\":5756:5767  return true */\n      swap2\n      pop\n      pop\n      jump(tag_207)\n        /* \"ComputeMarketplace.sol\":5643:5783  if (keccak256(abi.encodePacked(specializations[i])) == keccak256(abi.encodePacked(taskType))) {... */\n    tag_219:\n        /* \"ComputeMarketplace.sol\":5623:5626  i++ */\n      0x01\n      add\n        /* \"ComputeMarketplace.sol\":5578:5794  for (uint i = 0; i < specializations.length; i++) {... */\n      jump(tag_208)\n    tag_209:\n      pop\n        /* \"ComputeMarketplace.sol\":5811:5816  false */\n      0x00\n        /* \"ComputeMarketplace.sol\":5804:5816  return false */\n      swap1\n      pop\n        /* \"ComputeMarketplace.sol\":5446:5824  function _checkSpecializationMatch(string memory taskType, string[] storage specializations) private view returns (bool) {... */\n    tag_207:\n      swap3\n      swap2\n      pop\n      pop\n      jump\t// out\n    tag_88:\n      dup3\n      dup1\n      sload\n      dup3\n      dup3\n      sstore\n      swap1\n      0x00\n      mstore\n      keccak256(0x00, 0x20)\n      swap1\n      dup2\n      add\n      swap3\n      dup3\n      iszero\n      tag_223\n      jumpi\n      swap2\n      0x20\n      mul\n      dup3\n      add\n    tag_222:\n      dup3\n      dup2\n      gt\n      iszero\n      tag_223\n      jumpi\n      dup3\n      mload\n      dup3\n      swap1\n      tag_224\n      swap1\n      dup3\n      tag_161\n      jump\t// in\n    tag_224:\n      pop\n      swap2\n      0x20\n      add\n      swap2\n      swap1\n      0x01\n      add\n      swap1\n      jump(tag_222)\n    tag_223:\n      pop\n      tag_225\n      swap3\n      swap2\n      pop\n      tag_226\n      jump\t// in\n    tag_225:\n      pop\n      swap1\n      jump\t// out\n    tag_226:\n      dup1\n      dup3\n      gt\n      iszero\n      tag_225\n      jumpi\n      0x00\n      tag_229\n      dup3\n      dup3\n      tag_230\n      jump\t// in\n    tag_229:\n      pop\n      0x01\n      add\n      jump(tag_226)\n    tag_230:\n      pop\n      dup1\n      sload\n      tag_231\n      swap1\n      tag_120\n      jump\t// in\n    tag_231:\n      0x00\n      dup3\n      sstore\n      dup1\n      0x1f\n      lt\n      tag_233\n      jumpi\n      pop\n      pop\n      jump\t// out\n    tag_233:\n      0x1f\n      add\n      0x20\n      swap1\n      div\n      swap1\n      0x00\n      mstore\n      keccak256(0x00, 0x20)\n      swap1\n      dup2\n      add\n      swap1\n      tag_155\n      swap2\n      swap1\n    tag_236:\n      dup1\n      dup3\n      gt\n      iszero\n      tag_225\n      jumpi\n      0x00\n      dup2\n      sstore\n      0x01\n      add\n      jump(tag_236)\n        /* \"#utility.yul\":14:928   */\n    tag_24:\n        /* \"#utility.yul\":129:135   */\n      0x00\n        /* \"#utility.yul\":137:143   */\n      dup1\n        /* \"#utility.yul\":145:151   */\n      0x00\n        /* \"#utility.yul\":153:159   */\n      dup1\n        /* \"#utility.yul\":206:208   */\n      0x60\n        /* \"#utility.yul\":194:203   */\n      dup6\n        /* \"#utility.yul\":185:192   */\n      dup8\n        /* \"#utility.yul\":181:204   */\n      sub\n        /* \"#utility.yul\":177:209   */\n      slt\n        /* \"#utility.yul\":174:226   */\n      iszero\n      tag_254\n      jumpi\n        /* \"#utility.yul\":222:223   */\n      0x00\n        /* \"#utility.yul\":219:220   */\n      dup1\n        /* \"#utility.yul\":212:224   */\n      revert\n        /* \"#utility.yul\":174:226   */\n    tag_254:\n        /* \"#utility.yul\":261:270   */\n      dup5\n        /* \"#utility.yul\":248:271   */\n      calldataload\n      sub(shl(0x40, 0x01), 0x01)\n        /* \"#utility.yul\":304:309   */\n      dup2\n        /* \"#utility.yul\":300:330   */\n      and\n        /* \"#utility.yul\":293:298   */\n      dup2\n        /* \"#utility.yul\":290:331   */\n      eq\n        /* \"#utility.yul\":280:349   */\n      tag_255\n      jumpi\n        /* \"#utility.yul\":345:346   */\n      0x00\n        /* \"#utility.yul\":342:343   */\n      dup1\n        /* \"#utility.yul\":335:347   */\n      revert\n        /* \"#utility.yul\":280:349   */\n    tag_255:\n        /* \"#utility.yul\":368:373   */\n      swap4\n      pop\n        /* \"#utility.yul\":446:448   */\n      0x20\n        /* \"#utility.yul\":431:449   */\n      dup6\n      add\n        /* \"#utility.yul\":418:450   */\n      calldataload\n      swap3\n      pop\n        /* \"#utility.yul\":527:529   */\n      0x40\n        /* \"#utility.yul\":512:530   */\n      dup6\n      add\n        /* \"#utility.yul\":499:531   */\n      calldataload\n      sub(shl(0x40, 0x01), 0x01)\n        /* \"#utility.yul\":543:573   */\n      dup2\n      gt\n        /* \"#utility.yul\":540:590   */\n      iszero\n      tag_256\n      jumpi\n        /* \"#utility.yul\":586:587   */\n      0x00\n        /* \"#utility.yul\":583:584   */\n      dup1\n        /* \"#utility.yul\":576:588   */\n      revert\n        /* \"#utility.yul\":540:590   */\n    tag_256:\n        /* \"#utility.yul\":609:631   */\n      dup6\n      add\n        /* \"#utility.yul\":662:666   */\n      0x1f\n        /* \"#utility.yul\":654:667   */\n      dup2\n      add\n        /* \"#utility.yul\":650:677   */\n      dup8\n      sgt\n        /* \"#utility.yul\":640:695   */\n      tag_257\n      jumpi\n        /* \"#utility.yul\":691:692   */\n      0x00\n        /* \"#utility.yul\":688:689   */\n      dup1\n        /* \"#utility.yul\":681:693   */\n      revert\n        /* \"#utility.yul\":640:695   */\n    tag_257:\n        /* \"#utility.yul\":731:733   */\n      dup1\n        /* \"#utility.yul\":718:734   */\n      calldataload\n      sub(shl(0x40, 0x01), 0x01)\n        /* \"#utility.yul\":749:755   */\n      dup2\n        /* \"#utility.yul\":746:776   */\n      gt\n        /* \"#utility.yul\":743:793   */\n      iszero\n      tag_258\n      jumpi\n        /* \"#utility.yul\":789:790   */\n      0x00\n        /* \"#utility.yul\":786:787   */\n      dup1\n        /* \"#utility.yul\":779:791   */\n      revert\n        /* \"#utility.yul\":743:793   */\n    tag_258:\n        /* \"#utility.yul\":842:849   */\n      dup8\n        /* \"#utility.yul\":837:839   */\n      0x20\n        /* \"#utility.yul\":827:833   */\n      dup3\n        /* \"#utility.yul\":824:825   */\n      0x05\n        /* \"#utility.yul\":820:834   */\n      shl\n        /* \"#utility.yul\":816:818   */\n      dup5\n        /* \"#utility.yul\":812:835   */\n      add\n        /* \"#utility.yul\":808:840   */\n      add\n        /* \"#utility.yul\":805:850   */\n      gt\n        /* \"#utility.yul\":802:867   */\n      iszero\n      tag_259\n      jumpi\n        /* \"#utility.yul\":863:864   */\n      0x00\n        /* \"#utility.yul\":860:861   */\n      dup1\n        /* \"#utility.yul\":853:865   */\n      revert\n        /* \"#utility.yul\":802:867   */\n    tag_259:\n        /* \"#utility.yul\":14:928   */\n      swap5\n      swap8\n      swap4\n      swap7\n      pop\n        /* \"#utility.yul\":894:896   */\n      0x20\n        /* \"#utility.yul\":886:897   */\n      add\n      swap5\n      pop\n      pop\n      pop\n        /* \"#utility.yul\":14:928   */\n      jump\t// out\n        /* \"#utility.yul\":1115:1341   */\n    tag_32:\n        /* \"#utility.yul\":1174:1180   */\n      0x00\n        /* \"#utility.yul\":1227:1229   */\n      0x20\n        /* \"#utility.yul\":1215:1224   */\n      dup3\n        /* \"#utility.yul\":1206:1213   */\n      dup5\n        /* \"#utility.yul\":1202:1225   */\n      sub\n        /* \"#utility.yul\":1198:1230   */\n      slt\n        /* \"#utility.yul\":1195:1247   */\n      iszero\n      tag_262\n      jumpi\n        /* \"#utility.yul\":1243:1244   */\n      0x00\n        /* \"#utility.yul\":1240:1241   */\n      dup1\n        /* \"#utility.yul\":1233:1245   */\n      revert\n        /* \"#utility.yul\":1195:1247   */\n    tag_262:\n      pop\n        /* \"#utility.yul\":1288:1311   */\n      calldataload\n      swap2\n        /* \"#utility.yul\":1115:1341   */\n      swap1\n      pop\n      jump\t// out\n        /* \"#utility.yul\":2519:2867   */\n    tag_242:\n        /* \"#utility.yul\":2571:2579   */\n      0x00\n        /* \"#utility.yul\":2581:2587   */\n      dup1\n        /* \"#utility.yul\":2635:2638   */\n      dup4\n        /* \"#utility.yul\":2628:2632   */\n      0x1f\n        /* \"#utility.yul\":2620:2626   */\n      dup5\n        /* \"#utility.yul\":2616:2633   */\n      add\n        /* \"#utility.yul\":2612:2639   */\n      slt\n        /* \"#utility.yul\":2602:2657   */\n      tag_269\n      jumpi\n        /* \"#utility.yul\":2653:2654   */\n      0x00\n        /* \"#utility.yul\":2650:2651   */\n      dup1\n        /* \"#utility.yul\":2643:2655   */\n      revert\n        /* \"#utility.yul\":2602:2657   */\n    tag_269:\n      pop\n        /* \"#utility.yul\":2676:2696   */\n      dup2\n      calldataload\n      sub(shl(0x40, 0x01), 0x01)\n        /* \"#utility.yul\":2708:2738   */\n      dup2\n      gt\n        /* \"#utility.yul\":2705:2755   */\n      iszero\n      tag_270\n      jumpi\n        /* \"#utility.yul\":2751:2752   */\n      0x00\n        /* \"#utility.yul\":2748:2749   */\n      dup1\n        /* \"#utility.yul\":2741:2753   */\n      revert\n        /* \"#utility.yul\":2705:2755   */\n    tag_270:\n        /* \"#utility.yul\":2788:2792   */\n      0x20\n        /* \"#utility.yul\":2780:2786   */\n      dup4\n        /* \"#utility.yul\":2776:2793   */\n      add\n        /* \"#utility.yul\":2764:2793   */\n      swap2\n      pop\n        /* \"#utility.yul\":2840:2843   */\n      dup4\n        /* \"#utility.yul\":2833:2837   */\n      0x20\n        /* \"#utility.yul\":2824:2830   */\n      dup3\n        /* \"#utility.yul\":2816:2822   */\n      dup6\n        /* \"#utility.yul\":2812:2831   */\n      add\n        /* \"#utility.yul\":2808:2838   */\n      add\n        /* \"#utility.yul\":2805:2844   */\n      gt\n        /* \"#utility.yul\":2802:2861   */\n      iszero\n      tag_271\n      jumpi\n        /* \"#utility.yul\":2857:2858   */\n      0x00\n        /* \"#utility.yul\":2854:2855   */\n      dup1\n        /* \"#utility.yul\":2847:2859   */\n      revert\n        /* \"#utility.yul\":2802:2861   */\n    tag_271:\n        /* \"#utility.yul\":2519:2867   */\n      swap3\n      pop\n      swap3\n      swap1\n      pop\n      jump\t// out\n        /* \"#utility.yul\":2872:3035   */\n    tag_243:\n        /* \"#utility.yul\":2939:2959   */\n      dup1\n      calldataload\n        /* \"#utility.yul\":2999:3009   */\n      0xffffffff\n        /* \"#utility.yul\":2988:3010   */\n      dup2\n      and\n        /* \"#utility.yul\":2978:3011   */\n      dup2\n      eq\n        /* \"#utility.yul\":2968:3029   */\n      tag_273\n      jumpi\n        /* \"#utility.yul\":3025:3026   */\n      0x00\n        /* \"#utility.yul\":3022:3023   */\n      dup1\n        /* \"#utility.yul\":3015:3027   */\n      revert\n        /* \"#utility.yul\":2968:3029   */\n    tag_273:\n        /* \"#utility.yul\":2872:3035   */\n      swap2\n      swap1\n      pop\n      jump\t// out\n        /* \"#utility.yul\":3040:3943   */\n    tag_38:\n        /* \"#utility.yul\":3149:3155   */\n      0x00\n        /* \"#utility.yul\":3157:3163   */\n      dup1\n        /* \"#utility.yul\":3165:3171   */\n      0x00\n        /* \"#utility.yul\":3173:3179   */\n      dup1\n        /* \"#utility.yul\":3181:3187   */\n      0x00\n        /* \"#utility.yul\":3189:3195   */\n      dup1\n        /* \"#utility.yul\":3242:3245   */\n      0x80\n        /* \"#utility.yul\":3230:3239   */\n      dup8\n        /* \"#utility.yul\":3221:3228   */\n      dup10\n        /* \"#utility.yul\":3217:3240   */\n      sub\n        /* \"#utility.yul\":3213:3246   */\n      slt\n        /* \"#utility.yul\":3210:3263   */\n      iszero\n      tag_275\n      jumpi\n        /* \"#utility.yul\":3259:3260   */\n      0x00\n        /* \"#utility.yul\":3256:3257   */\n      dup1\n        /* \"#utility.yul\":3249:3261   */\n      revert\n        /* \"#utility.yul\":3210:3263   */\n    tag_275:\n        /* \"#utility.yul\":3299:3308   */\n      dup7\n        /* \"#utility.yul\":3286:3309   */\n      calldataload\n      sub(shl(0x40, 0x01), 0x01)\n        /* \"#utility.yul\":3324:3330   */\n      dup2\n        /* \"#utility.yul\":3321:3351   */\n      gt\n        /* \"#utility.yul\":3318:3368   */\n      iszero\n      tag_276\n      jumpi\n        /* \"#utility.yul\":3364:3365   */\n      0x00\n        /* \"#utility.yul\":3361:3362   */\n      dup1\n        /* \"#utility.yul\":3354:3366   */\n      revert\n        /* \"#utility.yul\":3318:3368   */\n    tag_276:\n        /* \"#utility.yul\":3403:3462   */\n      tag_277\n        /* \"#utility.yul\":3454:3461   */\n      dup10\n        /* \"#utility.yul\":3445:3451   */\n      dup3\n        /* \"#utility.yul\":3434:3443   */\n      dup11\n        /* \"#utility.yul\":3430:3452   */\n      add\n        /* \"#utility.yul\":3403:3462   */\n      tag_242\n      jump\t// in\n    tag_277:\n        /* \"#utility.yul\":3481:3489   */\n      swap1\n      swap8\n      pop\n        /* \"#utility.yul\":3377:3462   */\n      swap6\n      pop\n        /* \"#utility.yul\":3535:3572   */\n      tag_278\n      swap1\n      pop\n        /* \"#utility.yul\":3568:3570   */\n      0x20\n        /* \"#utility.yul\":3553:3571   */\n      dup9\n      add\n        /* \"#utility.yul\":3535:3572   */\n      tag_243\n      jump\t// in\n    tag_278:\n        /* \"#utility.yul\":3525:3572   */\n      swap4\n      pop\n        /* \"#utility.yul\":3641:3643   */\n      0x40\n        /* \"#utility.yul\":3626:3644   */\n      dup8\n      add\n        /* \"#utility.yul\":3613:3645   */\n      calldataload\n      swap3\n      pop\n        /* \"#utility.yul\":3722:3724   */\n      0x60\n        /* \"#utility.yul\":3707:3725   */\n      dup8\n      add\n        /* \"#utility.yul\":3694:3726   */\n      calldataload\n      sub(shl(0x40, 0x01), 0x01)\n        /* \"#utility.yul\":3738:3770   */\n      dup2\n      gt\n        /* \"#utility.yul\":3735:3787   */\n      iszero\n      tag_279\n      jumpi\n        /* \"#utility.yul\":3783:3784   */\n      0x00\n        /* \"#utility.yul\":3780:3781   */\n      dup1\n        /* \"#utility.yul\":3773:3785   */\n      revert\n        /* \"#utility.yul\":3735:3787   */\n    tag_279:\n        /* \"#utility.yul\":3822:3883   */\n      tag_280\n        /* \"#utility.yul\":3875:3882   */\n      dup10\n        /* \"#utility.yul\":3864:3872   */\n      dup3\n        /* \"#utility.yul\":3853:3862   */\n      dup11\n        /* \"#utility.yul\":3849:3873   */\n      add\n        /* \"#utility.yul\":3822:3883   */\n      tag_242\n      jump\t// in\n    tag_280:\n        /* \"#utility.yul\":3040:3943   */\n      swap8\n      swap11\n      swap7\n      swap10\n      pop\n      swap5\n      swap8\n      pop\n      swap3\n      swap6\n        /* \"#utility.yul\":3902:3910   */\n      swap4\n      swap5\n        /* \"#utility.yul\":3040:3943   */\n      swap3\n      pop\n      pop\n      pop\n      jump\t// out\n        /* \"#utility.yul\":4193:4659   */\n    tag_46:\n        /* \"#utility.yul\":4270:4276   */\n      0x00\n        /* \"#utility.yul\":4278:4284   */\n      dup1\n        /* \"#utility.yul\":4286:4292   */\n      0x00\n        /* \"#utility.yul\":4339:4341   */\n      0x60\n        /* \"#utility.yul\":4327:4336   */\n      dup5\n        /* \"#utility.yul\":4318:4325   */\n      dup7\n        /* \"#utility.yul\":4314:4337   */\n      sub\n        /* \"#utility.yul\":4310:4342   */\n      slt\n        /* \"#utility.yul\":4307:4359   */\n      iszero\n      tag_283\n      jumpi\n        /* \"#utility.yul\":4355:4356   */\n      0x00\n        /* \"#utility.yul\":4352:4353   */\n      dup1\n        /* \"#utility.yul\":4345:4357   */\n      revert\n        /* \"#utility.yul\":4307:4359   */\n    tag_283:\n      pop\n      pop\n        /* \"#utility.yul\":4400:4423   */\n      dup2\n      calldataload\n      swap4\n        /* \"#utility.yul\":4520:4522   */\n      0x20\n        /* \"#utility.yul\":4505:4523   */\n      dup4\n      add\n        /* \"#utility.yul\":4492:4524   */\n      calldataload\n      swap4\n      pop\n        /* \"#utility.yul\":4623:4625   */\n      0x40\n        /* \"#utility.yul\":4608:4626   */\n      swap1\n      swap3\n      add\n        /* \"#utility.yul\":4595:4627   */\n      calldataload\n      swap2\n        /* \"#utility.yul\":4193:4659   */\n      swap1\n      pop\n      jump\t// out\n        /* \"#utility.yul\":4664:4953   */\n    tag_244:\n        /* \"#utility.yul\":4706:4709   */\n      0x00\n        /* \"#utility.yul\":4744:4749   */\n      dup2\n        /* \"#utility.yul\":4738:4750   */\n      mload\n        /* \"#utility.yul\":4771:4777   */\n      dup1\n        /* \"#utility.yul\":4766:4769   */\n      dup5\n        /* \"#utility.yul\":4759:4778   */\n      mstore\n        /* \"#utility.yul\":4827:4833   */\n      dup1\n        /* \"#utility.yul\":4820:4824   */\n      0x20\n        /* \"#utility.yul\":4813:4818   */\n      dup5\n        /* \"#utility.yul\":4809:4825   */\n      add\n        /* \"#utility.yul\":4802:4806   */\n      0x20\n        /* \"#utility.yul\":4797:4800   */\n      dup7\n        /* \"#utility.yul\":4793:4807   */\n      add\n        /* \"#utility.yul\":4787:4834   */\n      mcopy\n        /* \"#utility.yul\":4879:4880   */\n      0x00\n        /* \"#utility.yul\":4872:4876   */\n      0x20\n        /* \"#utility.yul\":4863:4869   */\n      dup3\n        /* \"#utility.yul\":4858:4861   */\n      dup7\n        /* \"#utility.yul\":4854:4870   */\n      add\n        /* \"#utility.yul\":4850:4877   */\n      add\n        /* \"#utility.yul\":4843:4881   */\n      mstore\n        /* \"#utility.yul\":4942:4946   */\n      0x20\n        /* \"#utility.yul\":4935:4937   */\n      0x1f\n        /* \"#utility.yul\":4931:4938   */\n      not\n        /* \"#utility.yul\":4926:4928   */\n      0x1f\n        /* \"#utility.yul\":4918:4924   */\n      dup4\n        /* \"#utility.yul\":4914:4929   */\n      add\n        /* \"#utility.yul\":4910:4939   */\n      and\n        /* \"#utility.yul\":4905:4908   */\n      dup6\n        /* \"#utility.yul\":4901:4940   */\n      add\n        /* \"#utility.yul\":4897:4947   */\n      add\n        /* \"#utility.yul\":4890:4947   */\n      swap2\n      pop\n      pop\n        /* \"#utility.yul\":4664:4953   */\n      swap3\n      swap2\n      pop\n      pop\n      jump\t// out\n        /* \"#utility.yul\":4958:5085   */\n    tag_159:\n        /* \"#utility.yul\":5019:5029   */\n      0x4e487b71\n        /* \"#utility.yul\":5014:5017   */\n      0xe0\n        /* \"#utility.yul\":5010:5030   */\n      shl\n        /* \"#utility.yul\":5007:5008   */\n      0x00\n        /* \"#utility.yul\":5000:5031   */\n      mstore\n        /* \"#utility.yul\":5050:5054   */\n      0x21\n        /* \"#utility.yul\":5047:5048   */\n      0x04\n        /* \"#utility.yul\":5040:5055   */\n      mstore\n        /* \"#utility.yul\":5074:5078   */\n      0x24\n        /* \"#utility.yul\":5071:5072   */\n      0x00\n        /* \"#utility.yul\":5064:5079   */\n      revert\n        /* \"#utility.yul\":5090:5328   */\n    tag_245:\n        /* \"#utility.yul\":5172:5173   */\n      0x04\n        /* \"#utility.yul\":5165:5170   */\n      dup2\n        /* \"#utility.yul\":5162:5174   */\n      lt\n        /* \"#utility.yul\":5152:5295   */\n      tag_287\n      jumpi\n        /* \"#utility.yul\":5217:5227   */\n      0x4e487b71\n        /* \"#utility.yul\":5212:5215   */\n      0xe0\n        /* \"#utility.yul\":5208:5228   */\n      shl\n        /* \"#utility.yul\":5205:5206   */\n      0x00\n        /* \"#utility.yul\":5198:5229   */\n      mstore\n        /* \"#utility.yul\":5252:5256   */\n      0x21\n        /* \"#utility.yul\":5249:5250   */\n      0x04\n        /* \"#utility.yul\":5242:5257   */\n      mstore\n        /* \"#utility.yul\":5280:5284   */\n      0x24\n        /* \"#utility.yul\":5277:5278   */\n      0x00\n        /* \"#utility.yul\":5270:5285   */\n      revert\n        /* \"#utility.yul\":5152:5295   */\n    tag_287:\n        /* \"#utility.yul\":5304:5322   */\n      swap1\n      mstore\n        /* \"#utility.yul\":5090:5328   */\n      jump\t// out\n        /* \"#utility.yul\":5333:6715   */\n    tag_57:\n      sub(shl(0x40, 0x01), 0x01)\n        /* \"#utility.yul\":5859:5890   */\n      dup15\n      and\n        /* \"#utility.yul\":5841:5891   */\n      dup2\n      mstore\n      sub(shl(0xa0, 0x01), 0x01)\n        /* \"#utility.yul\":1412:1466   */\n      dup14\n      and\n        /* \"#utility.yul\":5942:5944   */\n      0x20\n        /* \"#utility.yul\":5927:5945   */\n      dup3\n      add\n        /* \"#utility.yul\":1400:1467   */\n      mstore\n        /* \"#utility.yul\":5982:5985   */\n      0x01a0\n        /* \"#utility.yul\":5977:5979   */\n      0x40\n        /* \"#utility.yul\":5966:5975   */\n      dup3\n        /* \"#utility.yul\":5962:5980   */\n      add\n        /* \"#utility.yul\":5955:5986   */\n      mstore\n        /* \"#utility.yul\":5822:5826   */\n      0x00\n        /* \"#utility.yul\":6009:6055   */\n      tag_290\n        /* \"#utility.yul\":6050:6053   */\n      0x01a0\n        /* \"#utility.yul\":6039:6048   */\n      dup4\n        /* \"#utility.yul\":6035:6054   */\n      add\n        /* \"#utility.yul\":6027:6033   */\n      dup15\n        /* \"#utility.yul\":6009:6055   */\n      tag_244\n      jump\t// in\n    tag_290:\n        /* \"#utility.yul\":1757:1767   */\n      0xffffffff\n        /* \"#utility.yul\":1746:1768   */\n      dup14\n      and\n        /* \"#utility.yul\":6105:6107   */\n      0x60\n        /* \"#utility.yul\":6090:6108   */\n      dup5\n      add\n        /* \"#utility.yul\":1734:1769   */\n      mstore\n        /* \"#utility.yul\":6146:6152   */\n      dup12\n        /* \"#utility.yul\":6140:6143   */\n      0x80\n        /* \"#utility.yul\":6129:6138   */\n      dup5\n        /* \"#utility.yul\":6125:6144   */\n      add\n        /* \"#utility.yul\":6118:6153   */\n      mstore\n        /* \"#utility.yul\":6162:6217   */\n      tag_292\n        /* \"#utility.yul\":6212:6215   */\n      0xa0\n        /* \"#utility.yul\":6201:6210   */\n      dup5\n        /* \"#utility.yul\":6197:6216   */\n      add\n        /* \"#utility.yul\":6189:6195   */\n      dup13\n        /* \"#utility.yul\":6162:6217   */\n      tag_245\n      jump\t// in\n    tag_292:\n      sub(shl(0xa0, 0x01), 0x01)\n        /* \"#utility.yul\":1412:1466   */\n      dup11\n      and\n        /* \"#utility.yul\":6268:6271   */\n      0xc0\n        /* \"#utility.yul\":6253:6272   */\n      dup5\n      add\n        /* \"#utility.yul\":1400:1467   */\n      mstore\n        /* \"#utility.yul\":1757:1767   */\n      0xffffffff\n        /* \"#utility.yul\":1746:1768   */\n      dup10\n      and\n        /* \"#utility.yul\":6323:6326   */\n      0xe0\n        /* \"#utility.yul\":6308:6327   */\n      dup5\n      add\n        /* \"#utility.yul\":1734:1769   */\n      mstore\n        /* \"#utility.yul\":6377:6386   */\n      dup3\n        /* \"#utility.yul\":6369:6375   */\n      dup2\n        /* \"#utility.yul\":6365:6387   */\n      sub\n        /* \"#utility.yul\":6359:6362   */\n      0x0100\n        /* \"#utility.yul\":6348:6357   */\n      dup5\n        /* \"#utility.yul\":6344:6363   */\n      add\n        /* \"#utility.yul\":6337:6388   */\n      mstore\n        /* \"#utility.yul\":6411:6444   */\n      tag_295\n        /* \"#utility.yul\":6437:6443   */\n      dup2\n        /* \"#utility.yul\":6429:6435   */\n      dup10\n        /* \"#utility.yul\":6411:6444   */\n      tag_244\n      jump\t// in\n    tag_295:\n      sub(shl(0x40, 0x01), 0x01)\n        /* \"#utility.yul\":1543:1573   */\n      dup9\n      and\n        /* \"#utility.yul\":6494:6497   */\n      0x0120\n        /* \"#utility.yul\":6479:6498   */\n      dup6\n      add\n        /* \"#utility.yul\":1531:1574   */\n      mstore\n        /* \"#utility.yul\":6397:6444   */\n      swap1\n      pop\n        /* \"#utility.yul\":6536:6543   */\n      dup6\n        /* \"#utility.yul\":6530:6533   */\n      0x0140\n        /* \"#utility.yul\":6519:6528   */\n      dup5\n        /* \"#utility.yul\":6515:6534   */\n      add\n        /* \"#utility.yul\":6508:6544   */\n      mstore\n        /* \"#utility.yul\":6593:6602   */\n      dup3\n        /* \"#utility.yul\":6585:6591   */\n      dup2\n        /* \"#utility.yul\":6581:6603   */\n      sub\n        /* \"#utility.yul\":6575:6578   */\n      0x0160\n        /* \"#utility.yul\":6564:6573   */\n      dup5\n        /* \"#utility.yul\":6560:6579   */\n      add\n        /* \"#utility.yul\":6553:6604   */\n      mstore\n        /* \"#utility.yul\":6621:6655   */\n      tag_297\n        /* \"#utility.yul\":6648:6654   */\n      dup2\n        /* \"#utility.yul\":6639:6646   */\n      dup7\n        /* \"#utility.yul\":6621:6655   */\n      tag_244\n      jump\t// in\n    tag_297:\n        /* \"#utility.yul\":6613:6655   */\n      swap2\n      pop\n      pop\n        /* \"#utility.yul\":6664:6709   */\n      tag_298\n        /* \"#utility.yul\":6704:6707   */\n      0x0180\n        /* \"#utility.yul\":6693:6702   */\n      dup4\n        /* \"#utility.yul\":6689:6708   */\n      add\n        /* \"#utility.yul\":6680:6687   */\n      dup5\n        /* \"#utility.yul\":1655:1668   */\n      iszero\n        /* \"#utility.yul\":1648:1669   */\n      iszero\n        /* \"#utility.yul\":1636:1670   */\n      swap1\n      mstore\n        /* \"#utility.yul\":1585:1676   */\n      jump\n        /* \"#utility.yul\":6664:6709   */\n    tag_298:\n        /* \"#utility.yul\":5333:6715   */\n      swap15\n      swap14\n      pop\n      pop\n      pop\n      pop\n      pop\n      pop\n      pop\n      pop\n      pop\n      pop\n      pop\n      pop\n      pop\n      pop\n      jump\t// out\n        /* \"#utility.yul\":6951:7249   */\n    tag_64:\n        /* \"#utility.yul\":7018:7024   */\n      0x00\n        /* \"#utility.yul\":7026:7032   */\n      dup1\n        /* \"#utility.yul\":7079:7081   */\n      0x40\n        /* \"#utility.yul\":7067:7076   */\n      dup4\n        /* \"#utility.yul\":7058:7065   */\n      dup6\n        /* \"#utility.yul\":7054:7077   */\n      sub\n        /* \"#utility.yul\":7050:7082   */\n      slt\n        /* \"#utility.yul\":7047:7099   */\n      iszero\n      tag_301\n      jumpi\n        /* \"#utility.yul\":7095:7096   */\n      0x00\n        /* \"#utility.yul\":7092:7093   */\n      dup1\n        /* \"#utility.yul\":7085:7097   */\n      revert\n        /* \"#utility.yul\":7047:7099   */\n    tag_301:\n        /* \"#utility.yul\":7140:7163   */\n      dup3\n      calldataload\n      swap2\n      pop\n        /* \"#utility.yul\":7206:7243   */\n      tag_302\n        /* \"#utility.yul\":7239:7241   */\n      0x20\n        /* \"#utility.yul\":7224:7242   */\n      dup5\n      add\n        /* \"#utility.yul\":7206:7243   */\n      tag_243\n      jump\t// in\n    tag_302:\n        /* \"#utility.yul\":7196:7243   */\n      swap1\n      pop\n        /* \"#utility.yul\":6951:7249   */\n      swap3\n      pop\n      swap3\n      swap1\n      pop\n      jump\t// out\n        /* \"#utility.yul\":7254:7563   */\n    tag_80:\n        /* \"#utility.yul\":7313:7319   */\n      0x00\n        /* \"#utility.yul\":7366:7368   */\n      0x20\n        /* \"#utility.yul\":7354:7363   */\n      dup3\n        /* \"#utility.yul\":7345:7352   */\n      dup5\n        /* \"#utility.yul\":7341:7364   */\n      sub\n        /* \"#utility.yul\":7337:7369   */\n      slt\n        /* \"#utility.yul\":7334:7386   */\n      iszero\n      tag_304\n      jumpi\n        /* \"#utility.yul\":7382:7383   */\n      0x00\n        /* \"#utility.yul\":7379:7380   */\n      dup1\n        /* \"#utility.yul\":7372:7384   */\n      revert\n        /* \"#utility.yul\":7334:7386   */\n    tag_304:\n        /* \"#utility.yul\":7421:7430   */\n      dup2\n        /* \"#utility.yul\":7408:7431   */\n      calldataload\n      sub(shl(0xa0, 0x01), 0x01)\n        /* \"#utility.yul\":7464:7469   */\n      dup2\n        /* \"#utility.yul\":7460:7514   */\n      and\n        /* \"#utility.yul\":7453:7458   */\n      dup2\n        /* \"#utility.yul\":7450:7515   */\n      eq\n        /* \"#utility.yul\":7440:7533   */\n      tag_305\n      jumpi\n        /* \"#utility.yul\":7529:7530   */\n      0x00\n        /* \"#utility.yul\":7526:7527   */\n      dup1\n        /* \"#utility.yul\":7519:7531   */\n      revert\n        /* \"#utility.yul\":7440:7533   */\n    tag_305:\n        /* \"#utility.yul\":7552:7557   */\n      swap4\n        /* \"#utility.yul\":7254:7563   */\n      swap3\n      pop\n      pop\n      pop\n      jump\t// out\n        /* \"#utility.yul\":7568:7695   */\n    tag_246:\n        /* \"#utility.yul\":7629:7639   */\n      0x4e487b71\n        /* \"#utility.yul\":7624:7627   */\n      0xe0\n        /* \"#utility.yul\":7620:7640   */\n      shl\n        /* \"#utility.yul\":7617:7618   */\n      0x00\n        /* \"#utility.yul\":7610:7641   */\n      mstore\n        /* \"#utility.yul\":7660:7664   */\n      0x11\n        /* \"#utility.yul\":7657:7658   */\n      0x04\n        /* \"#utility.yul\":7650:7665   */\n      mstore\n        /* \"#utility.yul\":7684:7688   */\n      0x24\n        /* \"#utility.yul\":7681:7682   */\n      0x00\n        /* \"#utility.yul\":7674:7689   */\n      revert\n        /* \"#utility.yul\":7700:7835   */\n    tag_84:\n        /* \"#utility.yul\":7739:7742   */\n      0x00\n        /* \"#utility.yul\":7760:7777   */\n      0x01\n      dup3\n      add\n        /* \"#utility.yul\":7757:7800   */\n      tag_309\n      jumpi\n        /* \"#utility.yul\":7780:7798   */\n      tag_309\n      tag_246\n      jump\t// in\n    tag_309:\n      pop\n        /* \"#utility.yul\":7827:7828   */\n      0x01\n        /* \"#utility.yul\":7816:7829   */\n      add\n      swap1\n        /* \"#utility.yul\":7700:7835   */\n      jump\t// out\n        /* \"#utility.yul\":7840:7967   */\n    tag_247:\n        /* \"#utility.yul\":7901:7911   */\n      0x4e487b71\n        /* \"#utility.yul\":7896:7899   */\n      0xe0\n        /* \"#utility.yul\":7892:7912   */\n      shl\n        /* \"#utility.yul\":7889:7890   */\n      0x00\n        /* \"#utility.yul\":7882:7913   */\n      mstore\n        /* \"#utility.yul\":7932:7936   */\n      0x41\n        /* \"#utility.yul\":7929:7930   */\n      0x04\n        /* \"#utility.yul\":7922:7937   */\n      mstore\n        /* \"#utility.yul\":7956:7960   */\n      0x24\n        /* \"#utility.yul\":7953:7954   */\n      0x00\n        /* \"#utility.yul\":7946:7961   */\n      revert\n        /* \"#utility.yul\":7972:8247   */\n    tag_248:\n        /* \"#utility.yul\":8043:8045   */\n      0x40\n        /* \"#utility.yul\":8037:8046   */\n      mload\n        /* \"#utility.yul\":8108:8110   */\n      0x1f\n        /* \"#utility.yul\":8089:8102   */\n      dup3\n      add\n      not(0x1f)\n        /* \"#utility.yul\":8085:8112   */\n      and\n        /* \"#utility.yul\":8073:8113   */\n      dup2\n      add\n      sub(shl(0x40, 0x01), 0x01)\n        /* \"#utility.yul\":8128:8162   */\n      dup2\n      gt\n        /* \"#utility.yul\":8164:8186   */\n      dup3\n      dup3\n      lt\n        /* \"#utility.yul\":8125:8187   */\n      or\n        /* \"#utility.yul\":8122:8210   */\n      iszero\n      tag_313\n      jumpi\n        /* \"#utility.yul\":8190:8208   */\n      tag_313\n      tag_247\n      jump\t// in\n    tag_313:\n        /* \"#utility.yul\":8226:8228   */\n      0x40\n        /* \"#utility.yul\":8219:8241   */\n      mstore\n        /* \"#utility.yul\":7972:8247   */\n      swap2\n      swap1\n      pop\n      jump\t// out\n        /* \"#utility.yul\":8252:9620   */\n    tag_86:\n        /* \"#utility.yul\":8390:8399   */\n      0x00\n      sub(shl(0x40, 0x01), 0x01)\n        /* \"#utility.yul\":8420:8426   */\n      dup4\n        /* \"#utility.yul\":8417:8447   */\n      gt\n        /* \"#utility.yul\":8414:8470   */\n      iszero\n      tag_316\n      jumpi\n        /* \"#utility.yul\":8450:8468   */\n      tag_316\n      tag_247\n      jump\t// in\n    tag_316:\n        /* \"#utility.yul\":8496:8502   */\n      dup3\n        /* \"#utility.yul\":8493:8494   */\n      0x05\n        /* \"#utility.yul\":8489:8503   */\n      shl\n        /* \"#utility.yul\":8523:8553   */\n      tag_317\n        /* \"#utility.yul\":8547:8551   */\n      0x20\n        /* \"#utility.yul\":8543:8545   */\n      dup3\n        /* \"#utility.yul\":8539:8552   */\n      add\n        /* \"#utility.yul\":8523:8553   */\n      tag_248\n      jump\t// in\n    tag_317:\n        /* \"#utility.yul\":8587:8606   */\n      dup5\n      dup2\n      mstore\n        /* \"#utility.yul\":8659:8673   */\n      swap1\n      dup4\n      add\n      swap1\n        /* \"#utility.yul\":8631:8635   */\n      0x20\n        /* \"#utility.yul\":8622:8636   */\n      dup2\n      add\n      swap1\n        /* \"#utility.yul\":8696:8710   */\n      calldatasize\n        /* \"#utility.yul\":8685:8711   */\n      dup4\n      gt\n        /* \"#utility.yul\":8682:8728   */\n      iszero\n      tag_318\n      jumpi\n        /* \"#utility.yul\":8724:8725   */\n      0x00\n        /* \"#utility.yul\":8721:8722   */\n      dup1\n        /* \"#utility.yul\":8714:8726   */\n      revert\n        /* \"#utility.yul\":8682:8728   */\n    tag_318:\n        /* \"#utility.yul\":8748:8753   */\n      dup5\n        /* \"#utility.yul\":8762:9587   */\n    tag_319:\n        /* \"#utility.yul\":8778:8784   */\n      dup4\n        /* \"#utility.yul\":8773:8776   */\n      dup2\n        /* \"#utility.yul\":8770:8785   */\n      lt\n        /* \"#utility.yul\":8762:9587   */\n      iszero\n      tag_321\n      jumpi\n        /* \"#utility.yul\":8866:8869   */\n      dup1\n        /* \"#utility.yul\":8853:8870   */\n      calldataload\n      sub(shl(0x40, 0x01), 0x01)\n        /* \"#utility.yul\":8889:8900   */\n      dup2\n        /* \"#utility.yul\":8886:8921   */\n      gt\n        /* \"#utility.yul\":8883:8938   */\n      iszero\n      tag_322\n      jumpi\n        /* \"#utility.yul\":8934:8935   */\n      0x00\n        /* \"#utility.yul\":8931:8932   */\n      dup1\n        /* \"#utility.yul\":8924:8936   */\n      revert\n        /* \"#utility.yul\":8883:8938   */\n    tag_322:\n        /* \"#utility.yul\":8961:8984   */\n      dup7\n      add\n        /* \"#utility.yul\":9026:9040   */\n      calldatasize\n        /* \"#utility.yul\":9019:9023   */\n      0x1f\n        /* \"#utility.yul\":9011:9024   */\n      dup3\n      add\n        /* \"#utility.yul\":9007:9041   */\n      slt\n        /* \"#utility.yul\":8997:9059   */\n      tag_323\n      jumpi\n        /* \"#utility.yul\":9055:9056   */\n      0x00\n        /* \"#utility.yul\":9052:9053   */\n      dup1\n        /* \"#utility.yul\":9045:9057   */\n      revert\n        /* \"#utility.yul\":8997:9059   */\n    tag_323:\n        /* \"#utility.yul\":9101:9103   */\n      dup1\n        /* \"#utility.yul\":9088:9104   */\n      calldataload\n      sub(shl(0x40, 0x01), 0x01)\n        /* \"#utility.yul\":9123:9131   */\n      dup2\n        /* \"#utility.yul\":9120:9152   */\n      gt\n        /* \"#utility.yul\":9117:9175   */\n      iszero\n      tag_325\n      jumpi\n        /* \"#utility.yul\":9155:9173   */\n      tag_325\n      tag_247\n      jump\t// in\n    tag_325:\n        /* \"#utility.yul\":9203:9264   */\n      tag_326\n        /* \"#utility.yul\":9252:9254   */\n      0x1f\n        /* \"#utility.yul\":9227:9246   */\n      dup3\n      add\n      not(0x1f)\n        /* \"#utility.yul\":9223:9256   */\n      and\n        /* \"#utility.yul\":9258:9262   */\n      0x20\n        /* \"#utility.yul\":9219:9263   */\n      add\n        /* \"#utility.yul\":9203:9264   */\n      tag_248\n      jump\t// in\n    tag_326:\n        /* \"#utility.yul\":9293:9301   */\n      dup2\n        /* \"#utility.yul\":9284:9291   */\n      dup2\n        /* \"#utility.yul\":9277:9302   */\n      mstore\n        /* \"#utility.yul\":9351:9365   */\n      calldatasize\n        /* \"#utility.yul\":9344:9348   */\n      0x20\n        /* \"#utility.yul\":9333:9341   */\n      dup4\n        /* \"#utility.yul\":9329:9331   */\n      dup6\n        /* \"#utility.yul\":9325:9342   */\n      add\n        /* \"#utility.yul\":9321:9349   */\n      add\n        /* \"#utility.yul\":9318:9366   */\n      gt\n        /* \"#utility.yul\":9315:9383   */\n      iszero\n      tag_327\n      jumpi\n        /* \"#utility.yul\":9379:9380   */\n      0x00\n        /* \"#utility.yul\":9376:9377   */\n      dup1\n        /* \"#utility.yul\":9369:9381   */\n      revert\n        /* \"#utility.yul\":9315:9383   */\n    tag_327:\n        /* \"#utility.yul\":9444:9452   */\n      dup2\n        /* \"#utility.yul\":9437:9441   */\n      0x20\n        /* \"#utility.yul\":9433:9435   */\n      dup5\n        /* \"#utility.yul\":9429:9442   */\n      add\n        /* \"#utility.yul\":9422:9426   */\n      0x20\n        /* \"#utility.yul\":9413:9420   */\n      dup4\n        /* \"#utility.yul\":9409:9427   */\n      add\n        /* \"#utility.yul\":9396:9453   */\n      calldatacopy\n        /* \"#utility.yul\":9508:9509   */\n      0x00\n        /* \"#utility.yul\":9501:9505   */\n      0x20\n        /* \"#utility.yul\":9490:9498   */\n      dup4\n        /* \"#utility.yul\":9481:9488   */\n      dup4\n        /* \"#utility.yul\":9477:9499   */\n      add\n        /* \"#utility.yul\":9473:9506   */\n      add\n        /* \"#utility.yul\":9466:9510   */\n      mstore\n        /* \"#utility.yul\":9535:9542   */\n      dup1\n        /* \"#utility.yul\":9530:9533   */\n      dup7\n        /* \"#utility.yul\":9523:9543   */\n      mstore\n      pop\n      pop\n      pop\n        /* \"#utility.yul\":9572:9576   */\n      0x20\n        /* \"#utility.yul\":9567:9570   */\n      dup4\n        /* \"#utility.yul\":9563:9577   */\n      add\n        /* \"#utility.yul\":9556:9577   */\n      swap3\n      pop\n        /* \"#utility.yul\":8804:8808   */\n      0x20\n        /* \"#utility.yul\":8799:8802   */\n      dup2\n        /* \"#utility.yul\":8795:8809   */\n      add\n        /* \"#utility.yul\":8788:8809   */\n      swap1\n      pop\n        /* \"#utility.yul\":8762:9587   */\n      jump(tag_319)\n    tag_321:\n      pop\n        /* \"#utility.yul\":9609:9614   */\n      swap6\n        /* \"#utility.yul\":8252:9620   */\n      swap5\n      pop\n      pop\n      pop\n      pop\n      pop\n      jump\t// out\n        /* \"#utility.yul\":11433:11813   */\n    tag_120:\n        /* \"#utility.yul\":11512:11513   */\n      0x01\n        /* \"#utility.yul\":11508:11520   */\n      dup2\n      dup2\n      shr\n      swap1\n        /* \"#utility.yul\":11555:11567   */\n      dup3\n      and\n      dup1\n        /* \"#utility.yul\":11576:11637   */\n      tag_334\n      jumpi\n        /* \"#utility.yul\":11630:11634   */\n      0x7f\n        /* \"#utility.yul\":11622:11628   */\n      dup3\n        /* \"#utility.yul\":11618:11635   */\n      and\n        /* \"#utility.yul\":11608:11635   */\n      swap2\n      pop\n        /* \"#utility.yul\":11576:11637   */\n    tag_334:\n        /* \"#utility.yul\":11683:11685   */\n      0x20\n        /* \"#utility.yul\":11675:11681   */\n      dup3\n        /* \"#utility.yul\":11672:11686   */\n      lt\n        /* \"#utility.yul\":11652:11670   */\n      dup2\n        /* \"#utility.yul\":11649:11687   */\n      sub\n        /* \"#utility.yul\":11646:11807   */\n      tag_335\n      jumpi\n        /* \"#utility.yul\":11729:11739   */\n      0x4e487b71\n        /* \"#utility.yul\":11724:11727   */\n      0xe0\n        /* \"#utility.yul\":11720:11740   */\n      shl\n        /* \"#utility.yul\":11717:11718   */\n      0x00\n        /* \"#utility.yul\":11710:11741   */\n      mstore\n        /* \"#utility.yul\":11764:11768   */\n      0x22\n        /* \"#utility.yul\":11761:11762   */\n      0x04\n        /* \"#utility.yul\":11754:11769   */\n      mstore\n        /* \"#utility.yul\":11792:11796   */\n      0x24\n        /* \"#utility.yul\":11789:11790   */\n      0x00\n        /* \"#utility.yul\":11782:11797   */\n      revert\n        /* \"#utility.yul\":11646:11807   */\n    tag_335:\n      pop\n        /* \"#utility.yul\":11433:11813   */\n      swap2\n      swap1\n      pop\n      jump\t// out\n        /* \"#utility.yul\":12943:13461   */\n    tag_250:\n        /* \"#utility.yul\":13045:13047   */\n      0x1f\n        /* \"#utility.yul\":13040:13043   */\n      dup3\n        /* \"#utility.yul\":13037:13048   */\n      gt\n        /* \"#utility.yul\":13034:13455   */\n      iszero\n      tag_186\n      jumpi\n        /* \"#utility.yul\":13081:13086   */\n      dup1\n        /* \"#utility.yul\":13078:13079   */\n      0x00\n        /* \"#utility.yul\":13071:13087   */\n      mstore\n        /* \"#utility.yul\":13125:13129   */\n      0x20\n        /* \"#utility.yul\":13122:13123   */\n      0x00\n        /* \"#utility.yul\":13112:13130   */\n      keccak256\n        /* \"#utility.yul\":13195:13197   */\n      0x1f\n        /* \"#utility.yul\":13183:13193   */\n      dup5\n        /* \"#utility.yul\":13179:13198   */\n      add\n        /* \"#utility.yul\":13176:13177   */\n      0x05\n        /* \"#utility.yul\":13172:13199   */\n      shr\n        /* \"#utility.yul\":13166:13170   */\n      dup2\n        /* \"#utility.yul\":13162:13200   */\n      add\n        /* \"#utility.yul\":13231:13235   */\n      0x20\n        /* \"#utility.yul\":13219:13229   */\n      dup6\n        /* \"#utility.yul\":13216:13236   */\n      lt\n        /* \"#utility.yul\":13213:13260   */\n      iszero\n      tag_342\n      jumpi\n      pop\n        /* \"#utility.yul\":13254:13258   */\n      dup1\n        /* \"#utility.yul\":13213:13260   */\n    tag_342:\n        /* \"#utility.yul\":13309:13311   */\n      0x1f\n        /* \"#utility.yul\":13304:13307   */\n      dup5\n        /* \"#utility.yul\":13300:13312   */\n      add\n        /* \"#utility.yul\":13297:13298   */\n      0x05\n        /* \"#utility.yul\":13293:13313   */\n      shr\n        /* \"#utility.yul\":13287:13291   */\n      dup3\n        /* \"#utility.yul\":13283:13314   */\n      add\n        /* \"#utility.yul\":13273:13314   */\n      swap2\n      pop\n        /* \"#utility.yul\":13364:13445   */\n    tag_343:\n        /* \"#utility.yul\":13382:13384   */\n      dup2\n        /* \"#utility.yul\":13375:13380   */\n      dup2\n        /* \"#utility.yul\":13372:13385   */\n      lt\n        /* \"#utility.yul\":13364:13445   */\n      iszero\n      tag_345\n      jumpi\n        /* \"#utility.yul\":13441:13442   */\n      0x00\n        /* \"#utility.yul\":13427:13443   */\n      dup2\n      sstore\n        /* \"#utility.yul\":13408:13409   */\n      0x01\n        /* \"#utility.yul\":13397:13410   */\n      add\n        /* \"#utility.yul\":13364:13445   */\n      jump(tag_343)\n    tag_345:\n        /* \"#utility.yul\":13368:13371   */\n      pop\n      pop\n        /* \"#utility.yul\":12943:13461   */\n      pop\n      pop\n      pop\n      jump\t// out\n        /* \"#utility.yul\":13637:14936   */\n    tag_161:\n        /* \"#utility.yul\":13763:13766   */\n      dup2\n        /* \"#utility.yul\":13757:13767   */\n      mload\n      sub(shl(0x40, 0x01), 0x01)\n        /* \"#utility.yul\":13782:13788   */\n      dup2\n        /* \"#utility.yul\":13779:13809   */\n      gt\n        /* \"#utility.yul\":13776:13832   */\n      iszero\n      tag_349\n      jumpi\n        /* \"#utility.yul\":13812:13830   */\n      tag_349\n      tag_247\n      jump\t// in\n    tag_349:\n        /* \"#utility.yul\":13841:13938   */\n      tag_350\n        /* \"#utility.yul\":13931:13937   */\n      dup2\n        /* \"#utility.yul\":13891:13929   */\n      tag_351\n        /* \"#utility.yul\":13923:13927   */\n      dup5\n        /* \"#utility.yul\":13917:13928   */\n      sload\n        /* \"#utility.yul\":13891:13929   */\n      tag_120\n      jump\t// in\n    tag_351:\n        /* \"#utility.yul\":13885:13889   */\n      dup5\n        /* \"#utility.yul\":13841:13938   */\n      tag_250\n      jump\t// in\n    tag_350:\n        /* \"#utility.yul\":13987:13991   */\n      0x20\n        /* \"#utility.yul\":14018:14020   */\n      0x1f\n        /* \"#utility.yul\":14007:14021   */\n      dup3\n      gt\n        /* \"#utility.yul\":14035:14036   */\n      0x01\n        /* \"#utility.yul\":14030:14679   */\n      dup2\n      eq\n      tag_353\n      jumpi\n        /* \"#utility.yul\":14723:14724   */\n      0x00\n        /* \"#utility.yul\":14740:14746   */\n      dup4\n        /* \"#utility.yul\":14737:14826   */\n      iszero\n      tag_354\n      jumpi\n      pop\n        /* \"#utility.yul\":14792:14811   */\n      dup5\n      dup3\n      add\n        /* \"#utility.yul\":14786:14812   */\n      mload\n        /* \"#utility.yul\":14737:14826   */\n    tag_354:\n      not(0x00)\n        /* \"#utility.yul\":13594:13595   */\n      0x03\n        /* \"#utility.yul\":13590:13601   */\n      dup6\n      swap1\n      shl\n        /* \"#utility.yul\":13586:13610   */\n      shr\n        /* \"#utility.yul\":13582:13611   */\n      not\n        /* \"#utility.yul\":13572:13612   */\n      and\n        /* \"#utility.yul\":13618:13619   */\n      0x01\n        /* \"#utility.yul\":13614:13625   */\n      dup5\n      swap1\n      shl\n        /* \"#utility.yul\":13569:13626   */\n      or\n        /* \"#utility.yul\":14839:14920   */\n      dup5\n      sstore\n        /* \"#utility.yul\":14000:14930   */\n      jump(tag_345)\n        /* \"#utility.yul\":14030:14679   */\n    tag_353:\n        /* \"#utility.yul\":12890:12891   */\n      0x00\n        /* \"#utility.yul\":12883:12897   */\n      dup5\n      dup2\n      mstore\n        /* \"#utility.yul\":12927:12931   */\n      0x20\n        /* \"#utility.yul\":12914:12932   */\n      dup2\n      keccak256\n      not(0x1f)\n        /* \"#utility.yul\":14066:14086   */\n      dup6\n      and\n      swap2\n        /* \"#utility.yul\":14184:14406   */\n    tag_357:\n        /* \"#utility.yul\":14198:14205   */\n      dup3\n        /* \"#utility.yul\":14195:14196   */\n      dup2\n        /* \"#utility.yul\":14192:14206   */\n      lt\n        /* \"#utility.yul\":14184:14406   */\n      iszero\n      tag_359\n      jumpi\n        /* \"#utility.yul\":14280:14299   */\n      dup8\n      dup6\n      add\n        /* \"#utility.yul\":14274:14300   */\n      mload\n        /* \"#utility.yul\":14259:14301   */\n      dup3\n      sstore\n        /* \"#utility.yul\":14387:14391   */\n      0x20\n        /* \"#utility.yul\":14372:14392   */\n      swap5\n      dup6\n      add\n      swap5\n        /* \"#utility.yul\":14340:14341   */\n      0x01\n        /* \"#utility.yul\":14328:14342   */\n      swap1\n      swap3\n      add\n      swap2\n        /* \"#utility.yul\":14214:14226   */\n      add\n        /* \"#utility.yul\":14184:14406   */\n      jump(tag_357)\n    tag_359:\n        /* \"#utility.yul\":14188:14191   */\n      pop\n        /* \"#utility.yul\":14434:14440   */\n      dup5\n        /* \"#utility.yul\":14425:14432   */\n      dup3\n        /* \"#utility.yul\":14422:14441   */\n      lt\n        /* \"#utility.yul\":14419:14620   */\n      iszero\n      tag_360\n      jumpi\n        /* \"#utility.yul\":14495:14514   */\n      dup7\n      dup5\n      add\n        /* \"#utility.yul\":14489:14515   */\n      mload\n      not(0x00)\n        /* \"#utility.yul\":14578:14579   */\n      0x03\n        /* \"#utility.yul\":14574:14588   */\n      dup8\n      swap1\n      shl\n        /* \"#utility.yul\":14590:14593   */\n      0xf8\n        /* \"#utility.yul\":14570:14594   */\n      and\n        /* \"#utility.yul\":14566:14603   */\n      shr\n        /* \"#utility.yul\":14562:14604   */\n      not\n        /* \"#utility.yul\":14547:14605   */\n      and\n        /* \"#utility.yul\":14532:14606   */\n      dup2\n      sstore\n        /* \"#utility.yul\":14419:14620   */\n    tag_360:\n      pop\n      pop\n      pop\n      pop\n        /* \"#utility.yul\":14666:14667   */\n      0x01\n        /* \"#utility.yul\":14650:14664   */\n      swap1\n      dup2\n      shl\n        /* \"#utility.yul\":14646:14668   */\n      add\n        /* \"#utility.yul\":14633:14669   */\n      swap1\n      sstore\n      pop\n        /* \"#utility.yul\":13637:14936   */\n      jump\t// out\n        /* \"#utility.yul\":14941:15109   */\n    tag_177:\n        /* \"#utility.yul\":15014:15023   */\n      dup1\n      dup3\n      mul\n        /* \"#utility.yul\":15045:15054   */\n      dup2\n      iszero\n        /* \"#utility.yul\":15062:15077   */\n      dup3\n      dup3\n      div\n        /* \"#utility.yul\":15056:15078   */\n      dup5\n      eq\n        /* \"#utility.yul\":15042:15079   */\n      or\n        /* \"#utility.yul\":15032:15103   */\n      tag_207\n      jumpi\n        /* \"#utility.yul\":15083:15101   */\n      tag_207\n      tag_246\n      jump\t// in\n        /* \"#utility.yul\":15114:15239   */\n    tag_179:\n        /* \"#utility.yul\":15179:15188   */\n      dup1\n      dup3\n      add\n        /* \"#utility.yul\":15200:15210   */\n      dup1\n      dup3\n      gt\n        /* \"#utility.yul\":15197:15233   */\n      iszero\n      tag_207\n      jumpi\n        /* \"#utility.yul\":15213:15231   */\n      tag_207\n      tag_246\n      jump\t// in\n        /* \"#utility.yul\":15244:15461   */\n    tag_183:\n        /* \"#utility.yul\":15284:15285   */\n      0x00\n        /* \"#utility.yul\":15310:15311   */\n      dup3\n        /* \"#utility.yul\":15300:15432   */\n      tag_368\n      jumpi\n        /* \"#utility.yul\":15354:15364   */\n      0x4e487b71\n        /* \"#utility.yul\":15349:15352   */\n      0xe0\n        /* \"#utility.yul\":15345:15365   */\n      shl\n        /* \"#utility.yul\":15342:15343   */\n      0x00\n        /* \"#utility.yul\":15335:15366   */\n      mstore\n        /* \"#utility.yul\":15389:15393   */\n      0x12\n        /* \"#utility.yul\":15386:15387   */\n      0x04\n        /* \"#utility.yul\":15379:15394   */\n      mstore\n        /* \"#utility.yul\":15417:15421   */\n      0x24\n        /* \"#utility.yul\":15414:15415   */\n      0x00\n        /* \"#utility.yul\":15407:15422   */\n      revert\n        /* \"#utility.yul\":15300:15432   */\n    tag_368:\n      pop\n        /* \"#utility.yul\":15446:15455   */\n      div\n      swap1\n        /* \"#utility.yul\":15244:15461   */\n      jump\t// out\n        /* \"#utility.yul\":15466:15633   */\n    tag_197:\n        /* \"#utility.yul\":15561:15571   */\n      0xffffffff\n        /* \"#utility.yul\":15534:15552   */\n      dup2\n      dup2\n      and\n        /* \"#utility.yul\":15554:15572   */\n      dup4\n      dup3\n      and\n        /* \"#utility.yul\":15530:15573   */\n      add\n      swap1\n        /* \"#utility.yul\":15585:15604   */\n      dup2\n      gt\n        /* \"#utility.yul\":15582:15627   */\n      iszero\n      tag_207\n      jumpi\n        /* \"#utility.yul\":15607:15625   */\n      tag_207\n      tag_246\n      jump\t// in\n        /* \"#utility.yul\":15638:15826   */\n    tag_199:\n        /* \"#utility.yul\":15676:15679   */\n      0x00\n        /* \"#utility.yul\":15720:15730   */\n      0xffffffff\n        /* \"#utility.yul\":15713:15718   */\n      dup3\n        /* \"#utility.yul\":15709:15731   */\n      and\n        /* \"#utility.yul\":15755:15765   */\n      0xffffffff\n        /* \"#utility.yul\":15746:15753   */\n      dup2\n        /* \"#utility.yul\":15743:15766   */\n      sub\n        /* \"#utility.yul\":15740:15789   */\n      tag_374\n      jumpi\n        /* \"#utility.yul\":15769:15787   */\n      tag_374\n      tag_246\n      jump\t// in\n    tag_374:\n        /* \"#utility.yul\":15818:15819   */\n      0x01\n        /* \"#utility.yul\":15805:15820   */\n      add\n      swap3\n        /* \"#utility.yul\":15638:15826   */\n      swap2\n      pop\n      pop\n      jump\t// out\n        /* \"#utility.yul\":15831:16016   */\n    tag_206:\n        /* \"#utility.yul\":15869:15872   */\n      0x00\n        /* \"#utility.yul\":15913:15923   */\n      0xffffffff\n        /* \"#utility.yul\":15906:15911   */\n      dup3\n        /* \"#utility.yul\":15902:15924   */\n      and\n        /* \"#utility.yul\":15943:15950   */\n      dup1\n        /* \"#utility.yul\":15933:15974   */\n      tag_377\n      jumpi\n        /* \"#utility.yul\":15954:15972   */\n      tag_377\n      tag_246\n      jump\t// in\n    tag_377:\n      not(0x00)\n        /* \"#utility.yul\":15990:16010   */\n      add\n      swap3\n        /* \"#utility.yul\":15831:16016   */\n      swap2\n      pop\n      pop\n      jump\t// out\n        /* \"#utility.yul\":16021:16324   */\n    tag_212:\n        /* \"#utility.yul\":16152:16155   */\n      0x00\n        /* \"#utility.yul\":16190:16196   */\n      dup3\n        /* \"#utility.yul\":16184:16197   */\n      mload\n        /* \"#utility.yul\":16236:16242   */\n      dup1\n        /* \"#utility.yul\":16229:16233   */\n      0x20\n        /* \"#utility.yul\":16221:16227   */\n      dup6\n        /* \"#utility.yul\":16217:16234   */\n      add\n        /* \"#utility.yul\":16212:16215   */\n      dup5\n        /* \"#utility.yul\":16206:16243   */\n      mcopy\n        /* \"#utility.yul\":16298:16299   */\n      0x00\n        /* \"#utility.yul\":16262:16278   */\n      swap3\n      add\n        /* \"#utility.yul\":16287:16300   */\n      swap2\n      dup3\n      mstore\n      pop\n        /* \"#utility.yul\":16262:16278   */\n      swap2\n        /* \"#utility.yul\":16021:16324   */\n      swap1\n      pop\n      jump\t// out\n        /* \"#utility.yul\":16329:16456   */\n    tag_215:\n        /* \"#utility.yul\":16390:16400   */\n      0x4e487b71\n        /* \"#utility.yul\":16385:16388   */\n      0xe0\n        /* \"#utility.yul\":16381:16401   */\n      shl\n        /* \"#utility.yul\":16378:16379   */\n      0x00\n        /* \"#utility.yul\":16371:16402   */\n      mstore\n        /* \"#utility.yul\":16421:16425   */\n      0x32\n        /* \"#utility.yul\":16418:16419   */\n      0x04\n        /* \"#utility.yul\":16411:16426   */\n      mstore\n        /* \"#utility.yul\":16445:16449   */\n      0x24\n        /* \"#utility.yul\":16442:16443   */\n      0x00\n        /* \"#utility.yul\":16435:16450   */\n      revert\n        /* \"#utility.yul\":16461:17258   */\n    tag_218:\n        /* \"#utility.yul\":16589:16592   */\n      0x00\n        /* \"#utility.yul\":16618:16619   */\n      dup1\n        /* \"#utility.yul\":16651:16657   */\n      dup4\n        /* \"#utility.yul\":16645:16658   */\n      sload\n        /* \"#utility.yul\":16681:16717   */\n      tag_381\n        /* \"#utility.yul\":16707:16716   */\n      dup2\n        /* \"#utility.yul\":16681:16717   */\n      tag_120\n      jump\t// in\n    tag_381:\n        /* \"#utility.yul\":16748:16749   */\n      0x01\n        /* \"#utility.yul\":16733:16750   */\n      dup3\n      and\n        /* \"#utility.yul\":16759:16892   */\n      dup1\n      iszero\n      tag_383\n      jumpi\n        /* \"#utility.yul\":16906:16907   */\n      0x01\n        /* \"#utility.yul\":16901:17233   */\n      dup2\n      eq\n      tag_384\n      jumpi\n        /* \"#utility.yul\":16726:17233   */\n      jump(tag_382)\n        /* \"#utility.yul\":16759:16892   */\n    tag_383:\n      not(0xff)\n        /* \"#utility.yul\":16792:16816   */\n      dup4\n      and\n        /* \"#utility.yul\":16780:16817   */\n      dup7\n      mstore\n        /* \"#utility.yul\":16865:16879   */\n      dup2\n      iszero\n        /* \"#utility.yul\":16858:16880   */\n      iszero\n        /* \"#utility.yul\":16846:16881   */\n      dup3\n      mul\n        /* \"#utility.yul\":16837:16882   */\n      dup7\n      add\n      swap4\n      pop\n        /* \"#utility.yul\":16759:16892   */\n      jump(tag_382)\n        /* \"#utility.yul\":16901:17233   */\n    tag_384:\n        /* \"#utility.yul\":16932:16938   */\n      dup7\n        /* \"#utility.yul\":16929:16930   */\n      0x00\n        /* \"#utility.yul\":16922:16939   */\n      mstore\n        /* \"#utility.yul\":16980:16984   */\n      0x20\n        /* \"#utility.yul\":16977:16978   */\n      0x00\n        /* \"#utility.yul\":16967:16985   */\n      keccak256\n        /* \"#utility.yul\":17007:17008   */\n      0x00\n        /* \"#utility.yul\":17021:17187   */\n    tag_385:\n        /* \"#utility.yul\":17035:17041   */\n      dup4\n        /* \"#utility.yul\":17032:17033   */\n      dup2\n        /* \"#utility.yul\":17029:17042   */\n      lt\n        /* \"#utility.yul\":17021:17187   */\n      iszero\n      tag_387\n      jumpi\n        /* \"#utility.yul\":17115:17129   */\n      dup2\n      sload\n        /* \"#utility.yul\":17102:17113   */\n      dup9\n      dup3\n      add\n        /* \"#utility.yul\":17095:17130   */\n      mstore\n        /* \"#utility.yul\":17171:17172   */\n      0x01\n        /* \"#utility.yul\":17158:17173   */\n      swap1\n      swap2\n      add\n      swap1\n        /* \"#utility.yul\":17057:17061   */\n      0x20\n        /* \"#utility.yul\":17050:17062   */\n      add\n        /* \"#utility.yul\":17021:17187   */\n      jump(tag_385)\n    tag_387:\n        /* \"#utility.yul\":17025:17028   */\n      pop\n      pop\n        /* \"#utility.yul\":17216:17222   */\n      dup2\n        /* \"#utility.yul\":17211:17214   */\n      dup7\n        /* \"#utility.yul\":17207:17223   */\n      add\n        /* \"#utility.yul\":17200:17223   */\n      swap4\n      pop\n        /* \"#utility.yul\":16726:17233   */\n    tag_382:\n      pop\n        /* \"#utility.yul\":17249:17252   */\n      swap2\n      swap6\n        /* \"#utility.yul\":16461:17258   */\n      swap5\n      pop\n      pop\n      pop\n      pop\n      pop\n      jump\t// out\n\n    auxdata: 0xa264697066735822122034fe8caf1092cb6309429772b181f88f5fb43bebbf571c2bd52860a737d3488864736f6c634300081a0033\n}\n",
				"bytecode": {
					"linkReferences": {},
					"object": "608060405234801561000f575f80fd5b5060405161198a38038061198a83398101604081905261002e916100d5565b338061005357604051631e4fbdf760e01b81525f600482015260240160405180910390fd5b61005c81610086565b5060018055600280546001600160a01b0319166001600160a01b0392909216919091179055610102565b5f80546001600160a01b038381166001600160a01b0319831681178455604051919092169283917f8be0079c531659141344cd1fd0a4f28419497f9722a3daafe3b4186f6b6457e09190a35050565b5f602082840312156100e5575f80fd5b81516001600160a01b03811681146100fb575f80fd5b9392505050565b61187b8061010f5f395ff3fe608060405234801561000f575f80fd5b50600436106100fb575f3560e01c80638d97767211610093578063b6cb58a511610063578063b6cb58a5146102b6578063c25838a2146102bf578063cbabc9ec146102c7578063f2fde38b146102cf575f80fd5b80638d9776721461025e5780638da5cb5b1461028a5780639e23cb8a1461029a578063a809ae60146102ad575f80fd5b80633013ce29116100ce5780633013ce29146102055780635e62be2514610230578063715018a61461024357806388488c331461024b575f80fd5b80630979adca146100ff5780630a3fa24a14610114578063244d6daa1461013057806325db36a8146101f2575b5f80fd5b61011261010d366004611137565b6102e2565b005b61011d60045481565b6040519081526020015b60405180910390f35b61019f61013e3660046111c8565b60066020525f908152604090208054600182015460028301546004909301546001600160a01b03831693600160a01b9093046001600160401b03169260ff81169161010090910463ffffffff90811691818116916401000000009091041687565b604080516001600160a01b0390981688526001600160401b03909616602088015294860193909352901515606085015263ffffffff908116608085015290811660a08401521660c082015260e001610127565b61011261020036600461123b565b610423565b600254610218906001600160a01b031681565b6040516001600160a01b039091168152602001610127565b61011261023e3660046112c3565b6104f5565b6101126105bb565b6101126102593660046111c8565b6105ce565b61027161026c3660046111c8565b6106c1565b6040516101279d9c9b9a9998979695949392919061134e565b5f546001600160a01b0316610218565b6101126102a836600461141d565b6108f5565b61011d610e1081565b61011d60035481565b61011d600a81565b61011d603281565b6101126102dd366004611447565b610a3f565b60048054905f6102f183611488565b909155505060408051610100810182523381526001600160401b0386166020820152908101849052600160608201525f608082015260a0810161033483856114e4565b81525f602080830182905260409283018290526004548252600681529082902083518154858401516001600160401b0316600160a01b026001600160e01b03199091166001600160a01b03909216919091171781559183015160018301556060830151600283018054608086015163ffffffff166101000264ffffffff00199315159390931664ffffffffff199091161791909117905560a083015180516103e29260038501920190611081565b5060c08201516004909101805460e09093015163ffffffff9081166401000000000267ffffffffffffffff1990941692169190911791909117905550505050565b5f83116104885760405162461bcd60e51b815260206004820152602860248201527f5061796d656e7420616d6f756e74206d7573742062652067726561746572207460448201526768616e207a65726f60c01b60648201526084015b60405180910390fd5b60038054905f61049783611488565b91905055506104aa868686868686610a7c565b6003546040805191825233602083015281018490527f6cf53aa7292e664152c2ea948c3b3c95d4b05c36daeb2626d0293473c4a4a153906060015b60405180910390a1505050505050565b5f8381526005602090815260408083208584526006909252909120600281015460ff166105645760405162461bcd60e51b815260206004820152601660248201527f5265736f75726365206e6f7420617661696c61626c6500000000000000000000604482015260640161047f565b5f610570838386610d12565b905061057d838683610e0b565b60408051878152602081018790529081018590527f6e071b3ecca1348e93201ab40ec33e13c163fc1ac7969101e82a6f3e413381c5906060016104e5565b6105c3610e58565b6105cc5f610e84565b565b5f818152600560205260409020600981015460ff16156106305760405162461bcd60e51b815260206004820152601660248201527f5461736b20616c726561647920616c6c6f636174656400000000000000000000604482015260640161047f565b60098101805460ff199081166001179091556006808301546001600160401b03165f90815260209182526040908190206002810180549094169093558254600785015482518781526001600160a01b039092169382019390935280820192909252517ffdbec991c520c476b24bb9ee9123ea146594b230b424c8140b23c33ac59062429181900360600190a1505050565b60056020525f9081526040902080546001820180546001600160401b03831693600160401b9093046001600160a01b03169291906106fe906115c6565b80601f016020809104026020016040519081016040528092919081815260200182805461072a906115c6565b80156107755780601f1061074c57610100808354040283529160200191610775565b820191905f5260205f20905b81548152906001019060200180831161075857829003601f168201915b505050600284015460038501546004860154600587018054969763ffffffff9485169793965060ff831695506001600160a01b0361010084041694600160a81b909304909216926107c5906115c6565b80601f01602080910402602001604051908101604052809291908181526020018280546107f1906115c6565b801561083c5780601f106108135761010080835404028352916020019161083c565b820191905f5260205f20905b81548152906001019060200180831161081f57829003601f168201915b505050506006830154600784015460088501805494956001600160401b03909316949193509061086b906115c6565b80601f0160208091040260200160405190810160405280929190818152602001828054610897906115c6565b80156108e25780601f106108b9576101008083540402835291602001916108e2565b820191905f5260205f20905b8154815290600101906020018083116108c557829003601f168201915b5050506009909301549192505060ff168d565b5f8281526005602090815260408083206006808201546001600160401b03168552909252909120600982015460ff166109655760405162461bcd60e51b815260206004820152601260248201527115185cdac81b9bdd08185b1b1bd8d85d195960721b604482015260640161047f565b60018363ffffffff1610158015610983575060058363ffffffff1611155b6109cf5760405162461bcd60e51b815260206004820152601e60248201527f526174696e67206d757374206265206265747765656e203120616e6420350000604482015260640161047f565b6109d98184610ee0565b6109e38184610f61565b60068201546002820154604080516001600160401b03909316835261010090910463ffffffff1660208301527ea4f8488cd701f9a77136eb5c91d5e2edef3c38001ca7148525acf8a2626481910160405180910390a150505050565b610a47610e58565b6001600160a01b038116610a7057604051631e4fbdf760e01b81525f600482015260240161047f565b610a7981610e84565b50565b604051806101a001604052806003546001600160401b03168152602001336001600160a01b0316815260200187878080601f0160208091040260200160405190810160405280939291908181526020018383808284375f92018290525093855250505063ffffffff871660208301526040820186905260609091019081526020015f6001600160a01b031681526020015f63ffffffff16815260200160405180602001604052805f81525081526020015f6001600160401b031681526020015f815260200183838080601f0160208091040260200160405190810160405280939291908181526020018383808284375f920182905250938552505050602091820181905260035481526005825260409081902083518154938501516001600160a01b0316600160401b026001600160e01b03199094166001600160401b03909116179290921782558201516001820190610bd69082611649565b506060820151816002015f6101000a81548163ffffffff021916908363ffffffff1602179055506080820151816003015560a0820151816004015f6101000a81548160ff02191690836003811115610c3057610c3061131a565b021790555060c082015160048201805460e085015178ffffffffffffffffffffffffffffffffffffffffffffffff00199091166101006001600160a01b03909416840263ffffffff60a81b191617600160a81b63ffffffff909216919091021790558201516005820190610ca49082611649565b5061012082015160068201805467ffffffffffffffff19166001600160401b0390921691909117905561014082015160078201556101608201516008820190610ced9082611649565b5061018091909101516009909101805460ff1916911515919091179055505050505050565b5f80610dab856008018054610d26906115c6565b80601f0160208091040260200160405190810160405280929190818152602001828054610d52906115c6565b8015610d9d5780601f10610d7457610100808354040283529160200191610d9d565b820191905f5260205f20905b815481529060010190602001808311610d8057829003601f168201915b505050505085600301610fec565b610db5575f610db8565b60325b6002850154610dd490600a90610100900463ffffffff16611703565b610dde919061171a565b9050610dec816103e861171a565b610df8846103e8611703565b610e02919061172d565b95945050505050565b60068301546001600160401b03161580610e285750826007015481105b15610e535760068301805467ffffffffffffffff19166001600160401b038416179055600783018190555b505050565b5f546001600160a01b031633146105cc5760405163118cdaa760e01b815233600482015260240161047f565b5f80546001600160a01b0383811673ffffffffffffffffffffffffffffffffffffffff19831681178455604051919092169283917f8be0079c531659141344cd1fd0a4f28419497f9722a3daafe3b4186f6b6457e09190a35050565b6004820180548291905f90610efc90849063ffffffff1661174c565b92506101000a81548163ffffffff021916908363ffffffff16021790555081600401600481819054906101000a900463ffffffff1680929190610f3e90611768565b91906101000a81548163ffffffff021916908363ffffffff160217905550505050565b60038163ffffffff161115610fb257600282810154610f8c9161010090910463ffffffff169061171a565b8260020160016101000a81548163ffffffff021916908363ffffffff1602179055505050565b6002820154600161010090910463ffffffff161115610fe857600282018054610100900463ffffffff16906001610f3e8361178c565b5050565b5f805b8254811015611076578360405160200161100991906117aa565b60405160208183030381529060405280519060200120838281548110611031576110316117c0565b905f5260205f200160405160200161104991906117d4565b604051602081830303815290604052805190602001200361106e57600191505061107b565b600101610fef565b505f90505b92915050565b828054828255905f5260205f209081019282156110c5579160200282015b828111156110c557825182906110b59082611649565b509160200191906001019061109f565b506110d19291506110d5565b5090565b808211156110d1575f6110e882826110f1565b506001016110d5565b5080546110fd906115c6565b5f825580601f1061110c575050565b601f0160209004905f5260205f2090810190610a7991905b808211156110d1575f8155600101611124565b5f805f806060858703121561114a575f80fd5b84356001600160401b0381168114611160575f80fd5b93506020850135925060408501356001600160401b03811115611181575f80fd5b8501601f81018713611191575f80fd5b80356001600160401b038111156111a6575f80fd5b8760208260051b84010111156111ba575f80fd5b949793965060200194505050565b5f602082840312156111d8575f80fd5b5035919050565b5f8083601f8401126111ef575f80fd5b5081356001600160401b03811115611205575f80fd5b60208301915083602082850101111561121c575f80fd5b9250929050565b803563ffffffff81168114611236575f80fd5b919050565b5f805f805f8060808789031215611250575f80fd5b86356001600160401b03811115611265575f80fd5b61127189828a016111df565b9097509550611284905060208801611223565b93506040870135925060608701356001600160401b038111156112a5575f80fd5b6112b189828a016111df565b979a9699509497509295939492505050565b5f805f606084860312156112d5575f80fd5b505081359360208301359350604090920135919050565b5f81518084528060208401602086015e5f602082860101526020601f19601f83011685010191505092915050565b634e487b7160e01b5f52602160045260245ffd5b6004811061134a57634e487b7160e01b5f52602160045260245ffd5b9052565b6001600160401b038e1681526001600160a01b038d1660208201526101a060408201525f6113806101a083018e6112ec565b63ffffffff8d1660608401528b608084015261139f60a084018c61132e565b6001600160a01b038a1660c084015263ffffffff891660e08401528281036101008401526113cd81896112ec565b6001600160401b0388166101208501529050856101408401528281036101608401526113f981866112ec565b91505061140b61018083018415159052565b9e9d5050505050505050505050505050565b5f806040838503121561142e575f80fd5b8235915061143e60208401611223565b90509250929050565b5f60208284031215611457575f80fd5b81356001600160a01b038116811461146d575f80fd5b9392505050565b634e487b7160e01b5f52601160045260245ffd5b5f6001820161149957611499611474565b5060010190565b634e487b7160e01b5f52604160045260245ffd5b604051601f8201601f191681016001600160401b03811182821017156114dc576114dc6114a0565b604052919050565b5f6001600160401b038311156114fc576114fc6114a0565b8260051b61150c602082016114b4565b84815290830190602081019036831115611524575f80fd5b845b838110156115bc5780356001600160401b03811115611543575f80fd5b860136601f820112611553575f80fd5b80356001600160401b0381111561156c5761156c6114a0565b61157f601f8201601f19166020016114b4565b818152366020838501011115611593575f80fd5b816020840160208301375f60208383010152808652505050602083019250602081019050611526565b5095945050505050565b600181811c908216806115da57607f821691505b6020821081036115f857634e487b7160e01b5f52602260045260245ffd5b50919050565b601f821115610e5357805f5260205f20601f840160051c810160208510156116235750805b601f840160051c820191505b81811015611642575f815560010161162f565b5050505050565b81516001600160401b03811115611662576116626114a0565b6116768161167084546115c6565b846115fe565b6020601f8211600181146116a8575f83156116915750848201515b5f19600385901b1c1916600184901b178455611642565b5f84815260208120601f198516915b828110156116d757878501518255602094850194600190920191016116b7565b50848210156116f457868401515f19600387901b60f8161c191681555b50505050600190811b01905550565b808202811582820484141761107b5761107b611474565b8082018082111561107b5761107b611474565b5f8261174757634e487b7160e01b5f52601260045260245ffd5b500490565b63ffffffff818116838216019081111561107b5761107b611474565b5f63ffffffff821663ffffffff810361178357611783611474565b60010192915050565b5f63ffffffff8216806117a1576117a1611474565b5f190192915050565b5f82518060208501845e5f920191825250919050565b634e487b7160e01b5f52603260045260245ffd5b5f8083546117e1816115c6565b6001821680156117f8576001811461180d5761183a565b60ff198316865281151582028601935061183a565b865f5260205f205f5b8381101561183257815488820152600190910190602001611816565b505081860193505b50919594505050505056fea264697066735822122034fe8caf1092cb6309429772b181f88f5fb43bebbf571c2bd52860a737d3488864736f6c634300081a0033",
					"opcodes": "PUSH1 0x80 PUSH1 0x40 MSTORE CALLVALUE DUP1 ISZERO PUSH2 0xF JUMPI PUSH0 DUP1 REVERT JUMPDEST POP PUSH1 0x40 MLOAD PUSH2 0x198A CODESIZE SUB DUP1 PUSH2 0x198A DUP4 CODECOPY DUP2 ADD PUSH1 0x40 DUP2 SWAP1 MSTORE PUSH2 0x2E SWAP2 PUSH2 0xD5 JUMP JUMPDEST CALLER DUP1 PUSH2 0x53 JUMPI PUSH1 0x40 MLOAD PUSH4 0x1E4FBDF7 PUSH1 0xE0 SHL DUP2 MSTORE PUSH0 PUSH1 0x4 DUP3 ADD MSTORE PUSH1 0x24 ADD PUSH1 0x40 MLOAD DUP1 SWAP2 SUB SWAP1 REVERT JUMPDEST PUSH2 0x5C DUP2 PUSH2 0x86 JUMP JUMPDEST POP PUSH1 0x1 DUP1 SSTORE PUSH1 0x2 DUP1 SLOAD PUSH1 0x1 PUSH1 0x1 PUSH1 0xA0 SHL SUB NOT AND PUSH1 0x1 PUSH1 0x1 PUSH1 0xA0 SHL SUB SWAP3 SWAP1 SWAP3 AND SWAP2 SWAP1 SWAP2 OR SWAP1 SSTORE PUSH2 0x102 JUMP JUMPDEST PUSH0 DUP1 SLOAD PUSH1 0x1 PUSH1 0x1 PUSH1 0xA0 SHL SUB DUP4 DUP2 AND PUSH1 0x1 PUSH1 0x1 PUSH1 0xA0 SHL SUB NOT DUP4 AND DUP2 OR DUP5 SSTORE PUSH1 0x40 MLOAD SWAP2 SWAP1 SWAP3 AND SWAP3 DUP4 SWAP2 PUSH32 0x8BE0079C531659141344CD1FD0A4F28419497F9722A3DAAFE3B4186F6B6457E0 SWAP2 SWAP1 LOG3 POP POP JUMP JUMPDEST PUSH0 PUSH1 0x20 DUP3 DUP5 SUB SLT ISZERO PUSH2 0xE5 JUMPI PUSH0 DUP1 REVERT JUMPDEST DUP2 MLOAD PUSH1 0x1 PUSH1 0x1 PUSH1 0xA0 SHL SUB DUP2 AND DUP2 EQ PUSH2 0xFB JUMPI PUSH0 DUP1 REVERT JUMPDEST SWAP4 SWAP3 POP POP POP JUMP JUMPDEST PUSH2 0x187B DUP1 PUSH2 0x10F PUSH0 CODECOPY PUSH0 RETURN INVALID PUSH1 0x80 PUSH1 0x40 MSTORE CALLVALUE DUP1 ISZERO PUSH2 0xF JUMPI PUSH0 DUP1 REVERT JUMPDEST POP PUSH1 0x4 CALLDATASIZE LT PUSH2 0xFB JUMPI PUSH0 CALLDATALOAD PUSH1 0xE0 SHR DUP1 PUSH4 0x8D977672 GT PUSH2 0x93 JUMPI DUP1 PUSH4 0xB6CB58A5 GT PUSH2 0x63 JUMPI DUP1 PUSH4 0xB6CB58A5 EQ PUSH2 0x2B6 JUMPI DUP1 PUSH4 0xC25838A2 EQ PUSH2 0x2BF JUMPI DUP1 PUSH4 0xCBABC9EC EQ PUSH2 0x2C7 JUMPI DUP1 PUSH4 0xF2FDE38B EQ PUSH2 0x2CF JUMPI PUSH0 DUP1 REVERT JUMPDEST DUP1 PUSH4 0x8D977672 EQ PUSH2 0x25E JUMPI DUP1 PUSH4 0x8DA5CB5B EQ PUSH2 0x28A JUMPI DUP1 PUSH4 0x9E23CB8A EQ PUSH2 0x29A JUMPI DUP1 PUSH4 0xA809AE60 EQ PUSH2 0x2AD JUMPI PUSH0 DUP1 REVERT JUMPDEST DUP1 PUSH4 0x3013CE29 GT PUSH2 0xCE JUMPI DUP1 PUSH4 0x3013CE29 EQ PUSH2 0x205 JUMPI DUP1 PUSH4 0x5E62BE25 EQ PUSH2 0x230 JUMPI DUP1 PUSH4 0x715018A6 EQ PUSH2 0x243 JUMPI DUP1 PUSH4 0x88488C33 EQ PUSH2 0x24B JUMPI PUSH0 DUP1 REVERT JUMPDEST DUP1 PUSH4 0x979ADCA EQ PUSH2 0xFF JUMPI DUP1 PUSH4 0xA3FA24A EQ PUSH2 0x114 JUMPI DUP1 PUSH4 0x244D6DAA EQ PUSH2 0x130 JUMPI DUP1 PUSH4 0x25DB36A8 EQ PUSH2 0x1F2 JUMPI JUMPDEST PUSH0 DUP1 REVERT JUMPDEST PUSH2 0x112 PUSH2 0x10D CALLDATASIZE PUSH1 0x4 PUSH2 0x1137 JUMP JUMPDEST PUSH2 0x2E2 JUMP JUMPDEST STOP JUMPDEST PUSH2 0x11D PUSH1 0x4 SLOAD DUP2 JUMP JUMPDEST PUSH1 0x40 MLOAD SWAP1 DUP2 MSTORE PUSH1 0x20 ADD JUMPDEST PUSH1 0x40 MLOAD DUP1 SWAP2 SUB SWAP1 RETURN JUMPDEST PUSH2 0x19F PUSH2 0x13E CALLDATASIZE PUSH1 0x4 PUSH2 0x11C8 JUMP JUMPDEST PUSH1 0x6 PUSH1 0x20 MSTORE PUSH0 SWAP1 DUP2 MSTORE PUSH1 0x40 SWAP1 KECCAK256 DUP1 SLOAD PUSH1 0x1 DUP3 ADD SLOAD PUSH1 0x2 DUP4 ADD SLOAD PUSH1 0x4 SWAP1 SWAP4 ADD SLOAD PUSH1 0x1 PUSH1 0x1 PUSH1 0xA0 SHL SUB DUP4 AND SWAP4 PUSH1 0x1 PUSH1 0xA0 SHL SWAP1 SWAP4 DIV PUSH1 0x1 PUSH1 0x1 PUSH1 0x40 SHL SUB AND SWAP3 PUSH1 0xFF DUP2 AND SWAP2 PUSH2 0x100 SWAP1 SWAP2 DIV PUSH4 0xFFFFFFFF SWAP1 DUP2 AND SWAP2 DUP2 DUP2 AND SWAP2 PUSH5 0x100000000 SWAP1 SWAP2 DIV AND DUP8 JUMP JUMPDEST PUSH1 0x40 DUP1 MLOAD PUSH1 0x1 PUSH1 0x1 PUSH1 0xA0 SHL SUB SWAP1 SWAP9 AND DUP9 MSTORE PUSH1 0x1 PUSH1 0x1 PUSH1 0x40 SHL SUB SWAP1 SWAP7 AND PUSH1 0x20 DUP9 ADD MSTORE SWAP5 DUP7 ADD SWAP4 SWAP1 SWAP4 MSTORE SWAP1 ISZERO ISZERO PUSH1 0x60 DUP6 ADD MSTORE PUSH4 0xFFFFFFFF SWAP1 DUP2 AND PUSH1 0x80 DUP6 ADD MSTORE SWAP1 DUP2 AND PUSH1 0xA0 DUP5 ADD MSTORE AND PUSH1 0xC0 DUP3 ADD MSTORE PUSH1 0xE0 ADD PUSH2 0x127 JUMP JUMPDEST PUSH2 0x112 PUSH2 0x200 CALLDATASIZE PUSH1 0x4 PUSH2 0x123B JUMP JUMPDEST PUSH2 0x423 JUMP JUMPDEST PUSH1 0x2 SLOAD PUSH2 0x218 SWAP1 PUSH1 0x1 PUSH1 0x1 PUSH1 0xA0 SHL SUB AND DUP2 JUMP JUMPDEST PUSH1 0x40 MLOAD PUSH1 0x1 PUSH1 0x1 PUSH1 0xA0 SHL SUB SWAP1 SWAP2 AND DUP2 MSTORE PUSH1 0x20 ADD PUSH2 0x127 JUMP JUMPDEST PUSH2 0x112 PUSH2 0x23E CALLDATASIZE PUSH1 0x4 PUSH2 0x12C3 JUMP JUMPDEST PUSH2 0x4F5 JUMP JUMPDEST PUSH2 0x112 PUSH2 0x5BB JUMP JUMPDEST PUSH2 0x112 PUSH2 0x259 CALLDATASIZE PUSH1 0x4 PUSH2 0x11C8 JUMP JUMPDEST PUSH2 0x5CE JUMP JUMPDEST PUSH2 0x271 PUSH2 0x26C CALLDATASIZE PUSH1 0x4 PUSH2 0x11C8 JUMP JUMPDEST PUSH2 0x6C1 JUMP JUMPDEST PUSH1 0x40 MLOAD PUSH2 0x127 SWAP14 SWAP13 SWAP12 SWAP11 SWAP10 SWAP9 SWAP8 SWAP7 SWAP6 SWAP5 SWAP4 SWAP3 SWAP2 SWAP1 PUSH2 0x134E JUMP JUMPDEST PUSH0 SLOAD PUSH1 0x1 PUSH1 0x1 PUSH1 0xA0 SHL SUB AND PUSH2 0x218 JUMP JUMPDEST PUSH2 0x112 PUSH2 0x2A8 CALLDATASIZE PUSH1 0x4 PUSH2 0x141D JUMP JUMPDEST PUSH2 0x8F5 JUMP JUMPDEST PUSH2 0x11D PUSH2 0xE10 DUP2 JUMP JUMPDEST PUSH2 0x11D PUSH1 0x3 SLOAD DUP2 JUMP JUMPDEST PUSH2 0x11D PUSH1 0xA DUP2 JUMP JUMPDEST PUSH2 0x11D PUSH1 0x32 DUP2 JUMP JUMPDEST PUSH2 0x112 PUSH2 0x2DD CALLDATASIZE PUSH1 0x4 PUSH2 0x1447 JUMP JUMPDEST PUSH2 0xA3F JUMP JUMPDEST PUSH1 0x4 DUP1 SLOAD SWAP1 PUSH0 PUSH2 0x2F1 DUP4 PUSH2 0x1488 JUMP JUMPDEST SWAP1 SWAP2 SSTORE POP POP PUSH1 0x40 DUP1 MLOAD PUSH2 0x100 DUP2 ADD DUP3 MSTORE CALLER DUP2 MSTORE PUSH1 0x1 PUSH1 0x1 PUSH1 0x40 SHL SUB DUP7 AND PUSH1 0x20 DUP3 ADD MSTORE SWAP1 DUP2 ADD DUP5 SWAP1 MSTORE PUSH1 0x1 PUSH1 0x60 DUP3 ADD MSTORE PUSH0 PUSH1 0x80 DUP3 ADD MSTORE PUSH1 0xA0 DUP2 ADD PUSH2 0x334 DUP4 DUP6 PUSH2 0x14E4 JUMP JUMPDEST DUP2 MSTORE PUSH0 PUSH1 0x20 DUP1 DUP4 ADD DUP3 SWAP1 MSTORE PUSH1 0x40 SWAP3 DUP4 ADD DUP3 SWAP1 MSTORE PUSH1 0x4 SLOAD DUP3 MSTORE PUSH1 0x6 DUP2 MSTORE SWAP1 DUP3 SWAP1 KECCAK256 DUP4 MLOAD DUP2 SLOAD DUP6 DUP5 ADD MLOAD PUSH1 0x1 PUSH1 0x1 PUSH1 0x40 SHL SUB AND PUSH1 0x1 PUSH1 0xA0 SHL MUL PUSH1 0x1 PUSH1 0x1 PUSH1 0xE0 SHL SUB NOT SWAP1 SWAP2 AND PUSH1 0x1 PUSH1 0x1 PUSH1 0xA0 SHL SUB SWAP1 SWAP3 AND SWAP2 SWAP1 SWAP2 OR OR DUP2 SSTORE SWAP2 DUP4 ADD MLOAD PUSH1 0x1 DUP4 ADD SSTORE PUSH1 0x60 DUP4 ADD MLOAD PUSH1 0x2 DUP4 ADD DUP1 SLOAD PUSH1 0x80 DUP7 ADD MLOAD PUSH4 0xFFFFFFFF AND PUSH2 0x100 MUL PUSH5 0xFFFFFFFF00 NOT SWAP4 ISZERO ISZERO SWAP4 SWAP1 SWAP4 AND PUSH5 0xFFFFFFFFFF NOT SWAP1 SWAP2 AND OR SWAP2 SWAP1 SWAP2 OR SWAP1 SSTORE PUSH1 0xA0 DUP4 ADD MLOAD DUP1 MLOAD PUSH2 0x3E2 SWAP3 PUSH1 0x3 DUP6 ADD SWAP3 ADD SWAP1 PUSH2 0x1081 JUMP JUMPDEST POP PUSH1 0xC0 DUP3 ADD MLOAD PUSH1 0x4 SWAP1 SWAP2 ADD DUP1 SLOAD PUSH1 0xE0 SWAP1 SWAP4 ADD MLOAD PUSH4 0xFFFFFFFF SWAP1 DUP2 AND PUSH5 0x100000000 MUL PUSH8 0xFFFFFFFFFFFFFFFF NOT SWAP1 SWAP5 AND SWAP3 AND SWAP2 SWAP1 SWAP2 OR SWAP2 SWAP1 SWAP2 OR SWAP1 SSTORE POP POP POP POP JUMP JUMPDEST PUSH0 DUP4 GT PUSH2 0x488 JUMPI PUSH1 0x40 MLOAD PUSH3 0x461BCD PUSH1 0xE5 SHL DUP2 MSTORE PUSH1 0x20 PUSH1 0x4 DUP3 ADD MSTORE PUSH1 0x28 PUSH1 0x24 DUP3 ADD MSTORE PUSH32 0x5061796D656E7420616D6F756E74206D75737420626520677265617465722074 PUSH1 0x44 DUP3 ADD MSTORE PUSH8 0x68616E207A65726F PUSH1 0xC0 SHL PUSH1 0x64 DUP3 ADD MSTORE PUSH1 0x84 ADD JUMPDEST PUSH1 0x40 MLOAD DUP1 SWAP2 SUB SWAP1 REVERT JUMPDEST PUSH1 0x3 DUP1 SLOAD SWAP1 PUSH0 PUSH2 0x497 DUP4 PUSH2 0x1488 JUMP JUMPDEST SWAP2 SWAP1 POP SSTORE POP PUSH2 0x4AA DUP7 DUP7 DUP7 DUP7 DUP7 DUP7 PUSH2 0xA7C JUMP JUMPDEST PUSH1 0x3 SLOAD PUSH1 0x40 DUP1 MLOAD SWAP2 DUP3 MSTORE CALLER PUSH1 0x20 DUP4 ADD MSTORE DUP2 ADD DUP5 SWAP1 MSTORE PUSH32 0x6CF53AA7292E664152C2EA948C3B3C95D4B05C36DAEB2626D0293473C4A4A153 SWAP1 PUSH1 0x60 ADD JUMPDEST PUSH1 0x40 MLOAD DUP1 SWAP2 SUB SWAP1 LOG1 POP POP POP POP POP POP JUMP JUMPDEST PUSH0 DUP4 DUP2 MSTORE PUSH1 0x5 PUSH1 0x20 SWAP1 DUP2 MSTORE PUSH1 0x40 DUP1 DUP4 KECCAK256 DUP6 DUP5 MSTORE PUSH1 0x6 SWAP1 SWAP3 MSTORE SWAP1 SWAP2 KECCAK256 PUSH1 0x2 DUP2 ADD SLOAD PUSH1 0xFF AND PUSH2 0x564 JUMPI PUSH1 0x40 MLOAD PUSH3 0x461BCD PUSH1 0xE5 SHL DUP2 MSTORE PUSH1 0x20 PUSH1 0x4 DUP3 ADD MSTORE PUSH1 0x16 PUSH1 0x24 DUP3 ADD MSTORE PUSH32 0x5265736F75726365206E6F7420617661696C61626C6500000000000000000000 PUSH1 0x44 DUP3 ADD MSTORE PUSH1 0x64 ADD PUSH2 0x47F JUMP JUMPDEST PUSH0 PUSH2 0x570 DUP4 DUP4 DUP7 PUSH2 0xD12 JUMP JUMPDEST SWAP1 POP PUSH2 0x57D DUP4 DUP7 DUP4 PUSH2 0xE0B JUMP JUMPDEST PUSH1 0x40 DUP1 MLOAD DUP8 DUP2 MSTORE PUSH1 0x20 DUP2 ADD DUP8 SWAP1 MSTORE SWAP1 DUP2 ADD DUP6 SWAP1 MSTORE PUSH32 0x6E071B3ECCA1348E93201AB40EC33E13C163FC1AC7969101E82A6F3E413381C5 SWAP1 PUSH1 0x60 ADD PUSH2 0x4E5 JUMP JUMPDEST PUSH2 0x5C3 PUSH2 0xE58 JUMP JUMPDEST PUSH2 0x5CC PUSH0 PUSH2 0xE84 JUMP JUMPDEST JUMP JUMPDEST PUSH0 DUP2 DUP2 MSTORE PUSH1 0x5 PUSH1 0x20 MSTORE PUSH1 0x40 SWAP1 KECCAK256 PUSH1 0x9 DUP2 ADD SLOAD PUSH1 0xFF AND ISZERO PUSH2 0x630 JUMPI PUSH1 0x40 MLOAD PUSH3 0x461BCD PUSH1 0xE5 SHL DUP2 MSTORE PUSH1 0x20 PUSH1 0x4 DUP3 ADD MSTORE PUSH1 0x16 PUSH1 0x24 DUP3 ADD MSTORE PUSH32 0x5461736B20616C726561647920616C6C6F636174656400000000000000000000 PUSH1 0x44 DUP3 ADD MSTORE PUSH1 0x64 ADD PUSH2 0x47F JUMP JUMPDEST PUSH1 0x9 DUP2 ADD DUP1 SLOAD PUSH1 0xFF NOT SWAP1 DUP2 AND PUSH1 0x1 OR SWAP1 SWAP2 SSTORE PUSH1 0x6 DUP1 DUP4 ADD SLOAD PUSH1 0x1 PUSH1 0x1 PUSH1 0x40 SHL SUB AND PUSH0 SWAP1 DUP2 MSTORE PUSH1 0x20 SWAP2 DUP3 MSTORE PUSH1 0x40 SWAP1 DUP2 SWAP1 KECCAK256 PUSH1 0x2 DUP2 ADD DUP1 SLOAD SWAP1 SWAP5 AND SWAP1 SWAP4 SSTORE DUP3 SLOAD PUSH1 0x7 DUP6 ADD SLOAD DUP3 MLOAD DUP8 DUP2 MSTORE PUSH1 0x1 PUSH1 0x1 PUSH1 0xA0 SHL SUB SWAP1 SWAP3 AND SWAP4 DUP3 ADD SWAP4 SWAP1 SWAP4 MSTORE DUP1 DUP3 ADD SWAP3 SWAP1 SWAP3 MSTORE MLOAD PUSH32 0xFDBEC991C520C476B24BB9EE9123EA146594B230B424C8140B23C33AC5906242 SWAP2 DUP2 SWAP1 SUB PUSH1 0x60 ADD SWAP1 LOG1 POP POP POP JUMP JUMPDEST PUSH1 0x5 PUSH1 0x20 MSTORE PUSH0 SWAP1 DUP2 MSTORE PUSH1 0x40 SWAP1 KECCAK256 DUP1 SLOAD PUSH1 0x1 DUP3 ADD DUP1 SLOAD PUSH1 0x1 PUSH1 0x1 PUSH1 0x40 SHL SUB DUP4 AND SWAP4 PUSH1 0x1 PUSH1 0x40 SHL SWAP1 SWAP4 DIV PUSH1 0x1 PUSH1 0x1 PUSH1 0xA0 SHL SUB AND SWAP3 SWAP2 SWAP1 PUSH2 0x6FE SWAP1 PUSH2 0x15C6 JUMP JUMPDEST DUP1 PUSH1 0x1F ADD PUSH1 0x20 DUP1 SWAP2 DIV MUL PUSH1 0x20 ADD PUSH1 0x40 MLOAD SWAP1 DUP2 ADD PUSH1 0x40 MSTORE DUP1 SWAP3 SWAP2 SWAP1 DUP2 DUP2 MSTORE PUSH1 0x20 ADD DUP3 DUP1 SLOAD PUSH2 0x72A SWAP1 PUSH2 0x15C6 JUMP JUMPDEST DUP1 ISZERO PUSH2 0x775 JUMPI DUP1 PUSH1 0x1F LT PUSH2 0x74C JUMPI PUSH2 0x100 DUP1 DUP4 SLOAD DIV MUL DUP4 MSTORE SWAP2 PUSH1 0x20 ADD SWAP2 PUSH2 0x775 JUMP JUMPDEST DUP3 ADD SWAP2 SWAP1 PUSH0 MSTORE PUSH1 0x20 PUSH0 KECCAK256 SWAP1 JUMPDEST DUP2 SLOAD DUP2 MSTORE SWAP1 PUSH1 0x1 ADD SWAP1 PUSH1 0x20 ADD DUP1 DUP4 GT PUSH2 0x758 JUMPI DUP3 SWAP1 SUB PUSH1 0x1F AND DUP3 ADD SWAP2 JUMPDEST POP POP POP PUSH1 0x2 DUP5 ADD SLOAD PUSH1 0x3 DUP6 ADD SLOAD PUSH1 0x4 DUP7 ADD SLOAD PUSH1 0x5 DUP8 ADD DUP1 SLOAD SWAP7 SWAP8 PUSH4 0xFFFFFFFF SWAP5 DUP6 AND SWAP8 SWAP4 SWAP7 POP PUSH1 0xFF DUP4 AND SWAP6 POP PUSH1 0x1 PUSH1 0x1 PUSH1 0xA0 SHL SUB PUSH2 0x100 DUP5 DIV AND SWAP5 PUSH1 0x1 PUSH1 0xA8 SHL SWAP1 SWAP4 DIV SWAP1 SWAP3 AND SWAP3 PUSH2 0x7C5 SWAP1 PUSH2 0x15C6 JUMP JUMPDEST DUP1 PUSH1 0x1F ADD PUSH1 0x20 DUP1 SWAP2 DIV MUL PUSH1 0x20 ADD PUSH1 0x40 MLOAD SWAP1 DUP2 ADD PUSH1 0x40 MSTORE DUP1 SWAP3 SWAP2 SWAP1 DUP2 DUP2 MSTORE PUSH1 0x20 ADD DUP3 DUP1 SLOAD PUSH2 0x7F1 SWAP1 PUSH2 0x15C6 JUMP JUMPDEST DUP1 ISZERO PUSH2 0x83C JUMPI DUP1 PUSH1 0x1F LT PUSH2 0x813 JUMPI PUSH2 0x100 DUP1 DUP4 SLOAD DIV MUL DUP4 MSTORE SWAP2 PUSH1 0x20 ADD SWAP2 PUSH2 0x83C JUMP JUMPDEST DUP3 ADD SWAP2 SWAP1 PUSH0 MSTORE PUSH1 0x20 PUSH0 KECCAK256 SWAP1 JUMPDEST DUP2 SLOAD DUP2 MSTORE SWAP1 PUSH1 0x1 ADD SWAP1 PUSH1 0x20 ADD DUP1 DUP4 GT PUSH2 0x81F JUMPI DUP3 SWAP1 SUB PUSH1 0x1F AND DUP3 ADD SWAP2 JUMPDEST POP POP POP POP PUSH1 0x6 DUP4 ADD SLOAD PUSH1 0x7 DUP5 ADD SLOAD PUSH1 0x8 DUP6 ADD DUP1 SLOAD SWAP5 SWAP6 PUSH1 0x1 PUSH1 0x1 PUSH1 0x40 SHL SUB SWAP1 SWAP4 AND SWAP5 SWAP2 SWAP4 POP SWAP1 PUSH2 0x86B SWAP1 PUSH2 0x15C6 JUMP JUMPDEST DUP1 PUSH1 0x1F ADD PUSH1 0x20 DUP1 SWAP2 DIV MUL PUSH1 0x20 ADD PUSH1 0x40 MLOAD SWAP1 DUP2 ADD PUSH1 0x40 MSTORE DUP1 SWAP3 SWAP2 SWAP1 DUP2 DUP2 MSTORE PUSH1 0x20 ADD DUP3 DUP1 SLOAD PUSH2 0x897 SWAP1 PUSH2 0x15C6 JUMP JUMPDEST DUP1 ISZERO PUSH2 0x8E2 JUMPI DUP1 PUSH1 0x1F LT PUSH2 0x8B9 JUMPI PUSH2 0x100 DUP1 DUP4 SLOAD DIV MUL DUP4 MSTORE SWAP2 PUSH1 0x20 ADD SWAP2 PUSH2 0x8E2 JUMP JUMPDEST DUP3 ADD SWAP2 SWAP1 PUSH0 MSTORE PUSH1 0x20 PUSH0 KECCAK256 SWAP1 JUMPDEST DUP2 SLOAD DUP2 MSTORE SWAP1 PUSH1 0x1 ADD SWAP1 PUSH1 0x20 ADD DUP1 DUP4 GT PUSH2 0x8C5 JUMPI DUP3 SWAP1 SUB PUSH1 0x1F AND DUP3 ADD SWAP2 JUMPDEST POP POP POP PUSH1 0x9 SWAP1 SWAP4 ADD SLOAD SWAP2 SWAP3 POP POP PUSH1 0xFF AND DUP14 JUMP JUMPDEST PUSH0 DUP3 DUP2 MSTORE PUSH1 0x5 PUSH1 0x20 SWAP1 DUP2 MSTORE PUSH1 0x40 DUP1 DUP4 KECCAK256 PUSH1 0x6 DUP1 DUP3 ADD SLOAD PUSH1 0x1 PUSH1 0x1 PUSH1 0x40 SHL SUB AND DUP6 MSTORE SWAP1 SWAP3 MSTORE SWAP1 SWAP2 KECCAK256 PUSH1 0x9 DUP3 ADD SLOAD PUSH1 0xFF AND PUSH2 0x965 JUMPI PUSH1 0x40 MLOAD PUSH3 0x461BCD PUSH1 0xE5 SHL DUP2 MSTORE PUSH1 0x20 PUSH1 0x4 DUP3 ADD MSTORE PUSH1 0x12 PUSH1 0x24 DUP3 ADD MSTORE PUSH18 0x15185CDAC81B9BDD08185B1B1BD8D85D1959 PUSH1 0x72 SHL PUSH1 0x44 DUP3 ADD MSTORE PUSH1 0x64 ADD PUSH2 0x47F JUMP JUMPDEST PUSH1 0x1 DUP4 PUSH4 0xFFFFFFFF AND LT ISZERO DUP1 ISZERO PUSH2 0x983 JUMPI POP PUSH1 0x5 DUP4 PUSH4 0xFFFFFFFF AND GT ISZERO JUMPDEST PUSH2 0x9CF JUMPI PUSH1 0x40 MLOAD PUSH3 0x461BCD PUSH1 0xE5 SHL DUP2 MSTORE PUSH1 0x20 PUSH1 0x4 DUP3 ADD MSTORE PUSH1 0x1E PUSH1 0x24 DUP3 ADD MSTORE PUSH32 0x526174696E67206D757374206265206265747765656E203120616E6420350000 PUSH1 0x44 DUP3 ADD MSTORE PUSH1 0x64 ADD PUSH2 0x47F JUMP JUMPDEST PUSH2 0x9D9 DUP2 DUP5 PUSH2 0xEE0 JUMP JUMPDEST PUSH2 0x9E3 DUP2 DUP5 PUSH2 0xF61 JUMP JUMPDEST PUSH1 0x6 DUP3 ADD SLOAD PUSH1 0x2 DUP3 ADD SLOAD PUSH1 0x40 DUP1 MLOAD PUSH1 0x1 PUSH1 0x1 PUSH1 0x40 SHL SUB SWAP1 SWAP4 AND DUP4 MSTORE PUSH2 0x100 SWAP1 SWAP2 DIV PUSH4 0xFFFFFFFF AND PUSH1 0x20 DUP4 ADD MSTORE PUSH31 0xA4F8488CD701F9A77136EB5C91D5E2EDEF3C38001CA7148525ACF8A2626481 SWAP2 ADD PUSH1 0x40 MLOAD DUP1 SWAP2 SUB SWAP1 LOG1 POP POP POP POP JUMP JUMPDEST PUSH2 0xA47 PUSH2 0xE58 JUMP JUMPDEST PUSH1 0x1 PUSH1 0x1 PUSH1 0xA0 SHL SUB DUP2 AND PUSH2 0xA70 JUMPI PUSH1 0x40 MLOAD PUSH4 0x1E4FBDF7 PUSH1 0xE0 SHL DUP2 MSTORE PUSH0 PUSH1 0x4 DUP3 ADD MSTORE PUSH1 0x24 ADD PUSH2 0x47F JUMP JUMPDEST PUSH2 0xA79 DUP2 PUSH2 0xE84 JUMP JUMPDEST POP JUMP JUMPDEST PUSH1 0x40 MLOAD DUP1 PUSH2 0x1A0 ADD PUSH1 0x40 MSTORE DUP1 PUSH1 0x3 SLOAD PUSH1 0x1 PUSH1 0x1 PUSH1 0x40 SHL SUB AND DUP2 MSTORE PUSH1 0x20 ADD CALLER PUSH1 0x1 PUSH1 0x1 PUSH1 0xA0 SHL SUB AND DUP2 MSTORE PUSH1 0x20 ADD DUP8 DUP8 DUP1 DUP1 PUSH1 0x1F ADD PUSH1 0x20 DUP1 SWAP2 DIV MUL PUSH1 0x20 ADD PUSH1 0x40 MLOAD SWAP1 DUP2 ADD PUSH1 0x40 MSTORE DUP1 SWAP4 SWAP3 SWAP2 SWAP1 DUP2 DUP2 MSTORE PUSH1 0x20 ADD DUP4 DUP4 DUP1 DUP3 DUP5 CALLDATACOPY PUSH0 SWAP3 ADD DUP3 SWAP1 MSTORE POP SWAP4 DUP6 MSTORE POP POP POP PUSH4 0xFFFFFFFF DUP8 AND PUSH1 0x20 DUP4 ADD MSTORE PUSH1 0x40 DUP3 ADD DUP7 SWAP1 MSTORE PUSH1 0x60 SWAP1 SWAP2 ADD SWAP1 DUP2 MSTORE PUSH1 0x20 ADD PUSH0 PUSH1 0x1 PUSH1 0x1 PUSH1 0xA0 SHL SUB AND DUP2 MSTORE PUSH1 0x20 ADD PUSH0 PUSH4 0xFFFFFFFF AND DUP2 MSTORE PUSH1 0x20 ADD PUSH1 0x40 MLOAD DUP1 PUSH1 0x20 ADD PUSH1 0x40 MSTORE DUP1 PUSH0 DUP2 MSTORE POP DUP2 MSTORE PUSH1 0x20 ADD PUSH0 PUSH1 0x1 PUSH1 0x1 PUSH1 0x40 SHL SUB AND DUP2 MSTORE PUSH1 0x20 ADD PUSH0 DUP2 MSTORE PUSH1 0x20 ADD DUP4 DUP4 DUP1 DUP1 PUSH1 0x1F ADD PUSH1 0x20 DUP1 SWAP2 DIV MUL PUSH1 0x20 ADD PUSH1 0x40 MLOAD SWAP1 DUP2 ADD PUSH1 0x40 MSTORE DUP1 SWAP4 SWAP3 SWAP2 SWAP1 DUP2 DUP2 MSTORE PUSH1 0x20 ADD DUP4 DUP4 DUP1 DUP3 DUP5 CALLDATACOPY PUSH0 SWAP3 ADD DUP3 SWAP1 MSTORE POP SWAP4 DUP6 MSTORE POP POP POP PUSH1 0x20 SWAP2 DUP3 ADD DUP2 SWAP1 MSTORE PUSH1 0x3 SLOAD DUP2 MSTORE PUSH1 0x5 DUP3 MSTORE PUSH1 0x40 SWAP1 DUP2 SWAP1 KECCAK256 DUP4 MLOAD DUP2 SLOAD SWAP4 DUP6 ADD MLOAD PUSH1 0x1 PUSH1 0x1 PUSH1 0xA0 SHL SUB AND PUSH1 0x1 PUSH1 0x40 SHL MUL PUSH1 0x1 PUSH1 0x1 PUSH1 0xE0 SHL SUB NOT SWAP1 SWAP5 AND PUSH1 0x1 PUSH1 0x1 PUSH1 0x40 SHL SUB SWAP1 SWAP2 AND OR SWAP3 SWAP1 SWAP3 OR DUP3 SSTORE DUP3 ADD MLOAD PUSH1 0x1 DUP3 ADD SWAP1 PUSH2 0xBD6 SWAP1 DUP3 PUSH2 0x1649 JUMP JUMPDEST POP PUSH1 0x60 DUP3 ADD MLOAD DUP2 PUSH1 0x2 ADD PUSH0 PUSH2 0x100 EXP DUP2 SLOAD DUP2 PUSH4 0xFFFFFFFF MUL NOT AND SWAP1 DUP4 PUSH4 0xFFFFFFFF AND MUL OR SWAP1 SSTORE POP PUSH1 0x80 DUP3 ADD MLOAD DUP2 PUSH1 0x3 ADD SSTORE PUSH1 0xA0 DUP3 ADD MLOAD DUP2 PUSH1 0x4 ADD PUSH0 PUSH2 0x100 EXP DUP2 SLOAD DUP2 PUSH1 0xFF MUL NOT AND SWAP1 DUP4 PUSH1 0x3 DUP2 GT ISZERO PUSH2 0xC30 JUMPI PUSH2 0xC30 PUSH2 0x131A JUMP JUMPDEST MUL OR SWAP1 SSTORE POP PUSH1 0xC0 DUP3 ADD MLOAD PUSH1 0x4 DUP3 ADD DUP1 SLOAD PUSH1 0xE0 DUP6 ADD MLOAD PUSH25 0xFFFFFFFFFFFFFFFFFFFFFFFFFFFFFFFFFFFFFFFFFFFFFFFF00 NOT SWAP1 SWAP2 AND PUSH2 0x100 PUSH1 0x1 PUSH1 0x1 PUSH1 0xA0 SHL SUB SWAP1 SWAP5 AND DUP5 MUL PUSH4 0xFFFFFFFF PUSH1 0xA8 SHL NOT AND OR PUSH1 0x1 PUSH1 0xA8 SHL PUSH4 0xFFFFFFFF SWAP1 SWAP3 AND SWAP2 SWAP1 SWAP2 MUL OR SWAP1 SSTORE DUP3 ADD MLOAD PUSH1 0x5 DUP3 ADD SWAP1 PUSH2 0xCA4 SWAP1 DUP3 PUSH2 0x1649 JUMP JUMPDEST POP PUSH2 0x120 DUP3 ADD MLOAD PUSH1 0x6 DUP3 ADD DUP1 SLOAD PUSH8 0xFFFFFFFFFFFFFFFF NOT AND PUSH1 0x1 PUSH1 0x1 PUSH1 0x40 SHL SUB SWAP1 SWAP3 AND SWAP2 SWAP1 SWAP2 OR SWAP1 SSTORE PUSH2 0x140 DUP3 ADD MLOAD PUSH1 0x7 DUP3 ADD SSTORE PUSH2 0x160 DUP3 ADD MLOAD PUSH1 0x8 DUP3 ADD SWAP1 PUSH2 0xCED SWAP1 DUP3 PUSH2 0x1649 JUMP JUMPDEST POP PUSH2 0x180 SWAP2 SWAP1 SWAP2 ADD MLOAD PUSH1 0x9 SWAP1 SWAP2 ADD DUP1 SLOAD PUSH1 0xFF NOT AND SWAP2 ISZERO ISZERO SWAP2 SWAP1 SWAP2 OR SWAP1 SSTORE POP POP POP POP POP POP JUMP JUMPDEST PUSH0 DUP1 PUSH2 0xDAB DUP6 PUSH1 0x8 ADD DUP1 SLOAD PUSH2 0xD26 SWAP1 PUSH2 0x15C6 JUMP JUMPDEST DUP1 PUSH1 0x1F ADD PUSH1 0x20 DUP1 SWAP2 DIV MUL PUSH1 0x20 ADD PUSH1 0x40 MLOAD SWAP1 DUP2 ADD PUSH1 0x40 MSTORE DUP1 SWAP3 SWAP2 SWAP1 DUP2 DUP2 MSTORE PUSH1 0x20 ADD DUP3 DUP1 SLOAD PUSH2 0xD52 SWAP1 PUSH2 0x15C6 JUMP JUMPDEST DUP1 ISZERO PUSH2 0xD9D JUMPI DUP1 PUSH1 0x1F LT PUSH2 0xD74 JUMPI PUSH2 0x100 DUP1 DUP4 SLOAD DIV MUL DUP4 MSTORE SWAP2 PUSH1 0x20 ADD SWAP2 PUSH2 0xD9D JUMP JUMPDEST DUP3 ADD SWAP2 SWAP1 PUSH0 MSTORE PUSH1 0x20 PUSH0 KECCAK256 SWAP1 JUMPDEST DUP2 SLOAD DUP2 MSTORE SWAP1 PUSH1 0x1 ADD SWAP1 PUSH1 0x20 ADD DUP1 DUP4 GT PUSH2 0xD80 JUMPI DUP3 SWAP1 SUB PUSH1 0x1F AND DUP3 ADD SWAP2 JUMPDEST POP POP POP POP POP DUP6 PUSH1 0x3 ADD PUSH2 0xFEC JUMP JUMPDEST PUSH2 0xDB5 JUMPI PUSH0 PUSH2 0xDB8 JUMP JUMPDEST PUSH1 0x32 JUMPDEST PUSH1 0x2 DUP6 ADD SLOAD PUSH2 0xDD4 SWAP1 PUSH1 0xA SWAP1 PUSH2 0x100 SWAP1 DIV PUSH4 0xFFFFFFFF AND PUSH2 0x1703 JUMP JUMPDEST PUSH2 0xDDE SWAP2 SWAP1 PUSH2 0x171A JUMP JUMPDEST SWAP1 POP PUSH2 0xDEC DUP2 PUSH2 0x3E8 PUSH2 0x171A JUMP JUMPDEST PUSH2 0xDF8 DUP5 PUSH2 0x3E8 PUSH2 0x1703 JUMP JUMPDEST PUSH2 0xE02 SWAP2 SWAP1 PUSH2 0x172D JUMP JUMPDEST SWAP6 SWAP5 POP POP POP POP POP JUMP JUMPDEST PUSH1 0x6 DUP4 ADD SLOAD PUSH1 0x1 PUSH1 0x1 PUSH1 0x40 SHL SUB AND ISZERO DUP1 PUSH2 0xE28 JUMPI POP DUP3 PUSH1 0x7 ADD SLOAD DUP2 LT JUMPDEST ISZERO PUSH2 0xE53 JUMPI PUSH1 0x6 DUP4 ADD DUP1 SLOAD PUSH8 0xFFFFFFFFFFFFFFFF NOT AND PUSH1 0x1 PUSH1 0x1 PUSH1 0x40 SHL SUB DUP5 AND OR SWAP1 SSTORE PUSH1 0x7 DUP4 ADD DUP2 SWAP1 SSTORE JUMPDEST POP POP POP JUMP JUMPDEST PUSH0 SLOAD PUSH1 0x1 PUSH1 0x1 PUSH1 0xA0 SHL SUB AND CALLER EQ PUSH2 0x5CC JUMPI PUSH1 0x40 MLOAD PUSH4 0x118CDAA7 PUSH1 0xE0 SHL DUP2 MSTORE CALLER PUSH1 0x4 DUP3 ADD MSTORE PUSH1 0x24 ADD PUSH2 0x47F JUMP JUMPDEST PUSH0 DUP1 SLOAD PUSH1 0x1 PUSH1 0x1 PUSH1 0xA0 SHL SUB DUP4 DUP2 AND PUSH20 0xFFFFFFFFFFFFFFFFFFFFFFFFFFFFFFFFFFFFFFFF NOT DUP4 AND DUP2 OR DUP5 SSTORE PUSH1 0x40 MLOAD SWAP2 SWAP1 SWAP3 AND SWAP3 DUP4 SWAP2 PUSH32 0x8BE0079C531659141344CD1FD0A4F28419497F9722A3DAAFE3B4186F6B6457E0 SWAP2 SWAP1 LOG3 POP POP JUMP JUMPDEST PUSH1 0x4 DUP3 ADD DUP1 SLOAD DUP3 SWAP2 SWAP1 PUSH0 SWAP1 PUSH2 0xEFC SWAP1 DUP5 SWAP1 PUSH4 0xFFFFFFFF AND PUSH2 0x174C JUMP JUMPDEST SWAP3 POP PUSH2 0x100 EXP DUP2 SLOAD DUP2 PUSH4 0xFFFFFFFF MUL NOT AND SWAP1 DUP4 PUSH4 0xFFFFFFFF AND MUL OR SWAP1 SSTORE POP DUP2 PUSH1 0x4 ADD PUSH1 0x4 DUP2 DUP2 SWAP1 SLOAD SWAP1 PUSH2 0x100 EXP SWAP1 DIV PUSH4 0xFFFFFFFF AND DUP1 SWAP3 SWAP2 SWAP1 PUSH2 0xF3E SWAP1 PUSH2 0x1768 JUMP JUMPDEST SWAP2 SWAP1 PUSH2 0x100 EXP DUP2 SLOAD DUP2 PUSH4 0xFFFFFFFF MUL NOT AND SWAP1 DUP4 PUSH4 0xFFFFFFFF AND MUL OR SWAP1 SSTORE POP POP POP POP JUMP JUMPDEST PUSH1 0x3 DUP2 PUSH4 0xFFFFFFFF AND GT ISZERO PUSH2 0xFB2 JUMPI PUSH1 0x2 DUP3 DUP2 ADD SLOAD PUSH2 0xF8C SWAP2 PUSH2 0x100 SWAP1 SWAP2 DIV PUSH4 0xFFFFFFFF AND SWAP1 PUSH2 0x171A JUMP JUMPDEST DUP3 PUSH1 0x2 ADD PUSH1 0x1 PUSH2 0x100 EXP DUP2 SLOAD DUP2 PUSH4 0xFFFFFFFF MUL NOT AND SWAP1 DUP4 PUSH4 0xFFFFFFFF AND MUL OR SWAP1 SSTORE POP POP POP JUMP JUMPDEST PUSH1 0x2 DUP3 ADD SLOAD PUSH1 0x1 PUSH2 0x100 SWAP1 SWAP2 DIV PUSH4 0xFFFFFFFF AND GT ISZERO PUSH2 0xFE8 JUMPI PUSH1 0x2 DUP3 ADD DUP1 SLOAD PUSH2 0x100 SWAP1 DIV PUSH4 0xFFFFFFFF AND SWAP1 PUSH1 0x1 PUSH2 0xF3E DUP4 PUSH2 0x178C JUMP JUMPDEST POP POP JUMP JUMPDEST PUSH0 DUP1 JUMPDEST DUP3 SLOAD DUP2 LT ISZERO PUSH2 0x1076 JUMPI DUP4 PUSH1 0x40 MLOAD PUSH1 0x20 ADD PUSH2 0x1009 SWAP2 SWAP1 PUSH2 0x17AA JUMP JUMPDEST PUSH1 0x40 MLOAD PUSH1 0x20 DUP2 DUP4 SUB SUB DUP2 MSTORE SWAP1 PUSH1 0x40 MSTORE DUP1 MLOAD SWAP1 PUSH1 0x20 ADD KECCAK256 DUP4 DUP3 DUP2 SLOAD DUP2 LT PUSH2 0x1031 JUMPI PUSH2 0x1031 PUSH2 0x17C0 JUMP JUMPDEST SWAP1 PUSH0 MSTORE PUSH1 0x20 PUSH0 KECCAK256 ADD PUSH1 0x40 MLOAD PUSH1 0x20 ADD PUSH2 0x1049 SWAP2 SWAP1 PUSH2 0x17D4 JUMP JUMPDEST PUSH1 0x40 MLOAD PUSH1 0x20 DUP2 DUP4 SUB SUB DUP2 MSTORE SWAP1 PUSH1 0x40 MSTORE DUP1 MLOAD SWAP1 PUSH1 0x20 ADD KECCAK256 SUB PUSH2 0x106E JUMPI PUSH1 0x1 SWAP2 POP POP PUSH2 0x107B JUMP JUMPDEST PUSH1 0x1 ADD PUSH2 0xFEF JUMP JUMPDEST POP PUSH0 SWAP1 POP JUMPDEST SWAP3 SWAP2 POP POP JUMP JUMPDEST DUP3 DUP1 SLOAD DUP3 DUP3 SSTORE SWAP1 PUSH0 MSTORE PUSH1 0x20 PUSH0 KECCAK256 SWAP1 DUP2 ADD SWAP3 DUP3 ISZERO PUSH2 0x10C5 JUMPI SWAP2 PUSH1 0x20 MUL DUP3 ADD JUMPDEST DUP3 DUP2 GT ISZERO PUSH2 0x10C5 JUMPI DUP3 MLOAD DUP3 SWAP1 PUSH2 0x10B5 SWAP1 DUP3 PUSH2 0x1649 JUMP JUMPDEST POP SWAP2 PUSH1 0x20 ADD SWAP2 SWAP1 PUSH1 0x1 ADD SWAP1 PUSH2 0x109F JUMP JUMPDEST POP PUSH2 0x10D1 SWAP3 SWAP2 POP PUSH2 0x10D5 JUMP JUMPDEST POP SWAP1 JUMP JUMPDEST DUP1 DUP3 GT ISZERO PUSH2 0x10D1 JUMPI PUSH0 PUSH2 0x10E8 DUP3 DUP3 PUSH2 0x10F1 JUMP JUMPDEST POP PUSH1 0x1 ADD PUSH2 0x10D5 JUMP JUMPDEST POP DUP1 SLOAD PUSH2 0x10FD SWAP1 PUSH2 0x15C6 JUMP JUMPDEST PUSH0 DUP3 SSTORE DUP1 PUSH1 0x1F LT PUSH2 0x110C JUMPI POP POP JUMP JUMPDEST PUSH1 0x1F ADD PUSH1 0x20 SWAP1 DIV SWAP1 PUSH0 MSTORE PUSH1 0x20 PUSH0 KECCAK256 SWAP1 DUP2 ADD SWAP1 PUSH2 0xA79 SWAP2 SWAP1 JUMPDEST DUP1 DUP3 GT ISZERO PUSH2 0x10D1 JUMPI PUSH0 DUP2 SSTORE PUSH1 0x1 ADD PUSH2 0x1124 JUMP JUMPDEST PUSH0 DUP1 PUSH0 DUP1 PUSH1 0x60 DUP6 DUP8 SUB SLT ISZERO PUSH2 0x114A JUMPI PUSH0 DUP1 REVERT JUMPDEST DUP5 CALLDATALOAD PUSH1 0x1 PUSH1 0x1 PUSH1 0x40 SHL SUB DUP2 AND DUP2 EQ PUSH2 0x1160 JUMPI PUSH0 DUP1 REVERT JUMPDEST SWAP4 POP PUSH1 0x20 DUP6 ADD CALLDATALOAD SWAP3 POP PUSH1 0x40 DUP6 ADD CALLDATALOAD PUSH1 0x1 PUSH1 0x1 PUSH1 0x40 SHL SUB DUP2 GT ISZERO PUSH2 0x1181 JUMPI PUSH0 DUP1 REVERT JUMPDEST DUP6 ADD PUSH1 0x1F DUP2 ADD DUP8 SGT PUSH2 0x1191 JUMPI PUSH0 DUP1 REVERT JUMPDEST DUP1 CALLDATALOAD PUSH1 0x1 PUSH1 0x1 PUSH1 0x40 SHL SUB DUP2 GT ISZERO PUSH2 0x11A6 JUMPI PUSH0 DUP1 REVERT JUMPDEST DUP8 PUSH1 0x20 DUP3 PUSH1 0x5 SHL DUP5 ADD ADD GT ISZERO PUSH2 0x11BA JUMPI PUSH0 DUP1 REVERT JUMPDEST SWAP5 SWAP8 SWAP4 SWAP7 POP PUSH1 0x20 ADD SWAP5 POP POP POP JUMP JUMPDEST PUSH0 PUSH1 0x20 DUP3 DUP5 SUB SLT ISZERO PUSH2 0x11D8 JUMPI PUSH0 DUP1 REVERT JUMPDEST POP CALLDATALOAD SWAP2 SWAP1 POP JUMP JUMPDEST PUSH0 DUP1 DUP4 PUSH1 0x1F DUP5 ADD SLT PUSH2 0x11EF JUMPI PUSH0 DUP1 REVERT JUMPDEST POP DUP2 CALLDATALOAD PUSH1 0x1 PUSH1 0x1 PUSH1 0x40 SHL SUB DUP2 GT ISZERO PUSH2 0x1205 JUMPI PUSH0 DUP1 REVERT JUMPDEST PUSH1 0x20 DUP4 ADD SWAP2 POP DUP4 PUSH1 0x20 DUP3 DUP6 ADD ADD GT ISZERO PUSH2 0x121C JUMPI PUSH0 DUP1 REVERT JUMPDEST SWAP3 POP SWAP3 SWAP1 POP JUMP JUMPDEST DUP1 CALLDATALOAD PUSH4 0xFFFFFFFF DUP2 AND DUP2 EQ PUSH2 0x1236 JUMPI PUSH0 DUP1 REVERT JUMPDEST SWAP2 SWAP1 POP JUMP JUMPDEST PUSH0 DUP1 PUSH0 DUP1 PUSH0 DUP1 PUSH1 0x80 DUP8 DUP10 SUB SLT ISZERO PUSH2 0x1250 JUMPI PUSH0 DUP1 REVERT JUMPDEST DUP7 CALLDATALOAD PUSH1 0x1 PUSH1 0x1 PUSH1 0x40 SHL SUB DUP2 GT ISZERO PUSH2 0x1265 JUMPI PUSH0 DUP1 REVERT JUMPDEST PUSH2 0x1271 DUP10 DUP3 DUP11 ADD PUSH2 0x11DF JUMP JUMPDEST SWAP1 SWAP8 POP SWAP6 POP PUSH2 0x1284 SWAP1 POP PUSH1 0x20 DUP9 ADD PUSH2 0x1223 JUMP JUMPDEST SWAP4 POP PUSH1 0x40 DUP8 ADD CALLDATALOAD SWAP3 POP PUSH1 0x60 DUP8 ADD CALLDATALOAD PUSH1 0x1 PUSH1 0x1 PUSH1 0x40 SHL SUB DUP2 GT ISZERO PUSH2 0x12A5 JUMPI PUSH0 DUP1 REVERT JUMPDEST PUSH2 0x12B1 DUP10 DUP3 DUP11 ADD PUSH2 0x11DF JUMP JUMPDEST SWAP8 SWAP11 SWAP7 SWAP10 POP SWAP5 SWAP8 POP SWAP3 SWAP6 SWAP4 SWAP5 SWAP3 POP POP POP JUMP JUMPDEST PUSH0 DUP1 PUSH0 PUSH1 0x60 DUP5 DUP7 SUB SLT ISZERO PUSH2 0x12D5 JUMPI PUSH0 DUP1 REVERT JUMPDEST POP POP DUP2 CALLDATALOAD SWAP4 PUSH1 0x20 DUP4 ADD CALLDATALOAD SWAP4 POP PUSH1 0x40 SWAP1 SWAP3 ADD CALLDATALOAD SWAP2 SWAP1 POP JUMP JUMPDEST PUSH0 DUP2 MLOAD DUP1 DUP5 MSTORE DUP1 PUSH1 0x20 DUP5 ADD PUSH1 0x20 DUP7 ADD MCOPY PUSH0 PUSH1 0x20 DUP3 DUP7 ADD ADD MSTORE PUSH1 0x20 PUSH1 0x1F NOT PUSH1 0x1F DUP4 ADD AND DUP6 ADD ADD SWAP2 POP POP SWAP3 SWAP2 POP POP JUMP JUMPDEST PUSH4 0x4E487B71 PUSH1 0xE0 SHL PUSH0 MSTORE PUSH1 0x21 PUSH1 0x4 MSTORE PUSH1 0x24 PUSH0 REVERT JUMPDEST PUSH1 0x4 DUP2 LT PUSH2 0x134A JUMPI PUSH4 0x4E487B71 PUSH1 0xE0 SHL PUSH0 MSTORE PUSH1 0x21 PUSH1 0x4 MSTORE PUSH1 0x24 PUSH0 REVERT JUMPDEST SWAP1 MSTORE JUMP JUMPDEST PUSH1 0x1 PUSH1 0x1 PUSH1 0x40 SHL SUB DUP15 AND DUP2 MSTORE PUSH1 0x1 PUSH1 0x1 PUSH1 0xA0 SHL SUB DUP14 AND PUSH1 0x20 DUP3 ADD MSTORE PUSH2 0x1A0 PUSH1 0x40 DUP3 ADD MSTORE PUSH0 PUSH2 0x1380 PUSH2 0x1A0 DUP4 ADD DUP15 PUSH2 0x12EC JUMP JUMPDEST PUSH4 0xFFFFFFFF DUP14 AND PUSH1 0x60 DUP5 ADD MSTORE DUP12 PUSH1 0x80 DUP5 ADD MSTORE PUSH2 0x139F PUSH1 0xA0 DUP5 ADD DUP13 PUSH2 0x132E JUMP JUMPDEST PUSH1 0x1 PUSH1 0x1 PUSH1 0xA0 SHL SUB DUP11 AND PUSH1 0xC0 DUP5 ADD MSTORE PUSH4 0xFFFFFFFF DUP10 AND PUSH1 0xE0 DUP5 ADD MSTORE DUP3 DUP2 SUB PUSH2 0x100 DUP5 ADD MSTORE PUSH2 0x13CD DUP2 DUP10 PUSH2 0x12EC JUMP JUMPDEST PUSH1 0x1 PUSH1 0x1 PUSH1 0x40 SHL SUB DUP9 AND PUSH2 0x120 DUP6 ADD MSTORE SWAP1 POP DUP6 PUSH2 0x140 DUP5 ADD MSTORE DUP3 DUP2 SUB PUSH2 0x160 DUP5 ADD MSTORE PUSH2 0x13F9 DUP2 DUP7 PUSH2 0x12EC JUMP JUMPDEST SWAP2 POP POP PUSH2 0x140B PUSH2 0x180 DUP4 ADD DUP5 ISZERO ISZERO SWAP1 MSTORE JUMP JUMPDEST SWAP15 SWAP14 POP POP POP POP POP POP POP POP POP POP POP POP POP POP JUMP JUMPDEST PUSH0 DUP1 PUSH1 0x40 DUP4 DUP6 SUB SLT ISZERO PUSH2 0x142E JUMPI PUSH0 DUP1 REVERT JUMPDEST DUP3 CALLDATALOAD SWAP2 POP PUSH2 0x143E PUSH1 0x20 DUP5 ADD PUSH2 0x1223 JUMP JUMPDEST SWAP1 POP SWAP3 POP SWAP3 SWAP1 POP JUMP JUMPDEST PUSH0 PUSH1 0x20 DUP3 DUP5 SUB SLT ISZERO PUSH2 0x1457 JUMPI PUSH0 DUP1 REVERT JUMPDEST DUP2 CALLDATALOAD PUSH1 0x1 PUSH1 0x1 PUSH1 0xA0 SHL SUB DUP2 AND DUP2 EQ PUSH2 0x146D JUMPI PUSH0 DUP1 REVERT JUMPDEST SWAP4 SWAP3 POP POP POP JUMP JUMPDEST PUSH4 0x4E487B71 PUSH1 0xE0 SHL PUSH0 MSTORE PUSH1 0x11 PUSH1 0x4 MSTORE PUSH1 0x24 PUSH0 REVERT JUMPDEST PUSH0 PUSH1 0x1 DUP3 ADD PUSH2 0x1499 JUMPI PUSH2 0x1499 PUSH2 0x1474 JUMP JUMPDEST POP PUSH1 0x1 ADD SWAP1 JUMP JUMPDEST PUSH4 0x4E487B71 PUSH1 0xE0 SHL PUSH0 MSTORE PUSH1 0x41 PUSH1 0x4 MSTORE PUSH1 0x24 PUSH0 REVERT JUMPDEST PUSH1 0x40 MLOAD PUSH1 0x1F DUP3 ADD PUSH1 0x1F NOT AND DUP2 ADD PUSH1 0x1 PUSH1 0x1 PUSH1 0x40 SHL SUB DUP2 GT DUP3 DUP3 LT OR ISZERO PUSH2 0x14DC JUMPI PUSH2 0x14DC PUSH2 0x14A0 JUMP JUMPDEST PUSH1 0x40 MSTORE SWAP2 SWAP1 POP JUMP JUMPDEST PUSH0 PUSH1 0x1 PUSH1 0x1 PUSH1 0x40 SHL SUB DUP4 GT ISZERO PUSH2 0x14FC JUMPI PUSH2 0x14FC PUSH2 0x14A0 JUMP JUMPDEST DUP3 PUSH1 0x5 SHL PUSH2 0x150C PUSH1 0x20 DUP3 ADD PUSH2 0x14B4 JUMP JUMPDEST DUP5 DUP2 MSTORE SWAP1 DUP4 ADD SWAP1 PUSH1 0x20 DUP2 ADD SWAP1 CALLDATASIZE DUP4 GT ISZERO PUSH2 0x1524 JUMPI PUSH0 DUP1 REVERT JUMPDEST DUP5 JUMPDEST DUP4 DUP2 LT ISZERO PUSH2 0x15BC JUMPI DUP1 CALLDATALOAD PUSH1 0x1 PUSH1 0x1 PUSH1 0x40 SHL SUB DUP2 GT ISZERO PUSH2 0x1543 JUMPI PUSH0 DUP1 REVERT JUMPDEST DUP7 ADD CALLDATASIZE PUSH1 0x1F DUP3 ADD SLT PUSH2 0x1553 JUMPI PUSH0 DUP1 REVERT JUMPDEST DUP1 CALLDATALOAD PUSH1 0x1 PUSH1 0x1 PUSH1 0x40 SHL SUB DUP2 GT ISZERO PUSH2 0x156C JUMPI PUSH2 0x156C PUSH2 0x14A0 JUMP JUMPDEST PUSH2 0x157F PUSH1 0x1F DUP3 ADD PUSH1 0x1F NOT AND PUSH1 0x20 ADD PUSH2 0x14B4 JUMP JUMPDEST DUP2 DUP2 MSTORE CALLDATASIZE PUSH1 0x20 DUP4 DUP6 ADD ADD GT ISZERO PUSH2 0x1593 JUMPI PUSH0 DUP1 REVERT JUMPDEST DUP2 PUSH1 0x20 DUP5 ADD PUSH1 0x20 DUP4 ADD CALLDATACOPY PUSH0 PUSH1 0x20 DUP4 DUP4 ADD ADD MSTORE DUP1 DUP7 MSTORE POP POP POP PUSH1 0x20 DUP4 ADD SWAP3 POP PUSH1 0x20 DUP2 ADD SWAP1 POP PUSH2 0x1526 JUMP JUMPDEST POP SWAP6 SWAP5 POP POP POP POP POP JUMP JUMPDEST PUSH1 0x1 DUP2 DUP2 SHR SWAP1 DUP3 AND DUP1 PUSH2 0x15DA JUMPI PUSH1 0x7F DUP3 AND SWAP2 POP JUMPDEST PUSH1 0x20 DUP3 LT DUP2 SUB PUSH2 0x15F8 JUMPI PUSH4 0x4E487B71 PUSH1 0xE0 SHL PUSH0 MSTORE PUSH1 0x22 PUSH1 0x4 MSTORE PUSH1 0x24 PUSH0 REVERT JUMPDEST POP SWAP2 SWAP1 POP JUMP JUMPDEST PUSH1 0x1F DUP3 GT ISZERO PUSH2 0xE53 JUMPI DUP1 PUSH0 MSTORE PUSH1 0x20 PUSH0 KECCAK256 PUSH1 0x1F DUP5 ADD PUSH1 0x5 SHR DUP2 ADD PUSH1 0x20 DUP6 LT ISZERO PUSH2 0x1623 JUMPI POP DUP1 JUMPDEST PUSH1 0x1F DUP5 ADD PUSH1 0x5 SHR DUP3 ADD SWAP2 POP JUMPDEST DUP2 DUP2 LT ISZERO PUSH2 0x1642 JUMPI PUSH0 DUP2 SSTORE PUSH1 0x1 ADD PUSH2 0x162F JUMP JUMPDEST POP POP POP POP POP JUMP JUMPDEST DUP2 MLOAD PUSH1 0x1 PUSH1 0x1 PUSH1 0x40 SHL SUB DUP2 GT ISZERO PUSH2 0x1662 JUMPI PUSH2 0x1662 PUSH2 0x14A0 JUMP JUMPDEST PUSH2 0x1676 DUP2 PUSH2 0x1670 DUP5 SLOAD PUSH2 0x15C6 JUMP JUMPDEST DUP5 PUSH2 0x15FE JUMP JUMPDEST PUSH1 0x20 PUSH1 0x1F DUP3 GT PUSH1 0x1 DUP2 EQ PUSH2 0x16A8 JUMPI PUSH0 DUP4 ISZERO PUSH2 0x1691 JUMPI POP DUP5 DUP3 ADD MLOAD JUMPDEST PUSH0 NOT PUSH1 0x3 DUP6 SWAP1 SHL SHR NOT AND PUSH1 0x1 DUP5 SWAP1 SHL OR DUP5 SSTORE PUSH2 0x1642 JUMP JUMPDEST PUSH0 DUP5 DUP2 MSTORE PUSH1 0x20 DUP2 KECCAK256 PUSH1 0x1F NOT DUP6 AND SWAP2 JUMPDEST DUP3 DUP2 LT ISZERO PUSH2 0x16D7 JUMPI DUP8 DUP6 ADD MLOAD DUP3 SSTORE PUSH1 0x20 SWAP5 DUP6 ADD SWAP5 PUSH1 0x1 SWAP1 SWAP3 ADD SWAP2 ADD PUSH2 0x16B7 JUMP JUMPDEST POP DUP5 DUP3 LT ISZERO PUSH2 0x16F4 JUMPI DUP7 DUP5 ADD MLOAD PUSH0 NOT PUSH1 0x3 DUP8 SWAP1 SHL PUSH1 0xF8 AND SHR NOT AND DUP2 SSTORE JUMPDEST POP POP POP POP PUSH1 0x1 SWAP1 DUP2 SHL ADD SWAP1 SSTORE POP JUMP JUMPDEST DUP1 DUP3 MUL DUP2 ISZERO DUP3 DUP3 DIV DUP5 EQ OR PUSH2 0x107B JUMPI PUSH2 0x107B PUSH2 0x1474 JUMP JUMPDEST DUP1 DUP3 ADD DUP1 DUP3 GT ISZERO PUSH2 0x107B JUMPI PUSH2 0x107B PUSH2 0x1474 JUMP JUMPDEST PUSH0 DUP3 PUSH2 0x1747 JUMPI PUSH4 0x4E487B71 PUSH1 0xE0 SHL PUSH0 MSTORE PUSH1 0x12 PUSH1 0x4 MSTORE PUSH1 0x24 PUSH0 REVERT JUMPDEST POP DIV SWAP1 JUMP JUMPDEST PUSH4 0xFFFFFFFF DUP2 DUP2 AND DUP4 DUP3 AND ADD SWAP1 DUP2 GT ISZERO PUSH2 0x107B JUMPI PUSH2 0x107B PUSH2 0x1474 JUMP JUMPDEST PUSH0 PUSH4 0xFFFFFFFF DUP3 AND PUSH4 0xFFFFFFFF DUP2 SUB PUSH2 0x1783 JUMPI PUSH2 0x1783 PUSH2 0x1474 JUMP JUMPDEST PUSH1 0x1 ADD SWAP3 SWAP2 POP POP JUMP JUMPDEST PUSH0 PUSH4 0xFFFFFFFF DUP3 AND DUP1 PUSH2 0x17A1 JUMPI PUSH2 0x17A1 PUSH2 0x1474 JUMP JUMPDEST PUSH0 NOT ADD SWAP3 SWAP2 POP POP JUMP JUMPDEST PUSH0 DUP3 MLOAD DUP1 PUSH1 0x20 DUP6 ADD DUP5 MCOPY PUSH0 SWAP3 ADD SWAP2 DUP3 MSTORE POP SWAP2 SWAP1 POP JUMP JUMPDEST PUSH4 0x4E487B71 PUSH1 0xE0 SHL PUSH0 MSTORE PUSH1 0x32 PUSH1 0x4 MSTORE PUSH1 0x24 PUSH0 REVERT JUMPDEST PUSH0 DUP1 DUP4 SLOAD PUSH2 0x17E1 DUP2 PUSH2 0x15C6 JUMP JUMPDEST PUSH1 0x1 DUP3 AND DUP1 ISZERO PUSH2 0x17F8 JUMPI PUSH1 0x1 DUP2 EQ PUSH2 0x180D JUMPI PUSH2 0x183A JUMP JUMPDEST PUSH1 0xFF NOT DUP4 AND DUP7 MSTORE DUP2 ISZERO ISZERO DUP3 MUL DUP7 ADD SWAP4 POP PUSH2 0x183A JUMP JUMPDEST DUP7 PUSH0 MSTORE PUSH1 0x20 PUSH0 KECCAK256 PUSH0 JUMPDEST DUP4 DUP2 LT ISZERO PUSH2 0x1832 JUMPI DUP2 SLOAD DUP9 DUP3 ADD MSTORE PUSH1 0x1 SWAP1 SWAP2 ADD SWAP1 PUSH1 0x20 ADD PUSH2 0x1816 JUMP JUMPDEST POP POP DUP2 DUP7 ADD SWAP4 POP JUMPDEST POP SWAP2 SWAP6 SWAP5 POP POP POP POP POP JUMP INVALID LOG2 PUSH5 0x6970667358 0x22 SLT KECCAK256 CALLVALUE INVALID DUP13 0xAF LT SWAP3 0xCB PUSH4 0x9429772 0xB1 DUP2 0xF8 DUP16 PUSH0 0xB4 EXTCODESIZE 0xEB 0xBF JUMPI SHR 0x2B 0xD5 0x28 PUSH1 0xA7 CALLDATACOPY 0xD3 BASEFEE DUP9 PUSH5 0x736F6C6343 STOP ADDMOD BYTE STOP CALLER "
				},
				"gasEstimates": {
					"creation": {
						"codeDepositCost": "1253400",
						"executionCost": "infinite",
						"totalCost": "infinite"
					},
					"external": {
						"BIDDING_PERIOD()": "272",
						"REPUTATION_FACTOR()": "227",
						"SPECIALIZATION_BONUS()": "249",
						"createTask(string,uint32,uint256,string)": "infinite",
						"finalizeTask(uint256)": "59037",
						"owner()": "2374",
						"paymentToken()": "2359",
						"placeBid(uint256,uint256,uint256)": "infinite",
						"rateResource(uint256,uint32)": "infinite",
						"registerResource(uint64,uint256,string[])": "infinite",
						"renounceOwnership()": "infinite",
						"resourceCount()": "2329",
						"resources(uint256)": "9151",
						"taskCount()": "2305",
						"tasks(uint256)": "infinite",
						"transferOwnership(address)": "28370"
					},
					"internal": {
						"_adjustResourceReputation(struct ComputeMarketplace.Resource storage pointer,uint32)": "28720",
						"_calculateAdjustedBidPrice(struct ComputeMarketplace.Task storage pointer,struct ComputeMarketplace.Resource storage pointer,uint256)": "infinite",
						"_checkSpecializationMatch(string memory,string storage ref[] storage pointer)": "infinite",
						"_createNewTask(string calldata,uint32,uint256,string calldata)": "infinite",
						"_updateResourceRating(struct ComputeMarketplace.Resource storage pointer,uint32)": "53107",
						"_updateTaskAllocation(struct ComputeMarketplace.Task storage pointer,uint256,uint256)": "50659"
					}
				},
				"methodIdentifiers": {
					"BIDDING_PERIOD()": "a809ae60",
					"REPUTATION_FACTOR()": "c25838a2",
					"SPECIALIZATION_BONUS()": "cbabc9ec",
					"createTask(string,uint32,uint256,string)": "25db36a8",
					"finalizeTask(uint256)": "88488c33",
					"owner()": "8da5cb5b",
					"paymentToken()": "3013ce29",
					"placeBid(uint256,uint256,uint256)": "5e62be25",
					"rateResource(uint256,uint32)": "9e23cb8a",
					"registerResource(uint64,uint256,string[])": "0979adca",
					"renounceOwnership()": "715018a6",
					"resourceCount()": "0a3fa24a",
					"resources(uint256)": "244d6daa",
					"taskCount()": "b6cb58a5",
					"tasks(uint256)": "8d977672",
					"transferOwnership(address)": "f2fde38b"
				}
			},
			"storageLayout": {
				"storage": [
					{
						"astId": 8,
						"contract": "ComputeMarketplace.sol:ComputeMarketplace",
						"label": "_owner",
						"offset": 0,
						"slot": "0",
						"type": "t_address"
					},
					{
						"astId": 158,
						"contract": "ComputeMarketplace.sol:ComputeMarketplace",
						"label": "_status",
						"offset": 0,
						"slot": "1",
						"type": "t_uint256"
					},
					{
						"astId": 333,
						"contract": "ComputeMarketplace.sol:ComputeMarketplace",
						"label": "paymentToken",
						"offset": 0,
						"slot": "2",
						"type": "t_contract(IERC20)290"
					},
					{
						"astId": 335,
						"contract": "ComputeMarketplace.sol:ComputeMarketplace",
						"label": "taskCount",
						"offset": 0,
						"slot": "3",
						"type": "t_uint256"
					},
					{
						"astId": 337,
						"contract": "ComputeMarketplace.sol:ComputeMarketplace",
						"label": "resourceCount",
						"offset": 0,
						"slot": "4",
						"type": "t_uint256"
					},
					{
						"astId": 402,
						"contract": "ComputeMarketplace.sol:ComputeMarketplace",
						"label": "tasks",
						"offset": 0,
						"slot": "5",
						"type": "t_mapping(t_uint256,t_struct(Task)379_storage)"
					},
					{
						"astId": 407,
						"contract": "ComputeMarketplace.sol:ComputeMarketplace",
						"label": "resources",
						"offset": 0,
						"slot": "6",
						"type": "t_mapping(t_uint256,t_struct(Resource)397_storage)"
					}
				],
				"types": {
					"t_address": {
						"encoding": "inplace",
						"label": "address",
						"numberOfBytes": "20"
					},
					"t_array(t_string_storage)dyn_storage": {
						"base": "t_string_storage",
						"encoding": "dynamic_array",
						"label": "string[]",
						"numberOfBytes": "32"
					},
					"t_bool": {
						"encoding": "inplace",
						"label": "bool",
						"numberOfBytes": "1"
					},
					"t_contract(IERC20)290": {
						"encoding": "inplace",
						"label": "contract IERC20",
						"numberOfBytes": "20"
					},
					"t_enum(TaskStatus)351": {
						"encoding": "inplace",
						"label": "enum ComputeMarketplace.TaskStatus",
						"numberOfBytes": "1"
					},
					"t_mapping(t_uint256,t_struct(Resource)397_storage)": {
						"encoding": "mapping",
						"key": "t_uint256",
						"label": "mapping(uint256 => struct ComputeMarketplace.Resource)",
						"numberOfBytes": "32",
						"value": "t_struct(Resource)397_storage"
					},
					"t_mapping(t_uint256,t_struct(Task)379_storage)": {
						"encoding": "mapping",
						"key": "t_uint256",
						"label": "mapping(uint256 => struct ComputeMarketplace.Task)",
						"numberOfBytes": "32",
						"value": "t_struct(Task)379_storage"
					},
					"t_string_storage": {
						"encoding": "bytes",
						"label": "string",
						"numberOfBytes": "32"
					},
					"t_struct(Resource)397_storage": {
						"encoding": "inplace",
						"label": "struct ComputeMarketplace.Resource",
						"members": [
							{
								"astId": 381,
								"contract": "ComputeMarketplace.sol:ComputeMarketplace",
								"label": "owner",
								"offset": 0,
								"slot": "0",
								"type": "t_address"
							},
							{
								"astId": 383,
								"contract": "ComputeMarketplace.sol:ComputeMarketplace",
								"label": "computePower",
								"offset": 20,
								"slot": "0",
								"type": "t_uint64"
							},
							{
								"astId": 385,
								"contract": "ComputeMarketplace.sol:ComputeMarketplace",
								"label": "basePrice",
								"offset": 0,
								"slot": "1",
								"type": "t_uint256"
							},
							{
								"astId": 387,
								"contract": "ComputeMarketplace.sol:ComputeMarketplace",
								"label": "isAvailable",
								"offset": 0,
								"slot": "2",
								"type": "t_bool"
							},
							{
								"astId": 389,
								"contract": "ComputeMarketplace.sol:ComputeMarketplace",
								"label": "reputation",
								"offset": 1,
								"slot": "2",
								"type": "t_uint32"
							},
							{
								"astId": 392,
								"contract": "ComputeMarketplace.sol:ComputeMarketplace",
								"label": "specializations",
								"offset": 0,
								"slot": "3",
								"type": "t_array(t_string_storage)dyn_storage"
							},
							{
								"astId": 394,
								"contract": "ComputeMarketplace.sol:ComputeMarketplace",
								"label": "totalRatingScore",
								"offset": 0,
								"slot": "4",
								"type": "t_uint32"
							},
							{
								"astId": 396,
								"contract": "ComputeMarketplace.sol:ComputeMarketplace",
								"label": "numberOfRatings",
								"offset": 4,
								"slot": "4",
								"type": "t_uint32"
							}
						],
						"numberOfBytes": "160"
					},
					"t_struct(Task)379_storage": {
						"encoding": "inplace",
						"label": "struct ComputeMarketplace.Task",
						"members": [
							{
								"astId": 353,
								"contract": "ComputeMarketplace.sol:ComputeMarketplace",
								"label": "taskId",
								"offset": 0,
								"slot": "0",
								"type": "t_uint64"
							},
							{
								"astId": 355,
								"contract": "ComputeMarketplace.sol:ComputeMarketplace",
								"label": "client",
								"offset": 8,
								"slot": "0",
								"type": "t_address"
							},
							{
								"astId": 357,
								"contract": "ComputeMarketplace.sol:ComputeMarketplace",
								"label": "description",
								"offset": 0,
								"slot": "1",
								"type": "t_string_storage"
							},
							{
								"astId": 359,
								"contract": "ComputeMarketplace.sol:ComputeMarketplace",
								"label": "duration",
								"offset": 0,
								"slot": "2",
								"type": "t_uint32"
							},
							{
								"astId": 361,
								"contract": "ComputeMarketplace.sol:ComputeMarketplace",
								"label": "paymentAmount",
								"offset": 0,
								"slot": "3",
								"type": "t_uint256"
							},
							{
								"astId": 364,
								"contract": "ComputeMarketplace.sol:ComputeMarketplace",
								"label": "status",
								"offset": 0,
								"slot": "4",
								"type": "t_enum(TaskStatus)351"
							},
							{
								"astId": 366,
								"contract": "ComputeMarketplace.sol:ComputeMarketplace",
								"label": "provider",
								"offset": 1,
								"slot": "4",
								"type": "t_address"
							},
							{
								"astId": 368,
								"contract": "ComputeMarketplace.sol:ComputeMarketplace",
								"label": "taskStartTime",
								"offset": 21,
								"slot": "4",
								"type": "t_uint32"
							},
							{
								"astId": 370,
								"contract": "ComputeMarketplace.sol:ComputeMarketplace",
								"label": "resultHash",
								"offset": 0,
								"slot": "5",
								"type": "t_string_storage"
							},
							{
								"astId": 372,
								"contract": "ComputeMarketplace.sol:ComputeMarketplace",
								"label": "allocatedResourceId",
								"offset": 0,
								"slot": "6",
								"type": "t_uint64"
							},
							{
								"astId": 374,
								"contract": "ComputeMarketplace.sol:ComputeMarketplace",
								"label": "finalPrice",
								"offset": 0,
								"slot": "7",
								"type": "t_uint256"
							},
							{
								"astId": 376,
								"contract": "ComputeMarketplace.sol:ComputeMarketplace",
								"label": "taskType",
								"offset": 0,
								"slot": "8",
								"type": "t_string_storage"
							},
							{
								"astId": 378,
								"contract": "ComputeMarketplace.sol:ComputeMarketplace",
								"label": "isAllocated",
								"offset": 0,
								"slot": "9",
								"type": "t_bool"
							}
						],
						"numberOfBytes": "320"
					},
					"t_uint256": {
						"encoding": "inplace",
						"label": "uint256",
						"numberOfBytes": "32"
					},
					"t_uint32": {
						"encoding": "inplace",
						"label": "uint32",
						"numberOfBytes": "4"
					},
					"t_uint64": {
						"encoding": "inplace",
						"label": "uint64",
						"numberOfBytes": "8"
					}
				}
			},
			"userdoc": {
				"kind": "user",
				"methods": {},
				"version": 1
			}
		}
	}
}